{
	"tests/30_day project/day1/pr2.sol": {
		"Magicword": {
			"abi": [
				{
					"inputs": [
						{
							"internalType": "string",
							"name": "_data",
							"type": "string"
						}
					],
					"name": "check",
					"outputs": [
						{
							"internalType": "bool",
							"name": "",
							"type": "bool"
						}
					],
					"stateMutability": "view",
					"type": "function"
				}
			],
			"devdoc": {
				"kind": "dev",
				"methods": {},
				"version": 1
			},
			"evm": {
				"assembly": "    /* \"tests/30_day project/day1/pr2.sol\":593:837  contract Magicword{... */\n  mstore(0x40, 0x80)\n    /* \"tests/30_day project/day1/pr2.sol\":634:700  0xb44f08808177cacab2387fe0840de5512051cfd6a406b66077a263edaf43a8b6 */\n  0xb44f08808177cacab2387fe0840de5512051cfd6a406b66077a263edaf43a8b6\n    /* \"tests/30_day project/day1/pr2.sol\":618:700  bytes32  ans =  0xb44f08808177cacab2387fe0840de5512051cfd6a406b66077a263edaf43a8b6 */\n  0x00\n  shl\n  0x00\n  sstore\n    /* \"tests/30_day project/day1/pr2.sol\":593:837  contract Magicword{... */\n  callvalue\n  dup1\n  iszero\n  tag_1\n  jumpi\n  0x00\n  dup1\n  revert\ntag_1:\n  pop\n  dataSize(sub_0)\n  dup1\n  dataOffset(sub_0)\n  0x00\n  codecopy\n  0x00\n  return\nstop\n\nsub_0: assembly {\n        /* \"tests/30_day project/day1/pr2.sol\":593:837  contract Magicword{... */\n      mstore(0x40, 0x80)\n      callvalue\n      dup1\n      iszero\n      tag_1\n      jumpi\n      0x00\n      dup1\n      revert\n    tag_1:\n      pop\n      jumpi(tag_2, lt(calldatasize, 0x04))\n      shr(0xe0, calldataload(0x00))\n      dup1\n      0xb6f921ad\n      eq\n      tag_3\n      jumpi\n    tag_2:\n      0x00\n      dup1\n      revert\n        /* \"tests/30_day project/day1/pr2.sol\":707:834  function check(string memory _data)public view returns(bool){... */\n    tag_3:\n      tag_4\n      0x04\n      dup1\n      calldatasize\n      sub\n      dup2\n      add\n      swap1\n      tag_5\n      swap2\n      swap1\n      tag_6\n      jump\t// in\n    tag_5:\n      tag_7\n      jump\t// in\n    tag_4:\n      mload(0x40)\n      tag_8\n      swap2\n      swap1\n      tag_9\n      jump\t// in\n    tag_8:\n      mload(0x40)\n      dup1\n      swap2\n      sub\n      swap1\n      return\n    tag_7:\n        /* \"tests/30_day project/day1/pr2.sol\":762:766  bool */\n      0x00\n        /* \"tests/30_day project/day1/pr2.sol\":822:825  ans */\n      dup1\n      sload\n        /* \"tests/30_day project/day1/pr2.sol\":813:818  _data */\n      dup3\n        /* \"tests/30_day project/day1/pr2.sol\":796:819  abi.encodePacked(_data) */\n      add(0x20, mload(0x40))\n      tag_11\n      swap2\n      swap1\n      tag_12\n      jump\t// in\n    tag_11:\n      mload(0x40)\n      0x20\n      dup2\n      dup4\n      sub\n      sub\n      dup2\n      mstore\n      swap1\n      0x40\n      mstore\n        /* \"tests/30_day project/day1/pr2.sol\":786:820  keccak256(abi.encodePacked(_data)) */\n      dup1\n      mload\n      swap1\n      0x20\n      add\n      keccak256\n        /* \"tests/30_day project/day1/pr2.sol\":786:825  keccak256(abi.encodePacked(_data))==ans */\n      eq\n        /* \"tests/30_day project/day1/pr2.sol\":778:826  return (keccak256(abi.encodePacked(_data))==ans) */\n      swap1\n      pop\n        /* \"tests/30_day project/day1/pr2.sol\":707:834  function check(string memory _data)public view returns(bool){... */\n      swap2\n      swap1\n      pop\n      jump\t// out\n        /* \"#utility.yul\":7:82   */\n    tag_13:\n        /* \"#utility.yul\":40:46   */\n      0x00\n        /* \"#utility.yul\":73:75   */\n      0x40\n        /* \"#utility.yul\":67:76   */\n      mload\n        /* \"#utility.yul\":57:76   */\n      swap1\n      pop\n        /* \"#utility.yul\":7:82   */\n      swap1\n      jump\t// out\n        /* \"#utility.yul\":88:205   */\n    tag_14:\n        /* \"#utility.yul\":197:198   */\n      0x00\n        /* \"#utility.yul\":194:195   */\n      dup1\n        /* \"#utility.yul\":187:199   */\n      revert\n        /* \"#utility.yul\":211:328   */\n    tag_15:\n        /* \"#utility.yul\":320:321   */\n      0x00\n        /* \"#utility.yul\":317:318   */\n      dup1\n        /* \"#utility.yul\":310:322   */\n      revert\n        /* \"#utility.yul\":334:451   */\n    tag_16:\n        /* \"#utility.yul\":443:444   */\n      0x00\n        /* \"#utility.yul\":440:441   */\n      dup1\n        /* \"#utility.yul\":433:445   */\n      revert\n        /* \"#utility.yul\":457:574   */\n    tag_17:\n        /* \"#utility.yul\":566:567   */\n      0x00\n        /* \"#utility.yul\":563:564   */\n      dup1\n        /* \"#utility.yul\":556:568   */\n      revert\n        /* \"#utility.yul\":580:682   */\n    tag_18:\n        /* \"#utility.yul\":621:627   */\n      0x00\n        /* \"#utility.yul\":672:674   */\n      0x1f\n        /* \"#utility.yul\":668:675   */\n      not\n        /* \"#utility.yul\":663:665   */\n      0x1f\n        /* \"#utility.yul\":656:661   */\n      dup4\n        /* \"#utility.yul\":652:666   */\n      add\n        /* \"#utility.yul\":648:676   */\n      and\n        /* \"#utility.yul\":638:676   */\n      swap1\n      pop\n        /* \"#utility.yul\":580:682   */\n      swap2\n      swap1\n      pop\n      jump\t// out\n        /* \"#utility.yul\":688:868   */\n    tag_19:\n        /* \"#utility.yul\":736:813   */\n      0x4e487b7100000000000000000000000000000000000000000000000000000000\n        /* \"#utility.yul\":733:734   */\n      0x00\n        /* \"#utility.yul\":726:814   */\n      mstore\n        /* \"#utility.yul\":833:837   */\n      0x41\n        /* \"#utility.yul\":830:831   */\n      0x04\n        /* \"#utility.yul\":823:838   */\n      mstore\n        /* \"#utility.yul\":857:861   */\n      0x24\n        /* \"#utility.yul\":854:855   */\n      0x00\n        /* \"#utility.yul\":847:862   */\n      revert\n        /* \"#utility.yul\":874:1155   */\n    tag_20:\n        /* \"#utility.yul\":957:984   */\n      tag_41\n        /* \"#utility.yul\":979:983   */\n      dup3\n        /* \"#utility.yul\":957:984   */\n      tag_18\n      jump\t// in\n    tag_41:\n        /* \"#utility.yul\":949:955   */\n      dup2\n        /* \"#utility.yul\":945:985   */\n      add\n        /* \"#utility.yul\":1087:1093   */\n      dup2\n        /* \"#utility.yul\":1075:1085   */\n      dup2\n        /* \"#utility.yul\":1072:1094   */\n      lt\n        /* \"#utility.yul\":1051:1069   */\n      0xffffffffffffffff\n        /* \"#utility.yul\":1039:1049   */\n      dup3\n        /* \"#utility.yul\":1036:1070   */\n      gt\n        /* \"#utility.yul\":1033:1095   */\n      or\n        /* \"#utility.yul\":1030:1118   */\n      iszero\n      tag_42\n      jumpi\n        /* \"#utility.yul\":1098:1116   */\n      tag_43\n      tag_19\n      jump\t// in\n    tag_43:\n        /* \"#utility.yul\":1030:1118   */\n    tag_42:\n        /* \"#utility.yul\":1138:1148   */\n      dup1\n        /* \"#utility.yul\":1134:1136   */\n      0x40\n        /* \"#utility.yul\":1127:1149   */\n      mstore\n        /* \"#utility.yul\":917:1155   */\n      pop\n        /* \"#utility.yul\":874:1155   */\n      pop\n      pop\n      jump\t// out\n        /* \"#utility.yul\":1161:1290   */\n    tag_21:\n        /* \"#utility.yul\":1195:1201   */\n      0x00\n        /* \"#utility.yul\":1222:1242   */\n      tag_45\n      tag_13\n      jump\t// in\n    tag_45:\n        /* \"#utility.yul\":1212:1242   */\n      swap1\n      pop\n        /* \"#utility.yul\":1251:1284   */\n      tag_46\n        /* \"#utility.yul\":1279:1283   */\n      dup3\n        /* \"#utility.yul\":1271:1277   */\n      dup3\n        /* \"#utility.yul\":1251:1284   */\n      tag_20\n      jump\t// in\n    tag_46:\n        /* \"#utility.yul\":1161:1290   */\n      swap2\n      swap1\n      pop\n      jump\t// out\n        /* \"#utility.yul\":1296:1604   */\n    tag_22:\n        /* \"#utility.yul\":1358:1362   */\n      0x00\n        /* \"#utility.yul\":1448:1466   */\n      0xffffffffffffffff\n        /* \"#utility.yul\":1440:1446   */\n      dup3\n        /* \"#utility.yul\":1437:1467   */\n      gt\n        /* \"#utility.yul\":1434:1490   */\n      iszero\n      tag_48\n      jumpi\n        /* \"#utility.yul\":1470:1488   */\n      tag_49\n      tag_19\n      jump\t// in\n    tag_49:\n        /* \"#utility.yul\":1434:1490   */\n    tag_48:\n        /* \"#utility.yul\":1508:1537   */\n      tag_50\n        /* \"#utility.yul\":1530:1536   */\n      dup3\n        /* \"#utility.yul\":1508:1537   */\n      tag_18\n      jump\t// in\n    tag_50:\n        /* \"#utility.yul\":1500:1537   */\n      swap1\n      pop\n        /* \"#utility.yul\":1592:1596   */\n      0x20\n        /* \"#utility.yul\":1586:1590   */\n      dup2\n        /* \"#utility.yul\":1582:1597   */\n      add\n        /* \"#utility.yul\":1574:1597   */\n      swap1\n      pop\n        /* \"#utility.yul\":1296:1604   */\n      swap2\n      swap1\n      pop\n      jump\t// out\n        /* \"#utility.yul\":1610:1756   */\n    tag_23:\n        /* \"#utility.yul\":1707:1713   */\n      dup3\n        /* \"#utility.yul\":1702:1705   */\n      dup2\n        /* \"#utility.yul\":1697:1700   */\n      dup4\n        /* \"#utility.yul\":1684:1714   */\n      calldatacopy\n        /* \"#utility.yul\":1748:1749   */\n      0x00\n        /* \"#utility.yul\":1739:1745   */\n      dup4\n        /* \"#utility.yul\":1734:1737   */\n      dup4\n        /* \"#utility.yul\":1730:1746   */\n      add\n        /* \"#utility.yul\":1723:1750   */\n      mstore\n        /* \"#utility.yul\":1610:1756   */\n      pop\n      pop\n      pop\n      jump\t// out\n        /* \"#utility.yul\":1762:2187   */\n    tag_24:\n        /* \"#utility.yul\":1840:1845   */\n      0x00\n        /* \"#utility.yul\":1865:1931   */\n      tag_53\n        /* \"#utility.yul\":1881:1930   */\n      tag_54\n        /* \"#utility.yul\":1923:1929   */\n      dup5\n        /* \"#utility.yul\":1881:1930   */\n      tag_22\n      jump\t// in\n    tag_54:\n        /* \"#utility.yul\":1865:1931   */\n      tag_21\n      jump\t// in\n    tag_53:\n        /* \"#utility.yul\":1856:1931   */\n      swap1\n      pop\n        /* \"#utility.yul\":1954:1960   */\n      dup3\n        /* \"#utility.yul\":1947:1952   */\n      dup2\n        /* \"#utility.yul\":1940:1961   */\n      mstore\n        /* \"#utility.yul\":1992:1996   */\n      0x20\n        /* \"#utility.yul\":1985:1990   */\n      dup2\n        /* \"#utility.yul\":1981:1997   */\n      add\n        /* \"#utility.yul\":2030:2033   */\n      dup5\n        /* \"#utility.yul\":2021:2027   */\n      dup5\n        /* \"#utility.yul\":2016:2019   */\n      dup5\n        /* \"#utility.yul\":2012:2028   */\n      add\n        /* \"#utility.yul\":2009:2034   */\n      gt\n        /* \"#utility.yul\":2006:2118   */\n      iszero\n      tag_55\n      jumpi\n        /* \"#utility.yul\":2037:2116   */\n      tag_56\n      tag_17\n      jump\t// in\n    tag_56:\n        /* \"#utility.yul\":2006:2118   */\n    tag_55:\n        /* \"#utility.yul\":2127:2181   */\n      tag_57\n        /* \"#utility.yul\":2174:2180   */\n      dup5\n        /* \"#utility.yul\":2169:2172   */\n      dup3\n        /* \"#utility.yul\":2164:2167   */\n      dup6\n        /* \"#utility.yul\":2127:2181   */\n      tag_23\n      jump\t// in\n    tag_57:\n        /* \"#utility.yul\":1846:2187   */\n      pop\n        /* \"#utility.yul\":1762:2187   */\n      swap4\n      swap3\n      pop\n      pop\n      pop\n      jump\t// out\n        /* \"#utility.yul\":2207:2547   */\n    tag_25:\n        /* \"#utility.yul\":2263:2268   */\n      0x00\n        /* \"#utility.yul\":2312:2315   */\n      dup3\n        /* \"#utility.yul\":2305:2309   */\n      0x1f\n        /* \"#utility.yul\":2297:2303   */\n      dup4\n        /* \"#utility.yul\":2293:2310   */\n      add\n        /* \"#utility.yul\":2289:2316   */\n      slt\n        /* \"#utility.yul\":2279:2401   */\n      tag_59\n      jumpi\n        /* \"#utility.yul\":2320:2399   */\n      tag_60\n      tag_16\n      jump\t// in\n    tag_60:\n        /* \"#utility.yul\":2279:2401   */\n    tag_59:\n        /* \"#utility.yul\":2437:2443   */\n      dup2\n        /* \"#utility.yul\":2424:2444   */\n      calldataload\n        /* \"#utility.yul\":2462:2541   */\n      tag_61\n        /* \"#utility.yul\":2537:2540   */\n      dup5\n        /* \"#utility.yul\":2529:2535   */\n      dup3\n        /* \"#utility.yul\":2522:2526   */\n      0x20\n        /* \"#utility.yul\":2514:2520   */\n      dup7\n        /* \"#utility.yul\":2510:2527   */\n      add\n        /* \"#utility.yul\":2462:2541   */\n      tag_24\n      jump\t// in\n    tag_61:\n        /* \"#utility.yul\":2453:2541   */\n      swap2\n      pop\n        /* \"#utility.yul\":2269:2547   */\n      pop\n        /* \"#utility.yul\":2207:2547   */\n      swap3\n      swap2\n      pop\n      pop\n      jump\t// out\n        /* \"#utility.yul\":2553:3062   */\n    tag_6:\n        /* \"#utility.yul\":2622:2628   */\n      0x00\n        /* \"#utility.yul\":2671:2673   */\n      0x20\n        /* \"#utility.yul\":2659:2668   */\n      dup3\n        /* \"#utility.yul\":2650:2657   */\n      dup5\n        /* \"#utility.yul\":2646:2669   */\n      sub\n        /* \"#utility.yul\":2642:2674   */\n      slt\n        /* \"#utility.yul\":2639:2758   */\n      iszero\n      tag_63\n      jumpi\n        /* \"#utility.yul\":2677:2756   */\n      tag_64\n      tag_14\n      jump\t// in\n    tag_64:\n        /* \"#utility.yul\":2639:2758   */\n    tag_63:\n        /* \"#utility.yul\":2825:2826   */\n      0x00\n        /* \"#utility.yul\":2814:2823   */\n      dup3\n        /* \"#utility.yul\":2810:2827   */\n      add\n        /* \"#utility.yul\":2797:2828   */\n      calldataload\n        /* \"#utility.yul\":2855:2873   */\n      0xffffffffffffffff\n        /* \"#utility.yul\":2847:2853   */\n      dup2\n        /* \"#utility.yul\":2844:2874   */\n      gt\n        /* \"#utility.yul\":2841:2958   */\n      iszero\n      tag_65\n      jumpi\n        /* \"#utility.yul\":2877:2956   */\n      tag_66\n      tag_15\n      jump\t// in\n    tag_66:\n        /* \"#utility.yul\":2841:2958   */\n    tag_65:\n        /* \"#utility.yul\":2982:3045   */\n      tag_67\n        /* \"#utility.yul\":3037:3044   */\n      dup5\n        /* \"#utility.yul\":3028:3034   */\n      dup3\n        /* \"#utility.yul\":3017:3026   */\n      dup6\n        /* \"#utility.yul\":3013:3035   */\n      add\n        /* \"#utility.yul\":2982:3045   */\n      tag_25\n      jump\t// in\n    tag_67:\n        /* \"#utility.yul\":2972:3045   */\n      swap2\n      pop\n        /* \"#utility.yul\":2768:3055   */\n      pop\n        /* \"#utility.yul\":2553:3062   */\n      swap3\n      swap2\n      pop\n      pop\n      jump\t// out\n        /* \"#utility.yul\":3068:3158   */\n    tag_26:\n        /* \"#utility.yul\":3102:3109   */\n      0x00\n        /* \"#utility.yul\":3145:3150   */\n      dup2\n        /* \"#utility.yul\":3138:3151   */\n      iszero\n        /* \"#utility.yul\":3131:3152   */\n      iszero\n        /* \"#utility.yul\":3120:3152   */\n      swap1\n      pop\n        /* \"#utility.yul\":3068:3158   */\n      swap2\n      swap1\n      pop\n      jump\t// out\n        /* \"#utility.yul\":3164:3273   */\n    tag_27:\n        /* \"#utility.yul\":3245:3266   */\n      tag_70\n        /* \"#utility.yul\":3260:3265   */\n      dup2\n        /* \"#utility.yul\":3245:3266   */\n      tag_26\n      jump\t// in\n    tag_70:\n        /* \"#utility.yul\":3240:3243   */\n      dup3\n        /* \"#utility.yul\":3233:3267   */\n      mstore\n        /* \"#utility.yul\":3164:3273   */\n      pop\n      pop\n      jump\t// out\n        /* \"#utility.yul\":3279:3489   */\n    tag_9:\n        /* \"#utility.yul\":3366:3370   */\n      0x00\n        /* \"#utility.yul\":3404:3406   */\n      0x20\n        /* \"#utility.yul\":3393:3402   */\n      dup3\n        /* \"#utility.yul\":3389:3407   */\n      add\n        /* \"#utility.yul\":3381:3407   */\n      swap1\n      pop\n        /* \"#utility.yul\":3417:3482   */\n      tag_72\n        /* \"#utility.yul\":3479:3480   */\n      0x00\n        /* \"#utility.yul\":3468:3477   */\n      dup4\n        /* \"#utility.yul\":3464:3481   */\n      add\n        /* \"#utility.yul\":3455:3461   */\n      dup5\n        /* \"#utility.yul\":3417:3482   */\n      tag_27\n      jump\t// in\n    tag_72:\n        /* \"#utility.yul\":3279:3489   */\n      swap3\n      swap2\n      pop\n      pop\n      jump\t// out\n        /* \"#utility.yul\":3495:3594   */\n    tag_28:\n        /* \"#utility.yul\":3547:3553   */\n      0x00\n        /* \"#utility.yul\":3581:3586   */\n      dup2\n        /* \"#utility.yul\":3575:3587   */\n      mload\n        /* \"#utility.yul\":3565:3587   */\n      swap1\n      pop\n        /* \"#utility.yul\":3495:3594   */\n      swap2\n      swap1\n      pop\n      jump\t// out\n        /* \"#utility.yul\":3600:3748   */\n    tag_29:\n        /* \"#utility.yul\":3702:3713   */\n      0x00\n        /* \"#utility.yul\":3739:3742   */\n      dup2\n        /* \"#utility.yul\":3724:3742   */\n      swap1\n      pop\n        /* \"#utility.yul\":3600:3748   */\n      swap3\n      swap2\n      pop\n      pop\n      jump\t// out\n        /* \"#utility.yul\":3754:4000   */\n    tag_30:\n        /* \"#utility.yul\":3835:3836   */\n      0x00\n        /* \"#utility.yul\":3845:3958   */\n    tag_76:\n        /* \"#utility.yul\":3859:3865   */\n      dup4\n        /* \"#utility.yul\":3856:3857   */\n      dup2\n        /* \"#utility.yul\":3853:3866   */\n      lt\n        /* \"#utility.yul\":3845:3958   */\n      iszero\n      tag_78\n      jumpi\n        /* \"#utility.yul\":3944:3945   */\n      dup1\n        /* \"#utility.yul\":3939:3942   */\n      dup3\n        /* \"#utility.yul\":3935:3946   */\n      add\n        /* \"#utility.yul\":3929:3947   */\n      mload\n        /* \"#utility.yul\":3925:3926   */\n      dup2\n        /* \"#utility.yul\":3920:3923   */\n      dup5\n        /* \"#utility.yul\":3916:3927   */\n      add\n        /* \"#utility.yul\":3909:3948   */\n      mstore\n        /* \"#utility.yul\":3881:3883   */\n      0x20\n        /* \"#utility.yul\":3878:3879   */\n      dup2\n        /* \"#utility.yul\":3874:3884   */\n      add\n        /* \"#utility.yul\":3869:3884   */\n      swap1\n      pop\n        /* \"#utility.yul\":3845:3958   */\n      jump(tag_76)\n    tag_78:\n        /* \"#utility.yul\":3992:3993   */\n      0x00\n        /* \"#utility.yul\":3983:3989   */\n      dup5\n        /* \"#utility.yul\":3978:3981   */\n      dup5\n        /* \"#utility.yul\":3974:3990   */\n      add\n        /* \"#utility.yul\":3967:3994   */\n      mstore\n        /* \"#utility.yul\":3816:4000   */\n      pop\n        /* \"#utility.yul\":3754:4000   */\n      pop\n      pop\n      pop\n      jump\t// out\n        /* \"#utility.yul\":4006:4396   */\n    tag_31:\n        /* \"#utility.yul\":4112:4115   */\n      0x00\n        /* \"#utility.yul\":4140:4179   */\n      tag_80\n        /* \"#utility.yul\":4173:4178   */\n      dup3\n        /* \"#utility.yul\":4140:4179   */\n      tag_28\n      jump\t// in\n    tag_80:\n        /* \"#utility.yul\":4195:4284   */\n      tag_81\n        /* \"#utility.yul\":4277:4283   */\n      dup2\n        /* \"#utility.yul\":4272:4275   */\n      dup6\n        /* \"#utility.yul\":4195:4284   */\n      tag_29\n      jump\t// in\n    tag_81:\n        /* \"#utility.yul\":4188:4284   */\n      swap4\n      pop\n        /* \"#utility.yul\":4293:4358   */\n      tag_82\n        /* \"#utility.yul\":4351:4357   */\n      dup2\n        /* \"#utility.yul\":4346:4349   */\n      dup6\n        /* \"#utility.yul\":4339:4343   */\n      0x20\n        /* \"#utility.yul\":4332:4337   */\n      dup7\n        /* \"#utility.yul\":4328:4344   */\n      add\n        /* \"#utility.yul\":4293:4358   */\n      tag_30\n      jump\t// in\n    tag_82:\n        /* \"#utility.yul\":4383:4389   */\n      dup1\n        /* \"#utility.yul\":4378:4381   */\n      dup5\n        /* \"#utility.yul\":4374:4390   */\n      add\n        /* \"#utility.yul\":4367:4390   */\n      swap2\n      pop\n        /* \"#utility.yul\":4116:4396   */\n      pop\n        /* \"#utility.yul\":4006:4396   */\n      swap3\n      swap2\n      pop\n      pop\n      jump\t// out\n        /* \"#utility.yul\":4402:4677   */\n    tag_12:\n        /* \"#utility.yul\":4534:4537   */\n      0x00\n        /* \"#utility.yul\":4556:4651   */\n      tag_84\n        /* \"#utility.yul\":4647:4650   */\n      dup3\n        /* \"#utility.yul\":4638:4644   */\n      dup5\n        /* \"#utility.yul\":4556:4651   */\n      tag_31\n      jump\t// in\n    tag_84:\n        /* \"#utility.yul\":4549:4651   */\n      swap2\n      pop\n        /* \"#utility.yul\":4668:4671   */\n      dup2\n        /* \"#utility.yul\":4661:4671   */\n      swap1\n      pop\n        /* \"#utility.yul\":4402:4677   */\n      swap3\n      swap2\n      pop\n      pop\n      jump\t// out\n\n    auxdata: 0xa2646970667358221220f243b3b2e3d9eced58d2bd6bf393a058dc494be7f3fe24ea2233ae991442576064736f6c63430008180033\n}\n",
				"bytecode": {
					"linkReferences": {},
					"object": "60806040527fb44f08808177cacab2387fe0840de5512051cfd6a406b66077a263edaf43a8b65f1b5f55348015610034575f80fd5b5061030e806100425f395ff3fe608060405234801561000f575f80fd5b5060043610610029575f3560e01c8063b6f921ad1461002d575b5f80fd5b610047600480360381019061004291906101dc565b61005d565b604051610054919061023d565b60405180910390f35b5f80548260405160200161007191906102c2565b60405160208183030381529060405280519060200120149050919050565b5f604051905090565b5f80fd5b5f80fd5b5f80fd5b5f80fd5b5f601f19601f8301169050919050565b7f4e487b71000000000000000000000000000000000000000000000000000000005f52604160045260245ffd5b6100ee826100a8565b810181811067ffffffffffffffff8211171561010d5761010c6100b8565b5b80604052505050565b5f61011f61008f565b905061012b82826100e5565b919050565b5f67ffffffffffffffff82111561014a576101496100b8565b5b610153826100a8565b9050602081019050919050565b828183375f83830152505050565b5f61018061017b84610130565b610116565b90508281526020810184848401111561019c5761019b6100a4565b5b6101a7848285610160565b509392505050565b5f82601f8301126101c3576101c26100a0565b5b81356101d384826020860161016e565b91505092915050565b5f602082840312156101f1576101f0610098565b5b5f82013567ffffffffffffffff81111561020e5761020d61009c565b5b61021a848285016101af565b91505092915050565b5f8115159050919050565b61023781610223565b82525050565b5f6020820190506102505f83018461022e565b92915050565b5f81519050919050565b5f81905092915050565b5f5b8381101561028757808201518184015260208101905061026c565b5f8484015250505050565b5f61029c82610256565b6102a68185610260565b93506102b681856020860161026a565b80840191505092915050565b5f6102cd8284610292565b91508190509291505056fea2646970667358221220f243b3b2e3d9eced58d2bd6bf393a058dc494be7f3fe24ea2233ae991442576064736f6c63430008180033",
					"opcodes": "PUSH1 0x80 PUSH1 0x40 MSTORE PUSH32 0xB44F08808177CACAB2387FE0840DE5512051CFD6A406B66077A263EDAF43A8B6 PUSH0 SHL PUSH0 SSTORE CALLVALUE DUP1 ISZERO PUSH2 0x34 JUMPI PUSH0 DUP1 REVERT JUMPDEST POP PUSH2 0x30E DUP1 PUSH2 0x42 PUSH0 CODECOPY PUSH0 RETURN INVALID PUSH1 0x80 PUSH1 0x40 MSTORE CALLVALUE DUP1 ISZERO PUSH2 0xF JUMPI PUSH0 DUP1 REVERT JUMPDEST POP PUSH1 0x4 CALLDATASIZE LT PUSH2 0x29 JUMPI PUSH0 CALLDATALOAD PUSH1 0xE0 SHR DUP1 PUSH4 0xB6F921AD EQ PUSH2 0x2D JUMPI JUMPDEST PUSH0 DUP1 REVERT JUMPDEST PUSH2 0x47 PUSH1 0x4 DUP1 CALLDATASIZE SUB DUP2 ADD SWAP1 PUSH2 0x42 SWAP2 SWAP1 PUSH2 0x1DC JUMP JUMPDEST PUSH2 0x5D JUMP JUMPDEST PUSH1 0x40 MLOAD PUSH2 0x54 SWAP2 SWAP1 PUSH2 0x23D JUMP JUMPDEST PUSH1 0x40 MLOAD DUP1 SWAP2 SUB SWAP1 RETURN JUMPDEST PUSH0 DUP1 SLOAD DUP3 PUSH1 0x40 MLOAD PUSH1 0x20 ADD PUSH2 0x71 SWAP2 SWAP1 PUSH2 0x2C2 JUMP JUMPDEST PUSH1 0x40 MLOAD PUSH1 0x20 DUP2 DUP4 SUB SUB DUP2 MSTORE SWAP1 PUSH1 0x40 MSTORE DUP1 MLOAD SWAP1 PUSH1 0x20 ADD KECCAK256 EQ SWAP1 POP SWAP2 SWAP1 POP JUMP JUMPDEST PUSH0 PUSH1 0x40 MLOAD SWAP1 POP SWAP1 JUMP JUMPDEST PUSH0 DUP1 REVERT JUMPDEST PUSH0 DUP1 REVERT JUMPDEST PUSH0 DUP1 REVERT JUMPDEST PUSH0 DUP1 REVERT JUMPDEST PUSH0 PUSH1 0x1F NOT PUSH1 0x1F DUP4 ADD AND SWAP1 POP SWAP2 SWAP1 POP JUMP JUMPDEST PUSH32 0x4E487B7100000000000000000000000000000000000000000000000000000000 PUSH0 MSTORE PUSH1 0x41 PUSH1 0x4 MSTORE PUSH1 0x24 PUSH0 REVERT JUMPDEST PUSH2 0xEE DUP3 PUSH2 0xA8 JUMP JUMPDEST DUP2 ADD DUP2 DUP2 LT PUSH8 0xFFFFFFFFFFFFFFFF DUP3 GT OR ISZERO PUSH2 0x10D JUMPI PUSH2 0x10C PUSH2 0xB8 JUMP JUMPDEST JUMPDEST DUP1 PUSH1 0x40 MSTORE POP POP POP JUMP JUMPDEST PUSH0 PUSH2 0x11F PUSH2 0x8F JUMP JUMPDEST SWAP1 POP PUSH2 0x12B DUP3 DUP3 PUSH2 0xE5 JUMP JUMPDEST SWAP2 SWAP1 POP JUMP JUMPDEST PUSH0 PUSH8 0xFFFFFFFFFFFFFFFF DUP3 GT ISZERO PUSH2 0x14A JUMPI PUSH2 0x149 PUSH2 0xB8 JUMP JUMPDEST JUMPDEST PUSH2 0x153 DUP3 PUSH2 0xA8 JUMP JUMPDEST SWAP1 POP PUSH1 0x20 DUP2 ADD SWAP1 POP SWAP2 SWAP1 POP JUMP JUMPDEST DUP3 DUP2 DUP4 CALLDATACOPY PUSH0 DUP4 DUP4 ADD MSTORE POP POP POP JUMP JUMPDEST PUSH0 PUSH2 0x180 PUSH2 0x17B DUP5 PUSH2 0x130 JUMP JUMPDEST PUSH2 0x116 JUMP JUMPDEST SWAP1 POP DUP3 DUP2 MSTORE PUSH1 0x20 DUP2 ADD DUP5 DUP5 DUP5 ADD GT ISZERO PUSH2 0x19C JUMPI PUSH2 0x19B PUSH2 0xA4 JUMP JUMPDEST JUMPDEST PUSH2 0x1A7 DUP5 DUP3 DUP6 PUSH2 0x160 JUMP JUMPDEST POP SWAP4 SWAP3 POP POP POP JUMP JUMPDEST PUSH0 DUP3 PUSH1 0x1F DUP4 ADD SLT PUSH2 0x1C3 JUMPI PUSH2 0x1C2 PUSH2 0xA0 JUMP JUMPDEST JUMPDEST DUP2 CALLDATALOAD PUSH2 0x1D3 DUP5 DUP3 PUSH1 0x20 DUP7 ADD PUSH2 0x16E JUMP JUMPDEST SWAP2 POP POP SWAP3 SWAP2 POP POP JUMP JUMPDEST PUSH0 PUSH1 0x20 DUP3 DUP5 SUB SLT ISZERO PUSH2 0x1F1 JUMPI PUSH2 0x1F0 PUSH2 0x98 JUMP JUMPDEST JUMPDEST PUSH0 DUP3 ADD CALLDATALOAD PUSH8 0xFFFFFFFFFFFFFFFF DUP2 GT ISZERO PUSH2 0x20E JUMPI PUSH2 0x20D PUSH2 0x9C JUMP JUMPDEST JUMPDEST PUSH2 0x21A DUP5 DUP3 DUP6 ADD PUSH2 0x1AF JUMP JUMPDEST SWAP2 POP POP SWAP3 SWAP2 POP POP JUMP JUMPDEST PUSH0 DUP2 ISZERO ISZERO SWAP1 POP SWAP2 SWAP1 POP JUMP JUMPDEST PUSH2 0x237 DUP2 PUSH2 0x223 JUMP JUMPDEST DUP3 MSTORE POP POP JUMP JUMPDEST PUSH0 PUSH1 0x20 DUP3 ADD SWAP1 POP PUSH2 0x250 PUSH0 DUP4 ADD DUP5 PUSH2 0x22E JUMP JUMPDEST SWAP3 SWAP2 POP POP JUMP JUMPDEST PUSH0 DUP2 MLOAD SWAP1 POP SWAP2 SWAP1 POP JUMP JUMPDEST PUSH0 DUP2 SWAP1 POP SWAP3 SWAP2 POP POP JUMP JUMPDEST PUSH0 JUMPDEST DUP4 DUP2 LT ISZERO PUSH2 0x287 JUMPI DUP1 DUP3 ADD MLOAD DUP2 DUP5 ADD MSTORE PUSH1 0x20 DUP2 ADD SWAP1 POP PUSH2 0x26C JUMP JUMPDEST PUSH0 DUP5 DUP5 ADD MSTORE POP POP POP POP JUMP JUMPDEST PUSH0 PUSH2 0x29C DUP3 PUSH2 0x256 JUMP JUMPDEST PUSH2 0x2A6 DUP2 DUP6 PUSH2 0x260 JUMP JUMPDEST SWAP4 POP PUSH2 0x2B6 DUP2 DUP6 PUSH1 0x20 DUP7 ADD PUSH2 0x26A JUMP JUMPDEST DUP1 DUP5 ADD SWAP2 POP POP SWAP3 SWAP2 POP POP JUMP JUMPDEST PUSH0 PUSH2 0x2CD DUP3 DUP5 PUSH2 0x292 JUMP JUMPDEST SWAP2 POP DUP2 SWAP1 POP SWAP3 SWAP2 POP POP JUMP INVALID LOG2 PUSH5 0x6970667358 0x22 SLT KECCAK256 CALLCODE NUMBER 0xB3 0xB2 0xE3 0xD9 0xEC 0xED PC 0xD2 0xBD PUSH12 0xF393A058DC494BE7F3FE24EA 0x22 CALLER 0xAE SWAP10 EQ TIMESTAMP JUMPI PUSH1 0x64 PUSH20 0x6F6C634300081800330000000000000000000000 "
				},
				"gasEstimates": {
					"creation": {
						"codeDepositCost": "156400",
						"executionCost": "22310",
						"totalCost": "178710"
					},
					"external": {
						"check(string)": "infinite"
					}
				},
				"methodIdentifiers": {
					"check(string)": "b6f921ad"
				}
			},
			"storageLayout": {
				"storage": [
					{
						"astId": 62,
						"contract": "tests/30_day project/day1/pr2.sol:Magicword",
						"label": "ans",
						"offset": 0,
						"slot": "0",
						"type": "t_bytes32"
					}
				],
				"types": {
					"t_bytes32": {
						"encoding": "inplace",
						"label": "bytes32",
						"numberOfBytes": "32"
					}
				}
			},
			"userdoc": {
				"kind": "user",
				"methods": {},
				"version": 1
			}
		}
	}
}