{
	"tests/30_day project/day1/pr2.sol": {
		"Hassing": {
			"abi": [
				{
					"inputs": [
						{
							"internalType": "string",
							"name": "_text",
							"type": "string"
						},
						{
							"internalType": "uint256",
							"name": "_x",
							"type": "uint256"
						},
						{
							"internalType": "address",
							"name": "_addr",
							"type": "address"
						}
					],
					"name": "Hasedata",
					"outputs": [
						{
							"internalType": "bytes32",
							"name": "",
							"type": "bytes32"
						}
					],
					"stateMutability": "pure",
					"type": "function"
				},
				{
					"inputs": [
						{
							"internalType": "string",
							"name": "data",
							"type": "string"
						}
					],
					"name": "Hashgen",
					"outputs": [
						{
							"internalType": "bytes32",
							"name": "",
							"type": "bytes32"
						}
					],
					"stateMutability": "pure",
					"type": "function"
				},
				{
					"inputs": [
						{
							"internalType": "string",
							"name": "data1",
							"type": "string"
						},
						{
							"internalType": "string",
							"name": "data2",
							"type": "string"
						}
					],
					"name": "collision",
					"outputs": [
						{
							"internalType": "bytes32",
							"name": "",
							"type": "bytes32"
						}
					],
					"stateMutability": "pure",
					"type": "function"
				}
			],
			"devdoc": {
				"kind": "dev",
				"methods": {},
				"version": 1
			},
			"evm": {
				"assembly": "    /* \"tests/30_day project/day1/pr2.sol\":57:538  contract Hassing{... */\n  mstore(0x40, 0x80)\n  callvalue\n  dup1\n  iszero\n  tag_1\n  jumpi\n  0x00\n  dup1\n  revert\ntag_1:\n  pop\n  dataSize(sub_0)\n  dup1\n  dataOffset(sub_0)\n  0x00\n  codecopy\n  0x00\n  return\nstop\n\nsub_0: assembly {\n        /* \"tests/30_day project/day1/pr2.sol\":57:538  contract Hassing{... */\n      mstore(0x40, 0x80)\n      callvalue\n      dup1\n      iszero\n      tag_1\n      jumpi\n      0x00\n      dup1\n      revert\n    tag_1:\n      pop\n      jumpi(tag_2, lt(calldatasize, 0x04))\n      shr(0xe0, calldataload(0x00))\n      dup1\n      0x4a0a7211\n      eq\n      tag_3\n      jumpi\n      dup1\n      0x7b7fb982\n      eq\n      tag_4\n      jumpi\n      dup1\n      0x8b461b80\n      eq\n      tag_5\n      jumpi\n    tag_2:\n      0x00\n      dup1\n      revert\n        /* \"tests/30_day project/day1/pr2.sol\":211:374  function Hasedata(string memory _text, uint _x, address _addr)public pure returns(bytes32){... */\n    tag_3:\n      tag_6\n      0x04\n      dup1\n      calldatasize\n      sub\n      dup2\n      add\n      swap1\n      tag_7\n      swap2\n      swap1\n      tag_8\n      jump\t// in\n    tag_7:\n      tag_9\n      jump\t// in\n    tag_6:\n      mload(0x40)\n      tag_10\n      swap2\n      swap1\n      tag_11\n      jump\t// in\n    tag_10:\n      mload(0x40)\n      dup1\n      swap2\n      sub\n      swap1\n      return\n        /* \"tests/30_day project/day1/pr2.sol\":380:535  function collision(string memory data1, string memory data2)public pure returns(bytes32){... */\n    tag_4:\n      tag_12\n      0x04\n      dup1\n      calldatasize\n      sub\n      dup2\n      add\n      swap1\n      tag_13\n      swap2\n      swap1\n      tag_14\n      jump\t// in\n    tag_13:\n      tag_15\n      jump\t// in\n    tag_12:\n      mload(0x40)\n      tag_16\n      swap2\n      swap1\n      tag_11\n      jump\t// in\n    tag_16:\n      mload(0x40)\n      dup1\n      swap2\n      sub\n      swap1\n      return\n        /* \"tests/30_day project/day1/pr2.sol\":80:205  function Hashgen(string memory data)public pure returns(bytes32){... */\n    tag_5:\n      tag_17\n      0x04\n      dup1\n      calldatasize\n      sub\n      dup2\n      add\n      swap1\n      tag_18\n      swap2\n      swap1\n      tag_19\n      jump\t// in\n    tag_18:\n      tag_20\n      jump\t// in\n    tag_17:\n      mload(0x40)\n      tag_21\n      swap2\n      swap1\n      tag_11\n      jump\t// in\n    tag_21:\n      mload(0x40)\n      dup1\n      swap2\n      sub\n      swap1\n      return\n        /* \"tests/30_day project/day1/pr2.sol\":211:374  function Hasedata(string memory _text, uint _x, address _addr)public pure returns(bytes32){... */\n    tag_9:\n        /* \"tests/30_day project/day1/pr2.sol\":293:300  bytes32 */\n      0x00\n        /* \"tests/30_day project/day1/pr2.sol\":347:352  _text */\n      dup4\n        /* \"tests/30_day project/day1/pr2.sol\":354:356  _x */\n      dup4\n        /* \"tests/30_day project/day1/pr2.sol\":358:363  _addr */\n      dup4\n        /* \"tests/30_day project/day1/pr2.sol\":330:364  abi.encodePacked(_text, _x, _addr) */\n      add(0x20, mload(0x40))\n      tag_23\n      swap4\n      swap3\n      swap2\n      swap1\n      tag_24\n      jump\t// in\n    tag_23:\n      mload(0x40)\n      0x20\n      dup2\n      dup4\n      sub\n      sub\n      dup2\n      mstore\n      swap1\n      0x40\n      mstore\n        /* \"tests/30_day project/day1/pr2.sol\":320:365  keccak256(abi.encodePacked(_text, _x, _addr)) */\n      dup1\n      mload\n      swap1\n      0x20\n      add\n      keccak256\n        /* \"tests/30_day project/day1/pr2.sol\":312:366  return (keccak256(abi.encodePacked(_text, _x, _addr))) */\n      swap1\n      pop\n        /* \"tests/30_day project/day1/pr2.sol\":211:374  function Hasedata(string memory _text, uint _x, address _addr)public pure returns(bytes32){... */\n      swap4\n      swap3\n      pop\n      pop\n      pop\n      jump\t// out\n        /* \"tests/30_day project/day1/pr2.sol\":380:535  function collision(string memory data1, string memory data2)public pure returns(bytes32){... */\n    tag_15:\n        /* \"tests/30_day project/day1/pr2.sol\":460:467  bytes32 */\n      0x00\n        /* \"tests/30_day project/day1/pr2.sol\":513:518  data1 */\n      dup3\n        /* \"tests/30_day project/day1/pr2.sol\":519:524  data2 */\n      dup3\n        /* \"tests/30_day project/day1/pr2.sol\":496:525  abi.encodePacked(data1,data2) */\n      add(0x20, mload(0x40))\n      tag_26\n      swap3\n      swap2\n      swap1\n      tag_27\n      jump\t// in\n    tag_26:\n      mload(0x40)\n      0x20\n      dup2\n      dup4\n      sub\n      sub\n      dup2\n      mstore\n      swap1\n      0x40\n      mstore\n        /* \"tests/30_day project/day1/pr2.sol\":486:526  keccak256(abi.encodePacked(data1,data2)) */\n      dup1\n      mload\n      swap1\n      0x20\n      add\n      keccak256\n        /* \"tests/30_day project/day1/pr2.sol\":479:527  return(keccak256(abi.encodePacked(data1,data2))) */\n      swap1\n      pop\n        /* \"tests/30_day project/day1/pr2.sol\":380:535  function collision(string memory data1, string memory data2)public pure returns(bytes32){... */\n      swap3\n      swap2\n      pop\n      pop\n      jump\t// out\n        /* \"tests/30_day project/day1/pr2.sol\":80:205  function Hashgen(string memory data)public pure returns(bytes32){... */\n    tag_20:\n        /* \"tests/30_day project/day1/pr2.sol\":136:143  bytes32 */\n      0x00\n        /* \"tests/30_day project/day1/pr2.sol\":190:194  data */\n      dup2\n        /* \"tests/30_day project/day1/pr2.sol\":173:195  abi.encodePacked(data) */\n      add(0x20, mload(0x40))\n      tag_29\n      swap2\n      swap1\n      tag_30\n      jump\t// in\n    tag_29:\n      mload(0x40)\n      0x20\n      dup2\n      dup4\n      sub\n      sub\n      dup2\n      mstore\n      swap1\n      0x40\n      mstore\n        /* \"tests/30_day project/day1/pr2.sol\":163:196  keccak256(abi.encodePacked(data)) */\n      dup1\n      mload\n      swap1\n      0x20\n      add\n      keccak256\n        /* \"tests/30_day project/day1/pr2.sol\":155:197  return (keccak256(abi.encodePacked(data))) */\n      swap1\n      pop\n        /* \"tests/30_day project/day1/pr2.sol\":80:205  function Hashgen(string memory data)public pure returns(bytes32){... */\n      swap2\n      swap1\n      pop\n      jump\t// out\n        /* \"#utility.yul\":7:82   */\n    tag_31:\n        /* \"#utility.yul\":40:46   */\n      0x00\n        /* \"#utility.yul\":73:75   */\n      0x40\n        /* \"#utility.yul\":67:76   */\n      mload\n        /* \"#utility.yul\":57:76   */\n      swap1\n      pop\n        /* \"#utility.yul\":7:82   */\n      swap1\n      jump\t// out\n        /* \"#utility.yul\":88:205   */\n    tag_32:\n        /* \"#utility.yul\":197:198   */\n      0x00\n        /* \"#utility.yul\":194:195   */\n      dup1\n        /* \"#utility.yul\":187:199   */\n      revert\n        /* \"#utility.yul\":211:328   */\n    tag_33:\n        /* \"#utility.yul\":320:321   */\n      0x00\n        /* \"#utility.yul\":317:318   */\n      dup1\n        /* \"#utility.yul\":310:322   */\n      revert\n        /* \"#utility.yul\":334:451   */\n    tag_34:\n        /* \"#utility.yul\":443:444   */\n      0x00\n        /* \"#utility.yul\":440:441   */\n      dup1\n        /* \"#utility.yul\":433:445   */\n      revert\n        /* \"#utility.yul\":457:574   */\n    tag_35:\n        /* \"#utility.yul\":566:567   */\n      0x00\n        /* \"#utility.yul\":563:564   */\n      dup1\n        /* \"#utility.yul\":556:568   */\n      revert\n        /* \"#utility.yul\":580:682   */\n    tag_36:\n        /* \"#utility.yul\":621:627   */\n      0x00\n        /* \"#utility.yul\":672:674   */\n      0x1f\n        /* \"#utility.yul\":668:675   */\n      not\n        /* \"#utility.yul\":663:665   */\n      0x1f\n        /* \"#utility.yul\":656:661   */\n      dup4\n        /* \"#utility.yul\":652:666   */\n      add\n        /* \"#utility.yul\":648:676   */\n      and\n        /* \"#utility.yul\":638:676   */\n      swap1\n      pop\n        /* \"#utility.yul\":580:682   */\n      swap2\n      swap1\n      pop\n      jump\t// out\n        /* \"#utility.yul\":688:868   */\n    tag_37:\n        /* \"#utility.yul\":736:813   */\n      0x4e487b7100000000000000000000000000000000000000000000000000000000\n        /* \"#utility.yul\":733:734   */\n      0x00\n        /* \"#utility.yul\":726:814   */\n      mstore\n        /* \"#utility.yul\":833:837   */\n      0x41\n        /* \"#utility.yul\":830:831   */\n      0x04\n        /* \"#utility.yul\":823:838   */\n      mstore\n        /* \"#utility.yul\":857:861   */\n      0x24\n        /* \"#utility.yul\":854:855   */\n      0x00\n        /* \"#utility.yul\":847:862   */\n      revert\n        /* \"#utility.yul\":874:1155   */\n    tag_38:\n        /* \"#utility.yul\":957:984   */\n      tag_72\n        /* \"#utility.yul\":979:983   */\n      dup3\n        /* \"#utility.yul\":957:984   */\n      tag_36\n      jump\t// in\n    tag_72:\n        /* \"#utility.yul\":949:955   */\n      dup2\n        /* \"#utility.yul\":945:985   */\n      add\n        /* \"#utility.yul\":1087:1093   */\n      dup2\n        /* \"#utility.yul\":1075:1085   */\n      dup2\n        /* \"#utility.yul\":1072:1094   */\n      lt\n        /* \"#utility.yul\":1051:1069   */\n      0xffffffffffffffff\n        /* \"#utility.yul\":1039:1049   */\n      dup3\n        /* \"#utility.yul\":1036:1070   */\n      gt\n        /* \"#utility.yul\":1033:1095   */\n      or\n        /* \"#utility.yul\":1030:1118   */\n      iszero\n      tag_73\n      jumpi\n        /* \"#utility.yul\":1098:1116   */\n      tag_74\n      tag_37\n      jump\t// in\n    tag_74:\n        /* \"#utility.yul\":1030:1118   */\n    tag_73:\n        /* \"#utility.yul\":1138:1148   */\n      dup1\n        /* \"#utility.yul\":1134:1136   */\n      0x40\n        /* \"#utility.yul\":1127:1149   */\n      mstore\n        /* \"#utility.yul\":917:1155   */\n      pop\n        /* \"#utility.yul\":874:1155   */\n      pop\n      pop\n      jump\t// out\n        /* \"#utility.yul\":1161:1290   */\n    tag_39:\n        /* \"#utility.yul\":1195:1201   */\n      0x00\n        /* \"#utility.yul\":1222:1242   */\n      tag_76\n      tag_31\n      jump\t// in\n    tag_76:\n        /* \"#utility.yul\":1212:1242   */\n      swap1\n      pop\n        /* \"#utility.yul\":1251:1284   */\n      tag_77\n        /* \"#utility.yul\":1279:1283   */\n      dup3\n        /* \"#utility.yul\":1271:1277   */\n      dup3\n        /* \"#utility.yul\":1251:1284   */\n      tag_38\n      jump\t// in\n    tag_77:\n        /* \"#utility.yul\":1161:1290   */\n      swap2\n      swap1\n      pop\n      jump\t// out\n        /* \"#utility.yul\":1296:1604   */\n    tag_40:\n        /* \"#utility.yul\":1358:1362   */\n      0x00\n        /* \"#utility.yul\":1448:1466   */\n      0xffffffffffffffff\n        /* \"#utility.yul\":1440:1446   */\n      dup3\n        /* \"#utility.yul\":1437:1467   */\n      gt\n        /* \"#utility.yul\":1434:1490   */\n      iszero\n      tag_79\n      jumpi\n        /* \"#utility.yul\":1470:1488   */\n      tag_80\n      tag_37\n      jump\t// in\n    tag_80:\n        /* \"#utility.yul\":1434:1490   */\n    tag_79:\n        /* \"#utility.yul\":1508:1537   */\n      tag_81\n        /* \"#utility.yul\":1530:1536   */\n      dup3\n        /* \"#utility.yul\":1508:1537   */\n      tag_36\n      jump\t// in\n    tag_81:\n        /* \"#utility.yul\":1500:1537   */\n      swap1\n      pop\n        /* \"#utility.yul\":1592:1596   */\n      0x20\n        /* \"#utility.yul\":1586:1590   */\n      dup2\n        /* \"#utility.yul\":1582:1597   */\n      add\n        /* \"#utility.yul\":1574:1597   */\n      swap1\n      pop\n        /* \"#utility.yul\":1296:1604   */\n      swap2\n      swap1\n      pop\n      jump\t// out\n        /* \"#utility.yul\":1610:1756   */\n    tag_41:\n        /* \"#utility.yul\":1707:1713   */\n      dup3\n        /* \"#utility.yul\":1702:1705   */\n      dup2\n        /* \"#utility.yul\":1697:1700   */\n      dup4\n        /* \"#utility.yul\":1684:1714   */\n      calldatacopy\n        /* \"#utility.yul\":1748:1749   */\n      0x00\n        /* \"#utility.yul\":1739:1745   */\n      dup4\n        /* \"#utility.yul\":1734:1737   */\n      dup4\n        /* \"#utility.yul\":1730:1746   */\n      add\n        /* \"#utility.yul\":1723:1750   */\n      mstore\n        /* \"#utility.yul\":1610:1756   */\n      pop\n      pop\n      pop\n      jump\t// out\n        /* \"#utility.yul\":1762:2187   */\n    tag_42:\n        /* \"#utility.yul\":1840:1845   */\n      0x00\n        /* \"#utility.yul\":1865:1931   */\n      tag_84\n        /* \"#utility.yul\":1881:1930   */\n      tag_85\n        /* \"#utility.yul\":1923:1929   */\n      dup5\n        /* \"#utility.yul\":1881:1930   */\n      tag_40\n      jump\t// in\n    tag_85:\n        /* \"#utility.yul\":1865:1931   */\n      tag_39\n      jump\t// in\n    tag_84:\n        /* \"#utility.yul\":1856:1931   */\n      swap1\n      pop\n        /* \"#utility.yul\":1954:1960   */\n      dup3\n        /* \"#utility.yul\":1947:1952   */\n      dup2\n        /* \"#utility.yul\":1940:1961   */\n      mstore\n        /* \"#utility.yul\":1992:1996   */\n      0x20\n        /* \"#utility.yul\":1985:1990   */\n      dup2\n        /* \"#utility.yul\":1981:1997   */\n      add\n        /* \"#utility.yul\":2030:2033   */\n      dup5\n        /* \"#utility.yul\":2021:2027   */\n      dup5\n        /* \"#utility.yul\":2016:2019   */\n      dup5\n        /* \"#utility.yul\":2012:2028   */\n      add\n        /* \"#utility.yul\":2009:2034   */\n      gt\n        /* \"#utility.yul\":2006:2118   */\n      iszero\n      tag_86\n      jumpi\n        /* \"#utility.yul\":2037:2116   */\n      tag_87\n      tag_35\n      jump\t// in\n    tag_87:\n        /* \"#utility.yul\":2006:2118   */\n    tag_86:\n        /* \"#utility.yul\":2127:2181   */\n      tag_88\n        /* \"#utility.yul\":2174:2180   */\n      dup5\n        /* \"#utility.yul\":2169:2172   */\n      dup3\n        /* \"#utility.yul\":2164:2167   */\n      dup6\n        /* \"#utility.yul\":2127:2181   */\n      tag_41\n      jump\t// in\n    tag_88:\n        /* \"#utility.yul\":1846:2187   */\n      pop\n        /* \"#utility.yul\":1762:2187   */\n      swap4\n      swap3\n      pop\n      pop\n      pop\n      jump\t// out\n        /* \"#utility.yul\":2207:2547   */\n    tag_43:\n        /* \"#utility.yul\":2263:2268   */\n      0x00\n        /* \"#utility.yul\":2312:2315   */\n      dup3\n        /* \"#utility.yul\":2305:2309   */\n      0x1f\n        /* \"#utility.yul\":2297:2303   */\n      dup4\n        /* \"#utility.yul\":2293:2310   */\n      add\n        /* \"#utility.yul\":2289:2316   */\n      slt\n        /* \"#utility.yul\":2279:2401   */\n      tag_90\n      jumpi\n        /* \"#utility.yul\":2320:2399   */\n      tag_91\n      tag_34\n      jump\t// in\n    tag_91:\n        /* \"#utility.yul\":2279:2401   */\n    tag_90:\n        /* \"#utility.yul\":2437:2443   */\n      dup2\n        /* \"#utility.yul\":2424:2444   */\n      calldataload\n        /* \"#utility.yul\":2462:2541   */\n      tag_92\n        /* \"#utility.yul\":2537:2540   */\n      dup5\n        /* \"#utility.yul\":2529:2535   */\n      dup3\n        /* \"#utility.yul\":2522:2526   */\n      0x20\n        /* \"#utility.yul\":2514:2520   */\n      dup7\n        /* \"#utility.yul\":2510:2527   */\n      add\n        /* \"#utility.yul\":2462:2541   */\n      tag_42\n      jump\t// in\n    tag_92:\n        /* \"#utility.yul\":2453:2541   */\n      swap2\n      pop\n        /* \"#utility.yul\":2269:2547   */\n      pop\n        /* \"#utility.yul\":2207:2547   */\n      swap3\n      swap2\n      pop\n      pop\n      jump\t// out\n        /* \"#utility.yul\":2553:2630   */\n    tag_44:\n        /* \"#utility.yul\":2590:2597   */\n      0x00\n        /* \"#utility.yul\":2619:2624   */\n      dup2\n        /* \"#utility.yul\":2608:2624   */\n      swap1\n      pop\n        /* \"#utility.yul\":2553:2630   */\n      swap2\n      swap1\n      pop\n      jump\t// out\n        /* \"#utility.yul\":2636:2758   */\n    tag_45:\n        /* \"#utility.yul\":2709:2733   */\n      tag_95\n        /* \"#utility.yul\":2727:2732   */\n      dup2\n        /* \"#utility.yul\":2709:2733   */\n      tag_44\n      jump\t// in\n    tag_95:\n        /* \"#utility.yul\":2702:2707   */\n      dup2\n        /* \"#utility.yul\":2699:2734   */\n      eq\n        /* \"#utility.yul\":2689:2752   */\n      tag_96\n      jumpi\n        /* \"#utility.yul\":2748:2749   */\n      0x00\n        /* \"#utility.yul\":2745:2746   */\n      dup1\n        /* \"#utility.yul\":2738:2750   */\n      revert\n        /* \"#utility.yul\":2689:2752   */\n    tag_96:\n        /* \"#utility.yul\":2636:2758   */\n      pop\n      jump\t// out\n        /* \"#utility.yul\":2764:2903   */\n    tag_46:\n        /* \"#utility.yul\":2810:2815   */\n      0x00\n        /* \"#utility.yul\":2848:2854   */\n      dup2\n        /* \"#utility.yul\":2835:2855   */\n      calldataload\n        /* \"#utility.yul\":2826:2855   */\n      swap1\n      pop\n        /* \"#utility.yul\":2864:2897   */\n      tag_98\n        /* \"#utility.yul\":2891:2896   */\n      dup2\n        /* \"#utility.yul\":2864:2897   */\n      tag_45\n      jump\t// in\n    tag_98:\n        /* \"#utility.yul\":2764:2903   */\n      swap3\n      swap2\n      pop\n      pop\n      jump\t// out\n        /* \"#utility.yul\":2909:3035   */\n    tag_47:\n        /* \"#utility.yul\":2946:2953   */\n      0x00\n        /* \"#utility.yul\":2986:3028   */\n      0xffffffffffffffffffffffffffffffffffffffff\n        /* \"#utility.yul\":2979:2984   */\n      dup3\n        /* \"#utility.yul\":2975:3029   */\n      and\n        /* \"#utility.yul\":2964:3029   */\n      swap1\n      pop\n        /* \"#utility.yul\":2909:3035   */\n      swap2\n      swap1\n      pop\n      jump\t// out\n        /* \"#utility.yul\":3041:3137   */\n    tag_48:\n        /* \"#utility.yul\":3078:3085   */\n      0x00\n        /* \"#utility.yul\":3107:3131   */\n      tag_101\n        /* \"#utility.yul\":3125:3130   */\n      dup3\n        /* \"#utility.yul\":3107:3131   */\n      tag_47\n      jump\t// in\n    tag_101:\n        /* \"#utility.yul\":3096:3131   */\n      swap1\n      pop\n        /* \"#utility.yul\":3041:3137   */\n      swap2\n      swap1\n      pop\n      jump\t// out\n        /* \"#utility.yul\":3143:3265   */\n    tag_49:\n        /* \"#utility.yul\":3216:3240   */\n      tag_103\n        /* \"#utility.yul\":3234:3239   */\n      dup2\n        /* \"#utility.yul\":3216:3240   */\n      tag_48\n      jump\t// in\n    tag_103:\n        /* \"#utility.yul\":3209:3214   */\n      dup2\n        /* \"#utility.yul\":3206:3241   */\n      eq\n        /* \"#utility.yul\":3196:3259   */\n      tag_104\n      jumpi\n        /* \"#utility.yul\":3255:3256   */\n      0x00\n        /* \"#utility.yul\":3252:3253   */\n      dup1\n        /* \"#utility.yul\":3245:3257   */\n      revert\n        /* \"#utility.yul\":3196:3259   */\n    tag_104:\n        /* \"#utility.yul\":3143:3265   */\n      pop\n      jump\t// out\n        /* \"#utility.yul\":3271:3410   */\n    tag_50:\n        /* \"#utility.yul\":3317:3322   */\n      0x00\n        /* \"#utility.yul\":3355:3361   */\n      dup2\n        /* \"#utility.yul\":3342:3362   */\n      calldataload\n        /* \"#utility.yul\":3333:3362   */\n      swap1\n      pop\n        /* \"#utility.yul\":3371:3404   */\n      tag_106\n        /* \"#utility.yul\":3398:3403   */\n      dup2\n        /* \"#utility.yul\":3371:3404   */\n      tag_49\n      jump\t// in\n    tag_106:\n        /* \"#utility.yul\":3271:3410   */\n      swap3\n      swap2\n      pop\n      pop\n      jump\t// out\n        /* \"#utility.yul\":3416:4215   */\n    tag_8:\n        /* \"#utility.yul\":3503:3509   */\n      0x00\n        /* \"#utility.yul\":3511:3517   */\n      dup1\n        /* \"#utility.yul\":3519:3525   */\n      0x00\n        /* \"#utility.yul\":3568:3570   */\n      0x60\n        /* \"#utility.yul\":3556:3565   */\n      dup5\n        /* \"#utility.yul\":3547:3554   */\n      dup7\n        /* \"#utility.yul\":3543:3566   */\n      sub\n        /* \"#utility.yul\":3539:3571   */\n      slt\n        /* \"#utility.yul\":3536:3655   */\n      iszero\n      tag_108\n      jumpi\n        /* \"#utility.yul\":3574:3653   */\n      tag_109\n      tag_32\n      jump\t// in\n    tag_109:\n        /* \"#utility.yul\":3536:3655   */\n    tag_108:\n        /* \"#utility.yul\":3722:3723   */\n      0x00\n        /* \"#utility.yul\":3711:3720   */\n      dup5\n        /* \"#utility.yul\":3707:3724   */\n      add\n        /* \"#utility.yul\":3694:3725   */\n      calldataload\n        /* \"#utility.yul\":3752:3770   */\n      0xffffffffffffffff\n        /* \"#utility.yul\":3744:3750   */\n      dup2\n        /* \"#utility.yul\":3741:3771   */\n      gt\n        /* \"#utility.yul\":3738:3855   */\n      iszero\n      tag_110\n      jumpi\n        /* \"#utility.yul\":3774:3853   */\n      tag_111\n      tag_33\n      jump\t// in\n    tag_111:\n        /* \"#utility.yul\":3738:3855   */\n    tag_110:\n        /* \"#utility.yul\":3879:3942   */\n      tag_112\n        /* \"#utility.yul\":3934:3941   */\n      dup7\n        /* \"#utility.yul\":3925:3931   */\n      dup3\n        /* \"#utility.yul\":3914:3923   */\n      dup8\n        /* \"#utility.yul\":3910:3932   */\n      add\n        /* \"#utility.yul\":3879:3942   */\n      tag_43\n      jump\t// in\n    tag_112:\n        /* \"#utility.yul\":3869:3942   */\n      swap4\n      pop\n        /* \"#utility.yul\":3665:3952   */\n      pop\n        /* \"#utility.yul\":3991:3993   */\n      0x20\n        /* \"#utility.yul\":4017:4070   */\n      tag_113\n        /* \"#utility.yul\":4062:4069   */\n      dup7\n        /* \"#utility.yul\":4053:4059   */\n      dup3\n        /* \"#utility.yul\":4042:4051   */\n      dup8\n        /* \"#utility.yul\":4038:4060   */\n      add\n        /* \"#utility.yul\":4017:4070   */\n      tag_46\n      jump\t// in\n    tag_113:\n        /* \"#utility.yul\":4007:4070   */\n      swap3\n      pop\n        /* \"#utility.yul\":3962:4080   */\n      pop\n        /* \"#utility.yul\":4119:4121   */\n      0x40\n        /* \"#utility.yul\":4145:4198   */\n      tag_114\n        /* \"#utility.yul\":4190:4197   */\n      dup7\n        /* \"#utility.yul\":4181:4187   */\n      dup3\n        /* \"#utility.yul\":4170:4179   */\n      dup8\n        /* \"#utility.yul\":4166:4188   */\n      add\n        /* \"#utility.yul\":4145:4198   */\n      tag_50\n      jump\t// in\n    tag_114:\n        /* \"#utility.yul\":4135:4198   */\n      swap2\n      pop\n        /* \"#utility.yul\":4090:4208   */\n      pop\n        /* \"#utility.yul\":3416:4215   */\n      swap3\n      pop\n      swap3\n      pop\n      swap3\n      jump\t// out\n        /* \"#utility.yul\":4221:4298   */\n    tag_51:\n        /* \"#utility.yul\":4258:4265   */\n      0x00\n        /* \"#utility.yul\":4287:4292   */\n      dup2\n        /* \"#utility.yul\":4276:4292   */\n      swap1\n      pop\n        /* \"#utility.yul\":4221:4298   */\n      swap2\n      swap1\n      pop\n      jump\t// out\n        /* \"#utility.yul\":4304:4422   */\n    tag_52:\n        /* \"#utility.yul\":4391:4415   */\n      tag_117\n        /* \"#utility.yul\":4409:4414   */\n      dup2\n        /* \"#utility.yul\":4391:4415   */\n      tag_51\n      jump\t// in\n    tag_117:\n        /* \"#utility.yul\":4386:4389   */\n      dup3\n        /* \"#utility.yul\":4379:4416   */\n      mstore\n        /* \"#utility.yul\":4304:4422   */\n      pop\n      pop\n      jump\t// out\n        /* \"#utility.yul\":4428:4650   */\n    tag_11:\n        /* \"#utility.yul\":4521:4525   */\n      0x00\n        /* \"#utility.yul\":4559:4561   */\n      0x20\n        /* \"#utility.yul\":4548:4557   */\n      dup3\n        /* \"#utility.yul\":4544:4562   */\n      add\n        /* \"#utility.yul\":4536:4562   */\n      swap1\n      pop\n        /* \"#utility.yul\":4572:4643   */\n      tag_119\n        /* \"#utility.yul\":4640:4641   */\n      0x00\n        /* \"#utility.yul\":4629:4638   */\n      dup4\n        /* \"#utility.yul\":4625:4642   */\n      add\n        /* \"#utility.yul\":4616:4622   */\n      dup5\n        /* \"#utility.yul\":4572:4643   */\n      tag_52\n      jump\t// in\n    tag_119:\n        /* \"#utility.yul\":4428:4650   */\n      swap3\n      swap2\n      pop\n      pop\n      jump\t// out\n        /* \"#utility.yul\":4656:5490   */\n    tag_14:\n        /* \"#utility.yul\":4744:4750   */\n      0x00\n        /* \"#utility.yul\":4752:4758   */\n      dup1\n        /* \"#utility.yul\":4801:4803   */\n      0x40\n        /* \"#utility.yul\":4789:4798   */\n      dup4\n        /* \"#utility.yul\":4780:4787   */\n      dup6\n        /* \"#utility.yul\":4776:4799   */\n      sub\n        /* \"#utility.yul\":4772:4804   */\n      slt\n        /* \"#utility.yul\":4769:4888   */\n      iszero\n      tag_121\n      jumpi\n        /* \"#utility.yul\":4807:4886   */\n      tag_122\n      tag_32\n      jump\t// in\n    tag_122:\n        /* \"#utility.yul\":4769:4888   */\n    tag_121:\n        /* \"#utility.yul\":4955:4956   */\n      0x00\n        /* \"#utility.yul\":4944:4953   */\n      dup4\n        /* \"#utility.yul\":4940:4957   */\n      add\n        /* \"#utility.yul\":4927:4958   */\n      calldataload\n        /* \"#utility.yul\":4985:5003   */\n      0xffffffffffffffff\n        /* \"#utility.yul\":4977:4983   */\n      dup2\n        /* \"#utility.yul\":4974:5004   */\n      gt\n        /* \"#utility.yul\":4971:5088   */\n      iszero\n      tag_123\n      jumpi\n        /* \"#utility.yul\":5007:5086   */\n      tag_124\n      tag_33\n      jump\t// in\n    tag_124:\n        /* \"#utility.yul\":4971:5088   */\n    tag_123:\n        /* \"#utility.yul\":5112:5175   */\n      tag_125\n        /* \"#utility.yul\":5167:5174   */\n      dup6\n        /* \"#utility.yul\":5158:5164   */\n      dup3\n        /* \"#utility.yul\":5147:5156   */\n      dup7\n        /* \"#utility.yul\":5143:5165   */\n      add\n        /* \"#utility.yul\":5112:5175   */\n      tag_43\n      jump\t// in\n    tag_125:\n        /* \"#utility.yul\":5102:5175   */\n      swap3\n      pop\n        /* \"#utility.yul\":4898:5185   */\n      pop\n        /* \"#utility.yul\":5252:5254   */\n      0x20\n        /* \"#utility.yul\":5241:5250   */\n      dup4\n        /* \"#utility.yul\":5237:5255   */\n      add\n        /* \"#utility.yul\":5224:5256   */\n      calldataload\n        /* \"#utility.yul\":5283:5301   */\n      0xffffffffffffffff\n        /* \"#utility.yul\":5275:5281   */\n      dup2\n        /* \"#utility.yul\":5272:5302   */\n      gt\n        /* \"#utility.yul\":5269:5386   */\n      iszero\n      tag_126\n      jumpi\n        /* \"#utility.yul\":5305:5384   */\n      tag_127\n      tag_33\n      jump\t// in\n    tag_127:\n        /* \"#utility.yul\":5269:5386   */\n    tag_126:\n        /* \"#utility.yul\":5410:5473   */\n      tag_128\n        /* \"#utility.yul\":5465:5472   */\n      dup6\n        /* \"#utility.yul\":5456:5462   */\n      dup3\n        /* \"#utility.yul\":5445:5454   */\n      dup7\n        /* \"#utility.yul\":5441:5463   */\n      add\n        /* \"#utility.yul\":5410:5473   */\n      tag_43\n      jump\t// in\n    tag_128:\n        /* \"#utility.yul\":5400:5473   */\n      swap2\n      pop\n        /* \"#utility.yul\":5195:5483   */\n      pop\n        /* \"#utility.yul\":4656:5490   */\n      swap3\n      pop\n      swap3\n      swap1\n      pop\n      jump\t// out\n        /* \"#utility.yul\":5496:6005   */\n    tag_19:\n        /* \"#utility.yul\":5565:5571   */\n      0x00\n        /* \"#utility.yul\":5614:5616   */\n      0x20\n        /* \"#utility.yul\":5602:5611   */\n      dup3\n        /* \"#utility.yul\":5593:5600   */\n      dup5\n        /* \"#utility.yul\":5589:5612   */\n      sub\n        /* \"#utility.yul\":5585:5617   */\n      slt\n        /* \"#utility.yul\":5582:5701   */\n      iszero\n      tag_130\n      jumpi\n        /* \"#utility.yul\":5620:5699   */\n      tag_131\n      tag_32\n      jump\t// in\n    tag_131:\n        /* \"#utility.yul\":5582:5701   */\n    tag_130:\n        /* \"#utility.yul\":5768:5769   */\n      0x00\n        /* \"#utility.yul\":5757:5766   */\n      dup3\n        /* \"#utility.yul\":5753:5770   */\n      add\n        /* \"#utility.yul\":5740:5771   */\n      calldataload\n        /* \"#utility.yul\":5798:5816   */\n      0xffffffffffffffff\n        /* \"#utility.yul\":5790:5796   */\n      dup2\n        /* \"#utility.yul\":5787:5817   */\n      gt\n        /* \"#utility.yul\":5784:5901   */\n      iszero\n      tag_132\n      jumpi\n        /* \"#utility.yul\":5820:5899   */\n      tag_133\n      tag_33\n      jump\t// in\n    tag_133:\n        /* \"#utility.yul\":5784:5901   */\n    tag_132:\n        /* \"#utility.yul\":5925:5988   */\n      tag_134\n        /* \"#utility.yul\":5980:5987   */\n      dup5\n        /* \"#utility.yul\":5971:5977   */\n      dup3\n        /* \"#utility.yul\":5960:5969   */\n      dup6\n        /* \"#utility.yul\":5956:5978   */\n      add\n        /* \"#utility.yul\":5925:5988   */\n      tag_43\n      jump\t// in\n    tag_134:\n        /* \"#utility.yul\":5915:5988   */\n      swap2\n      pop\n        /* \"#utility.yul\":5711:5998   */\n      pop\n        /* \"#utility.yul\":5496:6005   */\n      swap3\n      swap2\n      pop\n      pop\n      jump\t// out\n        /* \"#utility.yul\":6011:6110   */\n    tag_53:\n        /* \"#utility.yul\":6063:6069   */\n      0x00\n        /* \"#utility.yul\":6097:6102   */\n      dup2\n        /* \"#utility.yul\":6091:6103   */\n      mload\n        /* \"#utility.yul\":6081:6103   */\n      swap1\n      pop\n        /* \"#utility.yul\":6011:6110   */\n      swap2\n      swap1\n      pop\n      jump\t// out\n        /* \"#utility.yul\":6116:6264   */\n    tag_54:\n        /* \"#utility.yul\":6218:6229   */\n      0x00\n        /* \"#utility.yul\":6255:6258   */\n      dup2\n        /* \"#utility.yul\":6240:6258   */\n      swap1\n      pop\n        /* \"#utility.yul\":6116:6264   */\n      swap3\n      swap2\n      pop\n      pop\n      jump\t// out\n        /* \"#utility.yul\":6270:6516   */\n    tag_55:\n        /* \"#utility.yul\":6351:6352   */\n      0x00\n        /* \"#utility.yul\":6361:6474   */\n    tag_138:\n        /* \"#utility.yul\":6375:6381   */\n      dup4\n        /* \"#utility.yul\":6372:6373   */\n      dup2\n        /* \"#utility.yul\":6369:6382   */\n      lt\n        /* \"#utility.yul\":6361:6474   */\n      iszero\n      tag_140\n      jumpi\n        /* \"#utility.yul\":6460:6461   */\n      dup1\n        /* \"#utility.yul\":6455:6458   */\n      dup3\n        /* \"#utility.yul\":6451:6462   */\n      add\n        /* \"#utility.yul\":6445:6463   */\n      mload\n        /* \"#utility.yul\":6441:6442   */\n      dup2\n        /* \"#utility.yul\":6436:6439   */\n      dup5\n        /* \"#utility.yul\":6432:6443   */\n      add\n        /* \"#utility.yul\":6425:6464   */\n      mstore\n        /* \"#utility.yul\":6397:6399   */\n      0x20\n        /* \"#utility.yul\":6394:6395   */\n      dup2\n        /* \"#utility.yul\":6390:6400   */\n      add\n        /* \"#utility.yul\":6385:6400   */\n      swap1\n      pop\n        /* \"#utility.yul\":6361:6474   */\n      jump(tag_138)\n    tag_140:\n        /* \"#utility.yul\":6508:6509   */\n      0x00\n        /* \"#utility.yul\":6499:6505   */\n      dup5\n        /* \"#utility.yul\":6494:6497   */\n      dup5\n        /* \"#utility.yul\":6490:6506   */\n      add\n        /* \"#utility.yul\":6483:6510   */\n      mstore\n        /* \"#utility.yul\":6332:6516   */\n      pop\n        /* \"#utility.yul\":6270:6516   */\n      pop\n      pop\n      pop\n      jump\t// out\n        /* \"#utility.yul\":6522:6912   */\n    tag_56:\n        /* \"#utility.yul\":6628:6631   */\n      0x00\n        /* \"#utility.yul\":6656:6695   */\n      tag_142\n        /* \"#utility.yul\":6689:6694   */\n      dup3\n        /* \"#utility.yul\":6656:6695   */\n      tag_53\n      jump\t// in\n    tag_142:\n        /* \"#utility.yul\":6711:6800   */\n      tag_143\n        /* \"#utility.yul\":6793:6799   */\n      dup2\n        /* \"#utility.yul\":6788:6791   */\n      dup6\n        /* \"#utility.yul\":6711:6800   */\n      tag_54\n      jump\t// in\n    tag_143:\n        /* \"#utility.yul\":6704:6800   */\n      swap4\n      pop\n        /* \"#utility.yul\":6809:6874   */\n      tag_144\n        /* \"#utility.yul\":6867:6873   */\n      dup2\n        /* \"#utility.yul\":6862:6865   */\n      dup6\n        /* \"#utility.yul\":6855:6859   */\n      0x20\n        /* \"#utility.yul\":6848:6853   */\n      dup7\n        /* \"#utility.yul\":6844:6860   */\n      add\n        /* \"#utility.yul\":6809:6874   */\n      tag_55\n      jump\t// in\n    tag_144:\n        /* \"#utility.yul\":6899:6905   */\n      dup1\n        /* \"#utility.yul\":6894:6897   */\n      dup5\n        /* \"#utility.yul\":6890:6906   */\n      add\n        /* \"#utility.yul\":6883:6906   */\n      swap2\n      pop\n        /* \"#utility.yul\":6632:6912   */\n      pop\n        /* \"#utility.yul\":6522:6912   */\n      swap3\n      swap2\n      pop\n      pop\n      jump\t// out\n        /* \"#utility.yul\":6918:6997   */\n    tag_57:\n        /* \"#utility.yul\":6957:6964   */\n      0x00\n        /* \"#utility.yul\":6986:6991   */\n      dup2\n        /* \"#utility.yul\":6975:6991   */\n      swap1\n      pop\n        /* \"#utility.yul\":6918:6997   */\n      swap2\n      swap1\n      pop\n      jump\t// out\n        /* \"#utility.yul\":7003:7160   */\n    tag_58:\n        /* \"#utility.yul\":7108:7153   */\n      tag_147\n        /* \"#utility.yul\":7128:7152   */\n      tag_148\n        /* \"#utility.yul\":7146:7151   */\n      dup3\n        /* \"#utility.yul\":7128:7152   */\n      tag_44\n      jump\t// in\n    tag_148:\n        /* \"#utility.yul\":7108:7153   */\n      tag_57\n      jump\t// in\n    tag_147:\n        /* \"#utility.yul\":7103:7106   */\n      dup3\n        /* \"#utility.yul\":7096:7154   */\n      mstore\n        /* \"#utility.yul\":7003:7160   */\n      pop\n      pop\n      jump\t// out\n        /* \"#utility.yul\":7166:7260   */\n    tag_59:\n        /* \"#utility.yul\":7199:7207   */\n      0x00\n        /* \"#utility.yul\":7247:7252   */\n      dup2\n        /* \"#utility.yul\":7243:7245   */\n      0x60\n        /* \"#utility.yul\":7239:7253   */\n      shl\n        /* \"#utility.yul\":7218:7253   */\n      swap1\n      pop\n        /* \"#utility.yul\":7166:7260   */\n      swap2\n      swap1\n      pop\n      jump\t// out\n        /* \"#utility.yul\":7266:7360   */\n    tag_60:\n        /* \"#utility.yul\":7305:7312   */\n      0x00\n        /* \"#utility.yul\":7334:7354   */\n      tag_151\n        /* \"#utility.yul\":7348:7353   */\n      dup3\n        /* \"#utility.yul\":7334:7354   */\n      tag_59\n      jump\t// in\n    tag_151:\n        /* \"#utility.yul\":7323:7354   */\n      swap1\n      pop\n        /* \"#utility.yul\":7266:7360   */\n      swap2\n      swap1\n      pop\n      jump\t// out\n        /* \"#utility.yul\":7366:7466   */\n    tag_61:\n        /* \"#utility.yul\":7405:7412   */\n      0x00\n        /* \"#utility.yul\":7434:7460   */\n      tag_153\n        /* \"#utility.yul\":7454:7459   */\n      dup3\n        /* \"#utility.yul\":7434:7460   */\n      tag_60\n      jump\t// in\n    tag_153:\n        /* \"#utility.yul\":7423:7460   */\n      swap1\n      pop\n        /* \"#utility.yul\":7366:7466   */\n      swap2\n      swap1\n      pop\n      jump\t// out\n        /* \"#utility.yul\":7472:7629   */\n    tag_62:\n        /* \"#utility.yul\":7577:7622   */\n      tag_155\n        /* \"#utility.yul\":7597:7621   */\n      tag_156\n        /* \"#utility.yul\":7615:7620   */\n      dup3\n        /* \"#utility.yul\":7597:7621   */\n      tag_48\n      jump\t// in\n    tag_156:\n        /* \"#utility.yul\":7577:7622   */\n      tag_61\n      jump\t// in\n    tag_155:\n        /* \"#utility.yul\":7572:7575   */\n      dup3\n        /* \"#utility.yul\":7565:7623   */\n      mstore\n        /* \"#utility.yul\":7472:7629   */\n      pop\n      pop\n      jump\t// out\n        /* \"#utility.yul\":7635:8192   */\n    tag_24:\n        /* \"#utility.yul\":7823:7826   */\n      0x00\n        /* \"#utility.yul\":7845:7940   */\n      tag_158\n        /* \"#utility.yul\":7936:7939   */\n      dup3\n        /* \"#utility.yul\":7927:7933   */\n      dup7\n        /* \"#utility.yul\":7845:7940   */\n      tag_56\n      jump\t// in\n    tag_158:\n        /* \"#utility.yul\":7838:7940   */\n      swap2\n      pop\n        /* \"#utility.yul\":7950:8025   */\n      tag_159\n        /* \"#utility.yul\":8021:8024   */\n      dup3\n        /* \"#utility.yul\":8012:8018   */\n      dup6\n        /* \"#utility.yul\":7950:8025   */\n      tag_58\n      jump\t// in\n    tag_159:\n        /* \"#utility.yul\":8050:8052   */\n      0x20\n        /* \"#utility.yul\":8045:8048   */\n      dup3\n        /* \"#utility.yul\":8041:8053   */\n      add\n        /* \"#utility.yul\":8034:8053   */\n      swap2\n      pop\n        /* \"#utility.yul\":8063:8138   */\n      tag_160\n        /* \"#utility.yul\":8134:8137   */\n      dup3\n        /* \"#utility.yul\":8125:8131   */\n      dup5\n        /* \"#utility.yul\":8063:8138   */\n      tag_62\n      jump\t// in\n    tag_160:\n        /* \"#utility.yul\":8163:8165   */\n      0x14\n        /* \"#utility.yul\":8158:8161   */\n      dup3\n        /* \"#utility.yul\":8154:8166   */\n      add\n        /* \"#utility.yul\":8147:8166   */\n      swap2\n      pop\n        /* \"#utility.yul\":8183:8186   */\n      dup2\n        /* \"#utility.yul\":8176:8186   */\n      swap1\n      pop\n        /* \"#utility.yul\":7635:8192   */\n      swap5\n      swap4\n      pop\n      pop\n      pop\n      pop\n      jump\t// out\n        /* \"#utility.yul\":8198:8633   */\n    tag_27:\n        /* \"#utility.yul\":8378:8381   */\n      0x00\n        /* \"#utility.yul\":8400:8495   */\n      tag_162\n        /* \"#utility.yul\":8491:8494   */\n      dup3\n        /* \"#utility.yul\":8482:8488   */\n      dup6\n        /* \"#utility.yul\":8400:8495   */\n      tag_56\n      jump\t// in\n    tag_162:\n        /* \"#utility.yul\":8393:8495   */\n      swap2\n      pop\n        /* \"#utility.yul\":8512:8607   */\n      tag_163\n        /* \"#utility.yul\":8603:8606   */\n      dup3\n        /* \"#utility.yul\":8594:8600   */\n      dup5\n        /* \"#utility.yul\":8512:8607   */\n      tag_56\n      jump\t// in\n    tag_163:\n        /* \"#utility.yul\":8505:8607   */\n      swap2\n      pop\n        /* \"#utility.yul\":8624:8627   */\n      dup2\n        /* \"#utility.yul\":8617:8627   */\n      swap1\n      pop\n        /* \"#utility.yul\":8198:8633   */\n      swap4\n      swap3\n      pop\n      pop\n      pop\n      jump\t// out\n        /* \"#utility.yul\":8639:8914   */\n    tag_30:\n        /* \"#utility.yul\":8771:8774   */\n      0x00\n        /* \"#utility.yul\":8793:8888   */\n      tag_165\n        /* \"#utility.yul\":8884:8887   */\n      dup3\n        /* \"#utility.yul\":8875:8881   */\n      dup5\n        /* \"#utility.yul\":8793:8888   */\n      tag_56\n      jump\t// in\n    tag_165:\n        /* \"#utility.yul\":8786:8888   */\n      swap2\n      pop\n        /* \"#utility.yul\":8905:8908   */\n      dup2\n        /* \"#utility.yul\":8898:8908   */\n      swap1\n      pop\n        /* \"#utility.yul\":8639:8914   */\n      swap3\n      swap2\n      pop\n      pop\n      jump\t// out\n\n    auxdata: 0xa264697066735822122068348df82deac5f7dd537b3dca3203eeb705b5988804305b79bf0459874d1c4b64736f6c63430008180033\n}\n",
				"bytecode": {
					"linkReferences": {},
					"object": "608060405234801561000f575f80fd5b506106158061001d5f395ff3fe608060405234801561000f575f80fd5b506004361061003f575f3560e01c80634a0a7211146100435780637b7fb982146100735780638b461b80146100a3575b5f80fd5b61005d60048036038101906100589190610343565b6100d3565b60405161006a91906103c7565b60405180910390f35b61008d600480360381019061008891906103e0565b610108565b60405161009a91906103c7565b60405180910390f35b6100bd60048036038101906100b89190610456565b61013a565b6040516100ca91906103c7565b60405180910390f35b5f8383836040516020016100e99392919061056e565b6040516020818303038152906040528051906020012090509392505050565b5f828260405160200161011c9291906105a6565b60405160208183030381529060405280519060200120905092915050565b5f8160405160200161014c91906105c9565b604051602081830303815290604052805190602001209050919050565b5f604051905090565b5f80fd5b5f80fd5b5f80fd5b5f80fd5b5f601f19601f8301169050919050565b7f4e487b71000000000000000000000000000000000000000000000000000000005f52604160045260245ffd5b6101c882610182565b810181811067ffffffffffffffff821117156101e7576101e6610192565b5b80604052505050565b5f6101f9610169565b905061020582826101bf565b919050565b5f67ffffffffffffffff82111561022457610223610192565b5b61022d82610182565b9050602081019050919050565b828183375f83830152505050565b5f61025a6102558461020a565b6101f0565b9050828152602081018484840111156102765761027561017e565b5b61028184828561023a565b509392505050565b5f82601f83011261029d5761029c61017a565b5b81356102ad848260208601610248565b91505092915050565b5f819050919050565b6102c8816102b6565b81146102d2575f80fd5b50565b5f813590506102e3816102bf565b92915050565b5f73ffffffffffffffffffffffffffffffffffffffff82169050919050565b5f610312826102e9565b9050919050565b61032281610308565b811461032c575f80fd5b50565b5f8135905061033d81610319565b92915050565b5f805f6060848603121561035a57610359610172565b5b5f84013567ffffffffffffffff81111561037757610376610176565b5b61038386828701610289565b9350506020610394868287016102d5565b92505060406103a58682870161032f565b9150509250925092565b5f819050919050565b6103c1816103af565b82525050565b5f6020820190506103da5f8301846103b8565b92915050565b5f80604083850312156103f6576103f5610172565b5b5f83013567ffffffffffffffff81111561041357610412610176565b5b61041f85828601610289565b925050602083013567ffffffffffffffff8111156104405761043f610176565b5b61044c85828601610289565b9150509250929050565b5f6020828403121561046b5761046a610172565b5b5f82013567ffffffffffffffff81111561048857610487610176565b5b61049484828501610289565b91505092915050565b5f81519050919050565b5f81905092915050565b5f5b838110156104ce5780820151818401526020810190506104b3565b5f8484015250505050565b5f6104e38261049d565b6104ed81856104a7565b93506104fd8185602086016104b1565b80840191505092915050565b5f819050919050565b61052361051e826102b6565b610509565b82525050565b5f8160601b9050919050565b5f61053f82610529565b9050919050565b5f61055082610535565b9050919050565b61056861056382610308565b610546565b82525050565b5f61057982866104d9565b91506105858285610512565b6020820191506105958284610557565b601482019150819050949350505050565b5f6105b182856104d9565b91506105bd82846104d9565b91508190509392505050565b5f6105d482846104d9565b91508190509291505056fea264697066735822122068348df82deac5f7dd537b3dca3203eeb705b5988804305b79bf0459874d1c4b64736f6c63430008180033",
					"opcodes": "PUSH1 0x80 PUSH1 0x40 MSTORE CALLVALUE DUP1 ISZERO PUSH2 0xF JUMPI PUSH0 DUP1 REVERT JUMPDEST POP PUSH2 0x615 DUP1 PUSH2 0x1D PUSH0 CODECOPY PUSH0 RETURN INVALID PUSH1 0x80 PUSH1 0x40 MSTORE CALLVALUE DUP1 ISZERO PUSH2 0xF JUMPI PUSH0 DUP1 REVERT JUMPDEST POP PUSH1 0x4 CALLDATASIZE LT PUSH2 0x3F JUMPI PUSH0 CALLDATALOAD PUSH1 0xE0 SHR DUP1 PUSH4 0x4A0A7211 EQ PUSH2 0x43 JUMPI DUP1 PUSH4 0x7B7FB982 EQ PUSH2 0x73 JUMPI DUP1 PUSH4 0x8B461B80 EQ PUSH2 0xA3 JUMPI JUMPDEST PUSH0 DUP1 REVERT JUMPDEST PUSH2 0x5D PUSH1 0x4 DUP1 CALLDATASIZE SUB DUP2 ADD SWAP1 PUSH2 0x58 SWAP2 SWAP1 PUSH2 0x343 JUMP JUMPDEST PUSH2 0xD3 JUMP JUMPDEST PUSH1 0x40 MLOAD PUSH2 0x6A SWAP2 SWAP1 PUSH2 0x3C7 JUMP JUMPDEST PUSH1 0x40 MLOAD DUP1 SWAP2 SUB SWAP1 RETURN JUMPDEST PUSH2 0x8D PUSH1 0x4 DUP1 CALLDATASIZE SUB DUP2 ADD SWAP1 PUSH2 0x88 SWAP2 SWAP1 PUSH2 0x3E0 JUMP JUMPDEST PUSH2 0x108 JUMP JUMPDEST PUSH1 0x40 MLOAD PUSH2 0x9A SWAP2 SWAP1 PUSH2 0x3C7 JUMP JUMPDEST PUSH1 0x40 MLOAD DUP1 SWAP2 SUB SWAP1 RETURN JUMPDEST PUSH2 0xBD PUSH1 0x4 DUP1 CALLDATASIZE SUB DUP2 ADD SWAP1 PUSH2 0xB8 SWAP2 SWAP1 PUSH2 0x456 JUMP JUMPDEST PUSH2 0x13A JUMP JUMPDEST PUSH1 0x40 MLOAD PUSH2 0xCA SWAP2 SWAP1 PUSH2 0x3C7 JUMP JUMPDEST PUSH1 0x40 MLOAD DUP1 SWAP2 SUB SWAP1 RETURN JUMPDEST PUSH0 DUP4 DUP4 DUP4 PUSH1 0x40 MLOAD PUSH1 0x20 ADD PUSH2 0xE9 SWAP4 SWAP3 SWAP2 SWAP1 PUSH2 0x56E JUMP JUMPDEST PUSH1 0x40 MLOAD PUSH1 0x20 DUP2 DUP4 SUB SUB DUP2 MSTORE SWAP1 PUSH1 0x40 MSTORE DUP1 MLOAD SWAP1 PUSH1 0x20 ADD KECCAK256 SWAP1 POP SWAP4 SWAP3 POP POP POP JUMP JUMPDEST PUSH0 DUP3 DUP3 PUSH1 0x40 MLOAD PUSH1 0x20 ADD PUSH2 0x11C SWAP3 SWAP2 SWAP1 PUSH2 0x5A6 JUMP JUMPDEST PUSH1 0x40 MLOAD PUSH1 0x20 DUP2 DUP4 SUB SUB DUP2 MSTORE SWAP1 PUSH1 0x40 MSTORE DUP1 MLOAD SWAP1 PUSH1 0x20 ADD KECCAK256 SWAP1 POP SWAP3 SWAP2 POP POP JUMP JUMPDEST PUSH0 DUP2 PUSH1 0x40 MLOAD PUSH1 0x20 ADD PUSH2 0x14C SWAP2 SWAP1 PUSH2 0x5C9 JUMP JUMPDEST PUSH1 0x40 MLOAD PUSH1 0x20 DUP2 DUP4 SUB SUB DUP2 MSTORE SWAP1 PUSH1 0x40 MSTORE DUP1 MLOAD SWAP1 PUSH1 0x20 ADD KECCAK256 SWAP1 POP SWAP2 SWAP1 POP JUMP JUMPDEST PUSH0 PUSH1 0x40 MLOAD SWAP1 POP SWAP1 JUMP JUMPDEST PUSH0 DUP1 REVERT JUMPDEST PUSH0 DUP1 REVERT JUMPDEST PUSH0 DUP1 REVERT JUMPDEST PUSH0 DUP1 REVERT JUMPDEST PUSH0 PUSH1 0x1F NOT PUSH1 0x1F DUP4 ADD AND SWAP1 POP SWAP2 SWAP1 POP JUMP JUMPDEST PUSH32 0x4E487B7100000000000000000000000000000000000000000000000000000000 PUSH0 MSTORE PUSH1 0x41 PUSH1 0x4 MSTORE PUSH1 0x24 PUSH0 REVERT JUMPDEST PUSH2 0x1C8 DUP3 PUSH2 0x182 JUMP JUMPDEST DUP2 ADD DUP2 DUP2 LT PUSH8 0xFFFFFFFFFFFFFFFF DUP3 GT OR ISZERO PUSH2 0x1E7 JUMPI PUSH2 0x1E6 PUSH2 0x192 JUMP JUMPDEST JUMPDEST DUP1 PUSH1 0x40 MSTORE POP POP POP JUMP JUMPDEST PUSH0 PUSH2 0x1F9 PUSH2 0x169 JUMP JUMPDEST SWAP1 POP PUSH2 0x205 DUP3 DUP3 PUSH2 0x1BF JUMP JUMPDEST SWAP2 SWAP1 POP JUMP JUMPDEST PUSH0 PUSH8 0xFFFFFFFFFFFFFFFF DUP3 GT ISZERO PUSH2 0x224 JUMPI PUSH2 0x223 PUSH2 0x192 JUMP JUMPDEST JUMPDEST PUSH2 0x22D DUP3 PUSH2 0x182 JUMP JUMPDEST SWAP1 POP PUSH1 0x20 DUP2 ADD SWAP1 POP SWAP2 SWAP1 POP JUMP JUMPDEST DUP3 DUP2 DUP4 CALLDATACOPY PUSH0 DUP4 DUP4 ADD MSTORE POP POP POP JUMP JUMPDEST PUSH0 PUSH2 0x25A PUSH2 0x255 DUP5 PUSH2 0x20A JUMP JUMPDEST PUSH2 0x1F0 JUMP JUMPDEST SWAP1 POP DUP3 DUP2 MSTORE PUSH1 0x20 DUP2 ADD DUP5 DUP5 DUP5 ADD GT ISZERO PUSH2 0x276 JUMPI PUSH2 0x275 PUSH2 0x17E JUMP JUMPDEST JUMPDEST PUSH2 0x281 DUP5 DUP3 DUP6 PUSH2 0x23A JUMP JUMPDEST POP SWAP4 SWAP3 POP POP POP JUMP JUMPDEST PUSH0 DUP3 PUSH1 0x1F DUP4 ADD SLT PUSH2 0x29D JUMPI PUSH2 0x29C PUSH2 0x17A JUMP JUMPDEST JUMPDEST DUP2 CALLDATALOAD PUSH2 0x2AD DUP5 DUP3 PUSH1 0x20 DUP7 ADD PUSH2 0x248 JUMP JUMPDEST SWAP2 POP POP SWAP3 SWAP2 POP POP JUMP JUMPDEST PUSH0 DUP2 SWAP1 POP SWAP2 SWAP1 POP JUMP JUMPDEST PUSH2 0x2C8 DUP2 PUSH2 0x2B6 JUMP JUMPDEST DUP2 EQ PUSH2 0x2D2 JUMPI PUSH0 DUP1 REVERT JUMPDEST POP JUMP JUMPDEST PUSH0 DUP2 CALLDATALOAD SWAP1 POP PUSH2 0x2E3 DUP2 PUSH2 0x2BF JUMP JUMPDEST SWAP3 SWAP2 POP POP JUMP JUMPDEST PUSH0 PUSH20 0xFFFFFFFFFFFFFFFFFFFFFFFFFFFFFFFFFFFFFFFF DUP3 AND SWAP1 POP SWAP2 SWAP1 POP JUMP JUMPDEST PUSH0 PUSH2 0x312 DUP3 PUSH2 0x2E9 JUMP JUMPDEST SWAP1 POP SWAP2 SWAP1 POP JUMP JUMPDEST PUSH2 0x322 DUP2 PUSH2 0x308 JUMP JUMPDEST DUP2 EQ PUSH2 0x32C JUMPI PUSH0 DUP1 REVERT JUMPDEST POP JUMP JUMPDEST PUSH0 DUP2 CALLDATALOAD SWAP1 POP PUSH2 0x33D DUP2 PUSH2 0x319 JUMP JUMPDEST SWAP3 SWAP2 POP POP JUMP JUMPDEST PUSH0 DUP1 PUSH0 PUSH1 0x60 DUP5 DUP7 SUB SLT ISZERO PUSH2 0x35A JUMPI PUSH2 0x359 PUSH2 0x172 JUMP JUMPDEST JUMPDEST PUSH0 DUP5 ADD CALLDATALOAD PUSH8 0xFFFFFFFFFFFFFFFF DUP2 GT ISZERO PUSH2 0x377 JUMPI PUSH2 0x376 PUSH2 0x176 JUMP JUMPDEST JUMPDEST PUSH2 0x383 DUP7 DUP3 DUP8 ADD PUSH2 0x289 JUMP JUMPDEST SWAP4 POP POP PUSH1 0x20 PUSH2 0x394 DUP7 DUP3 DUP8 ADD PUSH2 0x2D5 JUMP JUMPDEST SWAP3 POP POP PUSH1 0x40 PUSH2 0x3A5 DUP7 DUP3 DUP8 ADD PUSH2 0x32F JUMP JUMPDEST SWAP2 POP POP SWAP3 POP SWAP3 POP SWAP3 JUMP JUMPDEST PUSH0 DUP2 SWAP1 POP SWAP2 SWAP1 POP JUMP JUMPDEST PUSH2 0x3C1 DUP2 PUSH2 0x3AF JUMP JUMPDEST DUP3 MSTORE POP POP JUMP JUMPDEST PUSH0 PUSH1 0x20 DUP3 ADD SWAP1 POP PUSH2 0x3DA PUSH0 DUP4 ADD DUP5 PUSH2 0x3B8 JUMP JUMPDEST SWAP3 SWAP2 POP POP JUMP JUMPDEST PUSH0 DUP1 PUSH1 0x40 DUP4 DUP6 SUB SLT ISZERO PUSH2 0x3F6 JUMPI PUSH2 0x3F5 PUSH2 0x172 JUMP JUMPDEST JUMPDEST PUSH0 DUP4 ADD CALLDATALOAD PUSH8 0xFFFFFFFFFFFFFFFF DUP2 GT ISZERO PUSH2 0x413 JUMPI PUSH2 0x412 PUSH2 0x176 JUMP JUMPDEST JUMPDEST PUSH2 0x41F DUP6 DUP3 DUP7 ADD PUSH2 0x289 JUMP JUMPDEST SWAP3 POP POP PUSH1 0x20 DUP4 ADD CALLDATALOAD PUSH8 0xFFFFFFFFFFFFFFFF DUP2 GT ISZERO PUSH2 0x440 JUMPI PUSH2 0x43F PUSH2 0x176 JUMP JUMPDEST JUMPDEST PUSH2 0x44C DUP6 DUP3 DUP7 ADD PUSH2 0x289 JUMP JUMPDEST SWAP2 POP POP SWAP3 POP SWAP3 SWAP1 POP JUMP JUMPDEST PUSH0 PUSH1 0x20 DUP3 DUP5 SUB SLT ISZERO PUSH2 0x46B JUMPI PUSH2 0x46A PUSH2 0x172 JUMP JUMPDEST JUMPDEST PUSH0 DUP3 ADD CALLDATALOAD PUSH8 0xFFFFFFFFFFFFFFFF DUP2 GT ISZERO PUSH2 0x488 JUMPI PUSH2 0x487 PUSH2 0x176 JUMP JUMPDEST JUMPDEST PUSH2 0x494 DUP5 DUP3 DUP6 ADD PUSH2 0x289 JUMP JUMPDEST SWAP2 POP POP SWAP3 SWAP2 POP POP JUMP JUMPDEST PUSH0 DUP2 MLOAD SWAP1 POP SWAP2 SWAP1 POP JUMP JUMPDEST PUSH0 DUP2 SWAP1 POP SWAP3 SWAP2 POP POP JUMP JUMPDEST PUSH0 JUMPDEST DUP4 DUP2 LT ISZERO PUSH2 0x4CE JUMPI DUP1 DUP3 ADD MLOAD DUP2 DUP5 ADD MSTORE PUSH1 0x20 DUP2 ADD SWAP1 POP PUSH2 0x4B3 JUMP JUMPDEST PUSH0 DUP5 DUP5 ADD MSTORE POP POP POP POP JUMP JUMPDEST PUSH0 PUSH2 0x4E3 DUP3 PUSH2 0x49D JUMP JUMPDEST PUSH2 0x4ED DUP2 DUP6 PUSH2 0x4A7 JUMP JUMPDEST SWAP4 POP PUSH2 0x4FD DUP2 DUP6 PUSH1 0x20 DUP7 ADD PUSH2 0x4B1 JUMP JUMPDEST DUP1 DUP5 ADD SWAP2 POP POP SWAP3 SWAP2 POP POP JUMP JUMPDEST PUSH0 DUP2 SWAP1 POP SWAP2 SWAP1 POP JUMP JUMPDEST PUSH2 0x523 PUSH2 0x51E DUP3 PUSH2 0x2B6 JUMP JUMPDEST PUSH2 0x509 JUMP JUMPDEST DUP3 MSTORE POP POP JUMP JUMPDEST PUSH0 DUP2 PUSH1 0x60 SHL SWAP1 POP SWAP2 SWAP1 POP JUMP JUMPDEST PUSH0 PUSH2 0x53F DUP3 PUSH2 0x529 JUMP JUMPDEST SWAP1 POP SWAP2 SWAP1 POP JUMP JUMPDEST PUSH0 PUSH2 0x550 DUP3 PUSH2 0x535 JUMP JUMPDEST SWAP1 POP SWAP2 SWAP1 POP JUMP JUMPDEST PUSH2 0x568 PUSH2 0x563 DUP3 PUSH2 0x308 JUMP JUMPDEST PUSH2 0x546 JUMP JUMPDEST DUP3 MSTORE POP POP JUMP JUMPDEST PUSH0 PUSH2 0x579 DUP3 DUP7 PUSH2 0x4D9 JUMP JUMPDEST SWAP2 POP PUSH2 0x585 DUP3 DUP6 PUSH2 0x512 JUMP JUMPDEST PUSH1 0x20 DUP3 ADD SWAP2 POP PUSH2 0x595 DUP3 DUP5 PUSH2 0x557 JUMP JUMPDEST PUSH1 0x14 DUP3 ADD SWAP2 POP DUP2 SWAP1 POP SWAP5 SWAP4 POP POP POP POP JUMP JUMPDEST PUSH0 PUSH2 0x5B1 DUP3 DUP6 PUSH2 0x4D9 JUMP JUMPDEST SWAP2 POP PUSH2 0x5BD DUP3 DUP5 PUSH2 0x4D9 JUMP JUMPDEST SWAP2 POP DUP2 SWAP1 POP SWAP4 SWAP3 POP POP POP JUMP JUMPDEST PUSH0 PUSH2 0x5D4 DUP3 DUP5 PUSH2 0x4D9 JUMP JUMPDEST SWAP2 POP DUP2 SWAP1 POP SWAP3 SWAP2 POP POP JUMP INVALID LOG2 PUSH5 0x6970667358 0x22 SLT KECCAK256 PUSH9 0x348DF82DEAC5F7DD53 PUSH28 0x3DCA3203EEB705B5988804305B79BF0459874D1C4B64736F6C634300 ADDMOD XOR STOP CALLER "
				},
				"gasEstimates": {
					"creation": {
						"codeDepositCost": "311400",
						"executionCost": "347",
						"totalCost": "311747"
					},
					"external": {
						"Hasedata(string,uint256,address)": "infinite",
						"Hashgen(string)": "infinite",
						"collision(string,string)": "infinite"
					}
				},
				"methodIdentifiers": {
					"Hasedata(string,uint256,address)": "4a0a7211",
					"Hashgen(string)": "8b461b80",
					"collision(string,string)": "7b7fb982"
				}
			},
			"storageLayout": {
				"storage": [],
				"types": null
			},
			"userdoc": {
				"kind": "user",
				"methods": {},
				"version": 1
			}
		}
	}
}