{
	"tests/30_day project/day1/pr3.sol": {
		"signature_verify": {
			"abi": [
				{
					"inputs": [
						{
							"internalType": "address",
							"name": "_addr",
							"type": "address"
						},
						{
							"internalType": "uint256",
							"name": "_amount",
							"type": "uint256"
						},
						{
							"internalType": "string",
							"name": "_message",
							"type": "string"
						},
						{
							"internalType": "uint256",
							"name": "_nonce",
							"type": "uint256"
						}
					],
					"name": "hashgenerate",
					"outputs": [
						{
							"internalType": "bytes32",
							"name": "",
							"type": "bytes32"
						}
					],
					"stateMutability": "pure",
					"type": "function"
				},
				{
					"inputs": [
						{
							"internalType": "bytes32",
							"name": "_data",
							"type": "bytes32"
						}
					],
					"name": "sign_hash",
					"outputs": [
						{
							"internalType": "bytes32",
							"name": "",
							"type": "bytes32"
						}
					],
					"stateMutability": "pure",
					"type": "function"
				}
			],
			"devdoc": {
				"kind": "dev",
				"methods": {},
				"version": 1
			},
			"evm": {
				"assembly": "    /* \"tests/30_day project/day1/pr3.sol\":58:559  contract signature_verify{... */\n  mstore(0x40, 0x80)\n  callvalue\n  dup1\n  iszero\n  tag_1\n  jumpi\n  0x00\n  dup1\n  revert\ntag_1:\n  pop\n  dataSize(sub_0)\n  dup1\n  dataOffset(sub_0)\n  0x00\n  codecopy\n  0x00\n  return\nstop\n\nsub_0: assembly {\n        /* \"tests/30_day project/day1/pr3.sol\":58:559  contract signature_verify{... */\n      mstore(0x40, 0x80)\n      callvalue\n      dup1\n      iszero\n      tag_1\n      jumpi\n      0x00\n      dup1\n      revert\n    tag_1:\n      pop\n      jumpi(tag_2, lt(calldatasize, 0x04))\n      shr(0xe0, calldataload(0x00))\n      dup1\n      0x0fa56d5f\n      eq\n      tag_3\n      jumpi\n      dup1\n      0x70e61ffb\n      eq\n      tag_4\n      jumpi\n    tag_2:\n      0x00\n      dup1\n      revert\n        /* \"tests/30_day project/day1/pr3.sol\":376:556  function sign_hash(bytes32 _data)public pure returns(bytes32){... */\n    tag_3:\n      tag_5\n      0x04\n      dup1\n      calldatasize\n      sub\n      dup2\n      add\n      swap1\n      tag_6\n      swap2\n      swap1\n      tag_7\n      jump\t// in\n    tag_6:\n      tag_8\n      jump\t// in\n    tag_5:\n      mload(0x40)\n      tag_9\n      swap2\n      swap1\n      tag_10\n      jump\t// in\n    tag_9:\n      mload(0x40)\n      dup1\n      swap2\n      sub\n      swap1\n      return\n        /* \"tests/30_day project/day1/pr3.sol\":90:292  function hashgenerate(address _addr, uint _amount, string memory _message, uint _nonce)public pure returns(bytes32){... */\n    tag_4:\n      tag_11\n      0x04\n      dup1\n      calldatasize\n      sub\n      dup2\n      add\n      swap1\n      tag_12\n      swap2\n      swap1\n      tag_13\n      jump\t// in\n    tag_12:\n      tag_14\n      jump\t// in\n    tag_11:\n      mload(0x40)\n      tag_15\n      swap2\n      swap1\n      tag_10\n      jump\t// in\n    tag_15:\n      mload(0x40)\n      dup1\n      swap2\n      sub\n      swap1\n      return\n        /* \"tests/30_day project/day1/pr3.sol\":376:556  function sign_hash(bytes32 _data)public pure returns(bytes32){... */\n    tag_8:\n        /* \"tests/30_day project/day1/pr3.sol\":429:436  bytes32 */\n      0x00\n        /* \"tests/30_day project/day1/pr3.sol\":531:536  _data */\n      dup2\n        /* \"tests/30_day project/day1/pr3.sol\":479:537  abi.encodePacked (\"\\x19Ethereum Signed Message\\n32\",_data) */\n      add(0x20, mload(0x40))\n      tag_17\n      swap2\n      swap1\n      tag_18\n      jump\t// in\n    tag_17:\n      mload(0x40)\n      0x20\n      dup2\n      dup4\n      sub\n      sub\n      dup2\n      mstore\n      swap1\n      0x40\n      mstore\n        /* \"tests/30_day project/day1/pr3.sol\":455:548  keccak256(... */\n      dup1\n      mload\n      swap1\n      0x20\n      add\n      keccak256\n        /* \"tests/30_day project/day1/pr3.sol\":448:548  return keccak256(... */\n      swap1\n      pop\n        /* \"tests/30_day project/day1/pr3.sol\":376:556  function sign_hash(bytes32 _data)public pure returns(bytes32){... */\n      swap2\n      swap1\n      pop\n      jump\t// out\n        /* \"tests/30_day project/day1/pr3.sol\":90:292  function hashgenerate(address _addr, uint _amount, string memory _message, uint _nonce)public pure returns(bytes32){... */\n    tag_14:\n        /* \"tests/30_day project/day1/pr3.sol\":197:204  bytes32 */\n      0x00\n        /* \"tests/30_day project/day1/pr3.sol\":250:255  _addr */\n      dup5\n        /* \"tests/30_day project/day1/pr3.sol\":257:264  _amount */\n      dup5\n        /* \"tests/30_day project/day1/pr3.sol\":266:274  _message */\n      dup5\n        /* \"tests/30_day project/day1/pr3.sol\":276:282  _nonce */\n      dup5\n        /* \"tests/30_day project/day1/pr3.sol\":233:283  abi.encodePacked(_addr, _amount, _message, _nonce) */\n      add(0x20, mload(0x40))\n      tag_20\n      swap5\n      swap4\n      swap3\n      swap2\n      swap1\n      tag_21\n      jump\t// in\n    tag_20:\n      mload(0x40)\n      0x20\n      dup2\n      dup4\n      sub\n      sub\n      dup2\n      mstore\n      swap1\n      0x40\n      mstore\n        /* \"tests/30_day project/day1/pr3.sol\":223:284  keccak256(abi.encodePacked(_addr, _amount, _message, _nonce)) */\n      dup1\n      mload\n      swap1\n      0x20\n      add\n      keccak256\n        /* \"tests/30_day project/day1/pr3.sol\":216:284  return keccak256(abi.encodePacked(_addr, _amount, _message, _nonce)) */\n      swap1\n      pop\n        /* \"tests/30_day project/day1/pr3.sol\":90:292  function hashgenerate(address _addr, uint _amount, string memory _message, uint _nonce)public pure returns(bytes32){... */\n      swap5\n      swap4\n      pop\n      pop\n      pop\n      pop\n      jump\t// out\n        /* \"#utility.yul\":7:82   */\n    tag_22:\n        /* \"#utility.yul\":40:46   */\n      0x00\n        /* \"#utility.yul\":73:75   */\n      0x40\n        /* \"#utility.yul\":67:76   */\n      mload\n        /* \"#utility.yul\":57:76   */\n      swap1\n      pop\n        /* \"#utility.yul\":7:82   */\n      swap1\n      jump\t// out\n        /* \"#utility.yul\":88:205   */\n    tag_23:\n        /* \"#utility.yul\":197:198   */\n      0x00\n        /* \"#utility.yul\":194:195   */\n      dup1\n        /* \"#utility.yul\":187:199   */\n      revert\n        /* \"#utility.yul\":211:328   */\n    tag_24:\n        /* \"#utility.yul\":320:321   */\n      0x00\n        /* \"#utility.yul\":317:318   */\n      dup1\n        /* \"#utility.yul\":310:322   */\n      revert\n        /* \"#utility.yul\":334:411   */\n    tag_25:\n        /* \"#utility.yul\":371:378   */\n      0x00\n        /* \"#utility.yul\":400:405   */\n      dup2\n        /* \"#utility.yul\":389:405   */\n      swap1\n      pop\n        /* \"#utility.yul\":334:411   */\n      swap2\n      swap1\n      pop\n      jump\t// out\n        /* \"#utility.yul\":417:539   */\n    tag_26:\n        /* \"#utility.yul\":490:514   */\n      tag_66\n        /* \"#utility.yul\":508:513   */\n      dup2\n        /* \"#utility.yul\":490:514   */\n      tag_25\n      jump\t// in\n    tag_66:\n        /* \"#utility.yul\":483:488   */\n      dup2\n        /* \"#utility.yul\":480:515   */\n      eq\n        /* \"#utility.yul\":470:533   */\n      tag_67\n      jumpi\n        /* \"#utility.yul\":529:530   */\n      0x00\n        /* \"#utility.yul\":526:527   */\n      dup1\n        /* \"#utility.yul\":519:531   */\n      revert\n        /* \"#utility.yul\":470:533   */\n    tag_67:\n        /* \"#utility.yul\":417:539   */\n      pop\n      jump\t// out\n        /* \"#utility.yul\":545:684   */\n    tag_27:\n        /* \"#utility.yul\":591:596   */\n      0x00\n        /* \"#utility.yul\":629:635   */\n      dup2\n        /* \"#utility.yul\":616:636   */\n      calldataload\n        /* \"#utility.yul\":607:636   */\n      swap1\n      pop\n        /* \"#utility.yul\":645:678   */\n      tag_69\n        /* \"#utility.yul\":672:677   */\n      dup2\n        /* \"#utility.yul\":645:678   */\n      tag_26\n      jump\t// in\n    tag_69:\n        /* \"#utility.yul\":545:684   */\n      swap3\n      swap2\n      pop\n      pop\n      jump\t// out\n        /* \"#utility.yul\":690:1019   */\n    tag_7:\n        /* \"#utility.yul\":749:755   */\n      0x00\n        /* \"#utility.yul\":798:800   */\n      0x20\n        /* \"#utility.yul\":786:795   */\n      dup3\n        /* \"#utility.yul\":777:784   */\n      dup5\n        /* \"#utility.yul\":773:796   */\n      sub\n        /* \"#utility.yul\":769:801   */\n      slt\n        /* \"#utility.yul\":766:885   */\n      iszero\n      tag_71\n      jumpi\n        /* \"#utility.yul\":804:883   */\n      tag_72\n      tag_23\n      jump\t// in\n    tag_72:\n        /* \"#utility.yul\":766:885   */\n    tag_71:\n        /* \"#utility.yul\":924:925   */\n      0x00\n        /* \"#utility.yul\":949:1002   */\n      tag_73\n        /* \"#utility.yul\":994:1001   */\n      dup5\n        /* \"#utility.yul\":985:991   */\n      dup3\n        /* \"#utility.yul\":974:983   */\n      dup6\n        /* \"#utility.yul\":970:992   */\n      add\n        /* \"#utility.yul\":949:1002   */\n      tag_27\n      jump\t// in\n    tag_73:\n        /* \"#utility.yul\":939:1002   */\n      swap2\n      pop\n        /* \"#utility.yul\":895:1012   */\n      pop\n        /* \"#utility.yul\":690:1019   */\n      swap3\n      swap2\n      pop\n      pop\n      jump\t// out\n        /* \"#utility.yul\":1025:1143   */\n    tag_28:\n        /* \"#utility.yul\":1112:1136   */\n      tag_75\n        /* \"#utility.yul\":1130:1135   */\n      dup2\n        /* \"#utility.yul\":1112:1136   */\n      tag_25\n      jump\t// in\n    tag_75:\n        /* \"#utility.yul\":1107:1110   */\n      dup3\n        /* \"#utility.yul\":1100:1137   */\n      mstore\n        /* \"#utility.yul\":1025:1143   */\n      pop\n      pop\n      jump\t// out\n        /* \"#utility.yul\":1149:1371   */\n    tag_10:\n        /* \"#utility.yul\":1242:1246   */\n      0x00\n        /* \"#utility.yul\":1280:1282   */\n      0x20\n        /* \"#utility.yul\":1269:1278   */\n      dup3\n        /* \"#utility.yul\":1265:1283   */\n      add\n        /* \"#utility.yul\":1257:1283   */\n      swap1\n      pop\n        /* \"#utility.yul\":1293:1364   */\n      tag_77\n        /* \"#utility.yul\":1361:1362   */\n      0x00\n        /* \"#utility.yul\":1350:1359   */\n      dup4\n        /* \"#utility.yul\":1346:1363   */\n      add\n        /* \"#utility.yul\":1337:1343   */\n      dup5\n        /* \"#utility.yul\":1293:1364   */\n      tag_28\n      jump\t// in\n    tag_77:\n        /* \"#utility.yul\":1149:1371   */\n      swap3\n      swap2\n      pop\n      pop\n      jump\t// out\n        /* \"#utility.yul\":1377:1503   */\n    tag_29:\n        /* \"#utility.yul\":1414:1421   */\n      0x00\n        /* \"#utility.yul\":1454:1496   */\n      0xffffffffffffffffffffffffffffffffffffffff\n        /* \"#utility.yul\":1447:1452   */\n      dup3\n        /* \"#utility.yul\":1443:1497   */\n      and\n        /* \"#utility.yul\":1432:1497   */\n      swap1\n      pop\n        /* \"#utility.yul\":1377:1503   */\n      swap2\n      swap1\n      pop\n      jump\t// out\n        /* \"#utility.yul\":1509:1605   */\n    tag_30:\n        /* \"#utility.yul\":1546:1553   */\n      0x00\n        /* \"#utility.yul\":1575:1599   */\n      tag_80\n        /* \"#utility.yul\":1593:1598   */\n      dup3\n        /* \"#utility.yul\":1575:1599   */\n      tag_29\n      jump\t// in\n    tag_80:\n        /* \"#utility.yul\":1564:1599   */\n      swap1\n      pop\n        /* \"#utility.yul\":1509:1605   */\n      swap2\n      swap1\n      pop\n      jump\t// out\n        /* \"#utility.yul\":1611:1733   */\n    tag_31:\n        /* \"#utility.yul\":1684:1708   */\n      tag_82\n        /* \"#utility.yul\":1702:1707   */\n      dup2\n        /* \"#utility.yul\":1684:1708   */\n      tag_30\n      jump\t// in\n    tag_82:\n        /* \"#utility.yul\":1677:1682   */\n      dup2\n        /* \"#utility.yul\":1674:1709   */\n      eq\n        /* \"#utility.yul\":1664:1727   */\n      tag_83\n      jumpi\n        /* \"#utility.yul\":1723:1724   */\n      0x00\n        /* \"#utility.yul\":1720:1721   */\n      dup1\n        /* \"#utility.yul\":1713:1725   */\n      revert\n        /* \"#utility.yul\":1664:1727   */\n    tag_83:\n        /* \"#utility.yul\":1611:1733   */\n      pop\n      jump\t// out\n        /* \"#utility.yul\":1739:1878   */\n    tag_32:\n        /* \"#utility.yul\":1785:1790   */\n      0x00\n        /* \"#utility.yul\":1823:1829   */\n      dup2\n        /* \"#utility.yul\":1810:1830   */\n      calldataload\n        /* \"#utility.yul\":1801:1830   */\n      swap1\n      pop\n        /* \"#utility.yul\":1839:1872   */\n      tag_85\n        /* \"#utility.yul\":1866:1871   */\n      dup2\n        /* \"#utility.yul\":1839:1872   */\n      tag_31\n      jump\t// in\n    tag_85:\n        /* \"#utility.yul\":1739:1878   */\n      swap3\n      swap2\n      pop\n      pop\n      jump\t// out\n        /* \"#utility.yul\":1884:1961   */\n    tag_33:\n        /* \"#utility.yul\":1921:1928   */\n      0x00\n        /* \"#utility.yul\":1950:1955   */\n      dup2\n        /* \"#utility.yul\":1939:1955   */\n      swap1\n      pop\n        /* \"#utility.yul\":1884:1961   */\n      swap2\n      swap1\n      pop\n      jump\t// out\n        /* \"#utility.yul\":1967:2089   */\n    tag_34:\n        /* \"#utility.yul\":2040:2064   */\n      tag_88\n        /* \"#utility.yul\":2058:2063   */\n      dup2\n        /* \"#utility.yul\":2040:2064   */\n      tag_33\n      jump\t// in\n    tag_88:\n        /* \"#utility.yul\":2033:2038   */\n      dup2\n        /* \"#utility.yul\":2030:2065   */\n      eq\n        /* \"#utility.yul\":2020:2083   */\n      tag_89\n      jumpi\n        /* \"#utility.yul\":2079:2080   */\n      0x00\n        /* \"#utility.yul\":2076:2077   */\n      dup1\n        /* \"#utility.yul\":2069:2081   */\n      revert\n        /* \"#utility.yul\":2020:2083   */\n    tag_89:\n        /* \"#utility.yul\":1967:2089   */\n      pop\n      jump\t// out\n        /* \"#utility.yul\":2095:2234   */\n    tag_35:\n        /* \"#utility.yul\":2141:2146   */\n      0x00\n        /* \"#utility.yul\":2179:2185   */\n      dup2\n        /* \"#utility.yul\":2166:2186   */\n      calldataload\n        /* \"#utility.yul\":2157:2186   */\n      swap1\n      pop\n        /* \"#utility.yul\":2195:2228   */\n      tag_91\n        /* \"#utility.yul\":2222:2227   */\n      dup2\n        /* \"#utility.yul\":2195:2228   */\n      tag_34\n      jump\t// in\n    tag_91:\n        /* \"#utility.yul\":2095:2234   */\n      swap3\n      swap2\n      pop\n      pop\n      jump\t// out\n        /* \"#utility.yul\":2240:2357   */\n    tag_36:\n        /* \"#utility.yul\":2349:2350   */\n      0x00\n        /* \"#utility.yul\":2346:2347   */\n      dup1\n        /* \"#utility.yul\":2339:2351   */\n      revert\n        /* \"#utility.yul\":2363:2480   */\n    tag_37:\n        /* \"#utility.yul\":2472:2473   */\n      0x00\n        /* \"#utility.yul\":2469:2470   */\n      dup1\n        /* \"#utility.yul\":2462:2474   */\n      revert\n        /* \"#utility.yul\":2486:2588   */\n    tag_38:\n        /* \"#utility.yul\":2527:2533   */\n      0x00\n        /* \"#utility.yul\":2578:2580   */\n      0x1f\n        /* \"#utility.yul\":2574:2581   */\n      not\n        /* \"#utility.yul\":2569:2571   */\n      0x1f\n        /* \"#utility.yul\":2562:2567   */\n      dup4\n        /* \"#utility.yul\":2558:2572   */\n      add\n        /* \"#utility.yul\":2554:2582   */\n      and\n        /* \"#utility.yul\":2544:2582   */\n      swap1\n      pop\n        /* \"#utility.yul\":2486:2588   */\n      swap2\n      swap1\n      pop\n      jump\t// out\n        /* \"#utility.yul\":2594:2774   */\n    tag_39:\n        /* \"#utility.yul\":2642:2719   */\n      0x4e487b7100000000000000000000000000000000000000000000000000000000\n        /* \"#utility.yul\":2639:2640   */\n      0x00\n        /* \"#utility.yul\":2632:2720   */\n      mstore\n        /* \"#utility.yul\":2739:2743   */\n      0x41\n        /* \"#utility.yul\":2736:2737   */\n      0x04\n        /* \"#utility.yul\":2729:2744   */\n      mstore\n        /* \"#utility.yul\":2763:2767   */\n      0x24\n        /* \"#utility.yul\":2760:2761   */\n      0x00\n        /* \"#utility.yul\":2753:2768   */\n      revert\n        /* \"#utility.yul\":2780:3061   */\n    tag_40:\n        /* \"#utility.yul\":2863:2890   */\n      tag_97\n        /* \"#utility.yul\":2885:2889   */\n      dup3\n        /* \"#utility.yul\":2863:2890   */\n      tag_38\n      jump\t// in\n    tag_97:\n        /* \"#utility.yul\":2855:2861   */\n      dup2\n        /* \"#utility.yul\":2851:2891   */\n      add\n        /* \"#utility.yul\":2993:2999   */\n      dup2\n        /* \"#utility.yul\":2981:2991   */\n      dup2\n        /* \"#utility.yul\":2978:3000   */\n      lt\n        /* \"#utility.yul\":2957:2975   */\n      0xffffffffffffffff\n        /* \"#utility.yul\":2945:2955   */\n      dup3\n        /* \"#utility.yul\":2942:2976   */\n      gt\n        /* \"#utility.yul\":2939:3001   */\n      or\n        /* \"#utility.yul\":2936:3024   */\n      iszero\n      tag_98\n      jumpi\n        /* \"#utility.yul\":3004:3022   */\n      tag_99\n      tag_39\n      jump\t// in\n    tag_99:\n        /* \"#utility.yul\":2936:3024   */\n    tag_98:\n        /* \"#utility.yul\":3044:3054   */\n      dup1\n        /* \"#utility.yul\":3040:3042   */\n      0x40\n        /* \"#utility.yul\":3033:3055   */\n      mstore\n        /* \"#utility.yul\":2823:3061   */\n      pop\n        /* \"#utility.yul\":2780:3061   */\n      pop\n      pop\n      jump\t// out\n        /* \"#utility.yul\":3067:3196   */\n    tag_41:\n        /* \"#utility.yul\":3101:3107   */\n      0x00\n        /* \"#utility.yul\":3128:3148   */\n      tag_101\n      tag_22\n      jump\t// in\n    tag_101:\n        /* \"#utility.yul\":3118:3148   */\n      swap1\n      pop\n        /* \"#utility.yul\":3157:3190   */\n      tag_102\n        /* \"#utility.yul\":3185:3189   */\n      dup3\n        /* \"#utility.yul\":3177:3183   */\n      dup3\n        /* \"#utility.yul\":3157:3190   */\n      tag_40\n      jump\t// in\n    tag_102:\n        /* \"#utility.yul\":3067:3196   */\n      swap2\n      swap1\n      pop\n      jump\t// out\n        /* \"#utility.yul\":3202:3510   */\n    tag_42:\n        /* \"#utility.yul\":3264:3268   */\n      0x00\n        /* \"#utility.yul\":3354:3372   */\n      0xffffffffffffffff\n        /* \"#utility.yul\":3346:3352   */\n      dup3\n        /* \"#utility.yul\":3343:3373   */\n      gt\n        /* \"#utility.yul\":3340:3396   */\n      iszero\n      tag_104\n      jumpi\n        /* \"#utility.yul\":3376:3394   */\n      tag_105\n      tag_39\n      jump\t// in\n    tag_105:\n        /* \"#utility.yul\":3340:3396   */\n    tag_104:\n        /* \"#utility.yul\":3414:3443   */\n      tag_106\n        /* \"#utility.yul\":3436:3442   */\n      dup3\n        /* \"#utility.yul\":3414:3443   */\n      tag_38\n      jump\t// in\n    tag_106:\n        /* \"#utility.yul\":3406:3443   */\n      swap1\n      pop\n        /* \"#utility.yul\":3498:3502   */\n      0x20\n        /* \"#utility.yul\":3492:3496   */\n      dup2\n        /* \"#utility.yul\":3488:3503   */\n      add\n        /* \"#utility.yul\":3480:3503   */\n      swap1\n      pop\n        /* \"#utility.yul\":3202:3510   */\n      swap2\n      swap1\n      pop\n      jump\t// out\n        /* \"#utility.yul\":3516:3662   */\n    tag_43:\n        /* \"#utility.yul\":3613:3619   */\n      dup3\n        /* \"#utility.yul\":3608:3611   */\n      dup2\n        /* \"#utility.yul\":3603:3606   */\n      dup4\n        /* \"#utility.yul\":3590:3620   */\n      calldatacopy\n        /* \"#utility.yul\":3654:3655   */\n      0x00\n        /* \"#utility.yul\":3645:3651   */\n      dup4\n        /* \"#utility.yul\":3640:3643   */\n      dup4\n        /* \"#utility.yul\":3636:3652   */\n      add\n        /* \"#utility.yul\":3629:3656   */\n      mstore\n        /* \"#utility.yul\":3516:3662   */\n      pop\n      pop\n      pop\n      jump\t// out\n        /* \"#utility.yul\":3668:4093   */\n    tag_44:\n        /* \"#utility.yul\":3746:3751   */\n      0x00\n        /* \"#utility.yul\":3771:3837   */\n      tag_109\n        /* \"#utility.yul\":3787:3836   */\n      tag_110\n        /* \"#utility.yul\":3829:3835   */\n      dup5\n        /* \"#utility.yul\":3787:3836   */\n      tag_42\n      jump\t// in\n    tag_110:\n        /* \"#utility.yul\":3771:3837   */\n      tag_41\n      jump\t// in\n    tag_109:\n        /* \"#utility.yul\":3762:3837   */\n      swap1\n      pop\n        /* \"#utility.yul\":3860:3866   */\n      dup3\n        /* \"#utility.yul\":3853:3858   */\n      dup2\n        /* \"#utility.yul\":3846:3867   */\n      mstore\n        /* \"#utility.yul\":3898:3902   */\n      0x20\n        /* \"#utility.yul\":3891:3896   */\n      dup2\n        /* \"#utility.yul\":3887:3903   */\n      add\n        /* \"#utility.yul\":3936:3939   */\n      dup5\n        /* \"#utility.yul\":3927:3933   */\n      dup5\n        /* \"#utility.yul\":3922:3925   */\n      dup5\n        /* \"#utility.yul\":3918:3934   */\n      add\n        /* \"#utility.yul\":3915:3940   */\n      gt\n        /* \"#utility.yul\":3912:4024   */\n      iszero\n      tag_111\n      jumpi\n        /* \"#utility.yul\":3943:4022   */\n      tag_112\n      tag_37\n      jump\t// in\n    tag_112:\n        /* \"#utility.yul\":3912:4024   */\n    tag_111:\n        /* \"#utility.yul\":4033:4087   */\n      tag_113\n        /* \"#utility.yul\":4080:4086   */\n      dup5\n        /* \"#utility.yul\":4075:4078   */\n      dup3\n        /* \"#utility.yul\":4070:4073   */\n      dup6\n        /* \"#utility.yul\":4033:4087   */\n      tag_43\n      jump\t// in\n    tag_113:\n        /* \"#utility.yul\":3752:4093   */\n      pop\n        /* \"#utility.yul\":3668:4093   */\n      swap4\n      swap3\n      pop\n      pop\n      pop\n      jump\t// out\n        /* \"#utility.yul\":4113:4453   */\n    tag_45:\n        /* \"#utility.yul\":4169:4174   */\n      0x00\n        /* \"#utility.yul\":4218:4221   */\n      dup3\n        /* \"#utility.yul\":4211:4215   */\n      0x1f\n        /* \"#utility.yul\":4203:4209   */\n      dup4\n        /* \"#utility.yul\":4199:4216   */\n      add\n        /* \"#utility.yul\":4195:4222   */\n      slt\n        /* \"#utility.yul\":4185:4307   */\n      tag_115\n      jumpi\n        /* \"#utility.yul\":4226:4305   */\n      tag_116\n      tag_36\n      jump\t// in\n    tag_116:\n        /* \"#utility.yul\":4185:4307   */\n    tag_115:\n        /* \"#utility.yul\":4343:4349   */\n      dup2\n        /* \"#utility.yul\":4330:4350   */\n      calldataload\n        /* \"#utility.yul\":4368:4447   */\n      tag_117\n        /* \"#utility.yul\":4443:4446   */\n      dup5\n        /* \"#utility.yul\":4435:4441   */\n      dup3\n        /* \"#utility.yul\":4428:4432   */\n      0x20\n        /* \"#utility.yul\":4420:4426   */\n      dup7\n        /* \"#utility.yul\":4416:4433   */\n      add\n        /* \"#utility.yul\":4368:4447   */\n      tag_44\n      jump\t// in\n    tag_117:\n        /* \"#utility.yul\":4359:4447   */\n      swap2\n      pop\n        /* \"#utility.yul\":4175:4453   */\n      pop\n        /* \"#utility.yul\":4113:4453   */\n      swap3\n      swap2\n      pop\n      pop\n      jump\t// out\n        /* \"#utility.yul\":4459:5404   */\n    tag_13:\n        /* \"#utility.yul\":4555:4561   */\n      0x00\n        /* \"#utility.yul\":4563:4569   */\n      dup1\n        /* \"#utility.yul\":4571:4577   */\n      0x00\n        /* \"#utility.yul\":4579:4585   */\n      dup1\n        /* \"#utility.yul\":4628:4631   */\n      0x80\n        /* \"#utility.yul\":4616:4625   */\n      dup6\n        /* \"#utility.yul\":4607:4614   */\n      dup8\n        /* \"#utility.yul\":4603:4626   */\n      sub\n        /* \"#utility.yul\":4599:4632   */\n      slt\n        /* \"#utility.yul\":4596:4716   */\n      iszero\n      tag_119\n      jumpi\n        /* \"#utility.yul\":4635:4714   */\n      tag_120\n      tag_23\n      jump\t// in\n    tag_120:\n        /* \"#utility.yul\":4596:4716   */\n    tag_119:\n        /* \"#utility.yul\":4755:4756   */\n      0x00\n        /* \"#utility.yul\":4780:4833   */\n      tag_121\n        /* \"#utility.yul\":4825:4832   */\n      dup8\n        /* \"#utility.yul\":4816:4822   */\n      dup3\n        /* \"#utility.yul\":4805:4814   */\n      dup9\n        /* \"#utility.yul\":4801:4823   */\n      add\n        /* \"#utility.yul\":4780:4833   */\n      tag_32\n      jump\t// in\n    tag_121:\n        /* \"#utility.yul\":4770:4833   */\n      swap5\n      pop\n        /* \"#utility.yul\":4726:4843   */\n      pop\n        /* \"#utility.yul\":4882:4884   */\n      0x20\n        /* \"#utility.yul\":4908:4961   */\n      tag_122\n        /* \"#utility.yul\":4953:4960   */\n      dup8\n        /* \"#utility.yul\":4944:4950   */\n      dup3\n        /* \"#utility.yul\":4933:4942   */\n      dup9\n        /* \"#utility.yul\":4929:4951   */\n      add\n        /* \"#utility.yul\":4908:4961   */\n      tag_35\n      jump\t// in\n    tag_122:\n        /* \"#utility.yul\":4898:4961   */\n      swap4\n      pop\n        /* \"#utility.yul\":4853:4971   */\n      pop\n        /* \"#utility.yul\":5038:5040   */\n      0x40\n        /* \"#utility.yul\":5027:5036   */\n      dup6\n        /* \"#utility.yul\":5023:5041   */\n      add\n        /* \"#utility.yul\":5010:5042   */\n      calldataload\n        /* \"#utility.yul\":5069:5087   */\n      0xffffffffffffffff\n        /* \"#utility.yul\":5061:5067   */\n      dup2\n        /* \"#utility.yul\":5058:5088   */\n      gt\n        /* \"#utility.yul\":5055:5172   */\n      iszero\n      tag_123\n      jumpi\n        /* \"#utility.yul\":5091:5170   */\n      tag_124\n      tag_24\n      jump\t// in\n    tag_124:\n        /* \"#utility.yul\":5055:5172   */\n    tag_123:\n        /* \"#utility.yul\":5196:5259   */\n      tag_125\n        /* \"#utility.yul\":5251:5258   */\n      dup8\n        /* \"#utility.yul\":5242:5248   */\n      dup3\n        /* \"#utility.yul\":5231:5240   */\n      dup9\n        /* \"#utility.yul\":5227:5249   */\n      add\n        /* \"#utility.yul\":5196:5259   */\n      tag_45\n      jump\t// in\n    tag_125:\n        /* \"#utility.yul\":5186:5259   */\n      swap3\n      pop\n        /* \"#utility.yul\":4981:5269   */\n      pop\n        /* \"#utility.yul\":5308:5310   */\n      0x60\n        /* \"#utility.yul\":5334:5387   */\n      tag_126\n        /* \"#utility.yul\":5379:5386   */\n      dup8\n        /* \"#utility.yul\":5370:5376   */\n      dup3\n        /* \"#utility.yul\":5359:5368   */\n      dup9\n        /* \"#utility.yul\":5355:5377   */\n      add\n        /* \"#utility.yul\":5334:5387   */\n      tag_35\n      jump\t// in\n    tag_126:\n        /* \"#utility.yul\":5324:5387   */\n      swap2\n      pop\n        /* \"#utility.yul\":5279:5397   */\n      pop\n        /* \"#utility.yul\":4459:5404   */\n      swap3\n      swap6\n      swap2\n      swap5\n      pop\n      swap3\n      pop\n      jump\t// out\n        /* \"#utility.yul\":5410:5558   */\n    tag_46:\n        /* \"#utility.yul\":5512:5523   */\n      0x00\n        /* \"#utility.yul\":5549:5552   */\n      dup2\n        /* \"#utility.yul\":5534:5552   */\n      swap1\n      pop\n        /* \"#utility.yul\":5410:5558   */\n      swap3\n      swap2\n      pop\n      pop\n      jump\t// out\n        /* \"#utility.yul\":5564:5778   */\n    tag_47:\n        /* \"#utility.yul\":5704:5770   */\n      0x19457468657265756d205369676e6564204d6573736167650a33320000000000\n        /* \"#utility.yul\":5700:5701   */\n      0x00\n        /* \"#utility.yul\":5692:5698   */\n      dup3\n        /* \"#utility.yul\":5688:5702   */\n      add\n        /* \"#utility.yul\":5681:5771   */\n      mstore\n        /* \"#utility.yul\":5564:5778   */\n      pop\n      jump\t// out\n        /* \"#utility.yul\":5784:6186   */\n    tag_48:\n        /* \"#utility.yul\":5944:5947   */\n      0x00\n        /* \"#utility.yul\":5965:6050   */\n      tag_130\n        /* \"#utility.yul\":6047:6049   */\n      0x1b\n        /* \"#utility.yul\":6042:6045   */\n      dup4\n        /* \"#utility.yul\":5965:6050   */\n      tag_46\n      jump\t// in\n    tag_130:\n        /* \"#utility.yul\":5958:6050   */\n      swap2\n      pop\n        /* \"#utility.yul\":6059:6152   */\n      tag_131\n        /* \"#utility.yul\":6148:6151   */\n      dup3\n        /* \"#utility.yul\":6059:6152   */\n      tag_47\n      jump\t// in\n    tag_131:\n        /* \"#utility.yul\":6177:6179   */\n      0x1b\n        /* \"#utility.yul\":6172:6175   */\n      dup3\n        /* \"#utility.yul\":6168:6180   */\n      add\n        /* \"#utility.yul\":6161:6180   */\n      swap1\n      pop\n        /* \"#utility.yul\":5784:6186   */\n      swap2\n      swap1\n      pop\n      jump\t// out\n        /* \"#utility.yul\":6192:6271   */\n    tag_49:\n        /* \"#utility.yul\":6231:6238   */\n      0x00\n        /* \"#utility.yul\":6260:6265   */\n      dup2\n        /* \"#utility.yul\":6249:6265   */\n      swap1\n      pop\n        /* \"#utility.yul\":6192:6271   */\n      swap2\n      swap1\n      pop\n      jump\t// out\n        /* \"#utility.yul\":6277:6434   */\n    tag_50:\n        /* \"#utility.yul\":6382:6427   */\n      tag_134\n        /* \"#utility.yul\":6402:6426   */\n      tag_135\n        /* \"#utility.yul\":6420:6425   */\n      dup3\n        /* \"#utility.yul\":6402:6426   */\n      tag_25\n      jump\t// in\n    tag_135:\n        /* \"#utility.yul\":6382:6427   */\n      tag_49\n      jump\t// in\n    tag_134:\n        /* \"#utility.yul\":6377:6380   */\n      dup3\n        /* \"#utility.yul\":6370:6428   */\n      mstore\n        /* \"#utility.yul\":6277:6434   */\n      pop\n      pop\n      jump\t// out\n        /* \"#utility.yul\":6440:6962   */\n    tag_18:\n        /* \"#utility.yul\":6653:6656   */\n      0x00\n        /* \"#utility.yul\":6675:6823   */\n      tag_137\n        /* \"#utility.yul\":6819:6822   */\n      dup3\n        /* \"#utility.yul\":6675:6823   */\n      tag_48\n      jump\t// in\n    tag_137:\n        /* \"#utility.yul\":6668:6823   */\n      swap2\n      pop\n        /* \"#utility.yul\":6833:6908   */\n      tag_138\n        /* \"#utility.yul\":6904:6907   */\n      dup3\n        /* \"#utility.yul\":6895:6901   */\n      dup5\n        /* \"#utility.yul\":6833:6908   */\n      tag_50\n      jump\t// in\n    tag_138:\n        /* \"#utility.yul\":6933:6935   */\n      0x20\n        /* \"#utility.yul\":6928:6931   */\n      dup3\n        /* \"#utility.yul\":6924:6936   */\n      add\n        /* \"#utility.yul\":6917:6936   */\n      swap2\n      pop\n        /* \"#utility.yul\":6953:6956   */\n      dup2\n        /* \"#utility.yul\":6946:6956   */\n      swap1\n      pop\n        /* \"#utility.yul\":6440:6962   */\n      swap3\n      swap2\n      pop\n      pop\n      jump\t// out\n        /* \"#utility.yul\":6968:7062   */\n    tag_51:\n        /* \"#utility.yul\":7001:7009   */\n      0x00\n        /* \"#utility.yul\":7049:7054   */\n      dup2\n        /* \"#utility.yul\":7045:7047   */\n      0x60\n        /* \"#utility.yul\":7041:7055   */\n      shl\n        /* \"#utility.yul\":7020:7055   */\n      swap1\n      pop\n        /* \"#utility.yul\":6968:7062   */\n      swap2\n      swap1\n      pop\n      jump\t// out\n        /* \"#utility.yul\":7068:7162   */\n    tag_52:\n        /* \"#utility.yul\":7107:7114   */\n      0x00\n        /* \"#utility.yul\":7136:7156   */\n      tag_141\n        /* \"#utility.yul\":7150:7155   */\n      dup3\n        /* \"#utility.yul\":7136:7156   */\n      tag_51\n      jump\t// in\n    tag_141:\n        /* \"#utility.yul\":7125:7156   */\n      swap1\n      pop\n        /* \"#utility.yul\":7068:7162   */\n      swap2\n      swap1\n      pop\n      jump\t// out\n        /* \"#utility.yul\":7168:7268   */\n    tag_53:\n        /* \"#utility.yul\":7207:7214   */\n      0x00\n        /* \"#utility.yul\":7236:7262   */\n      tag_143\n        /* \"#utility.yul\":7256:7261   */\n      dup3\n        /* \"#utility.yul\":7236:7262   */\n      tag_52\n      jump\t// in\n    tag_143:\n        /* \"#utility.yul\":7225:7262   */\n      swap1\n      pop\n        /* \"#utility.yul\":7168:7268   */\n      swap2\n      swap1\n      pop\n      jump\t// out\n        /* \"#utility.yul\":7274:7431   */\n    tag_54:\n        /* \"#utility.yul\":7379:7424   */\n      tag_145\n        /* \"#utility.yul\":7399:7423   */\n      tag_146\n        /* \"#utility.yul\":7417:7422   */\n      dup3\n        /* \"#utility.yul\":7399:7423   */\n      tag_30\n      jump\t// in\n    tag_146:\n        /* \"#utility.yul\":7379:7424   */\n      tag_53\n      jump\t// in\n    tag_145:\n        /* \"#utility.yul\":7374:7377   */\n      dup3\n        /* \"#utility.yul\":7367:7425   */\n      mstore\n        /* \"#utility.yul\":7274:7431   */\n      pop\n      pop\n      jump\t// out\n        /* \"#utility.yul\":7437:7516   */\n    tag_55:\n        /* \"#utility.yul\":7476:7483   */\n      0x00\n        /* \"#utility.yul\":7505:7510   */\n      dup2\n        /* \"#utility.yul\":7494:7510   */\n      swap1\n      pop\n        /* \"#utility.yul\":7437:7516   */\n      swap2\n      swap1\n      pop\n      jump\t// out\n        /* \"#utility.yul\":7522:7679   */\n    tag_56:\n        /* \"#utility.yul\":7627:7672   */\n      tag_149\n        /* \"#utility.yul\":7647:7671   */\n      tag_150\n        /* \"#utility.yul\":7665:7670   */\n      dup3\n        /* \"#utility.yul\":7647:7671   */\n      tag_33\n      jump\t// in\n    tag_150:\n        /* \"#utility.yul\":7627:7672   */\n      tag_55\n      jump\t// in\n    tag_149:\n        /* \"#utility.yul\":7622:7625   */\n      dup3\n        /* \"#utility.yul\":7615:7673   */\n      mstore\n        /* \"#utility.yul\":7522:7679   */\n      pop\n      pop\n      jump\t// out\n        /* \"#utility.yul\":7685:7784   */\n    tag_57:\n        /* \"#utility.yul\":7737:7743   */\n      0x00\n        /* \"#utility.yul\":7771:7776   */\n      dup2\n        /* \"#utility.yul\":7765:7777   */\n      mload\n        /* \"#utility.yul\":7755:7777   */\n      swap1\n      pop\n        /* \"#utility.yul\":7685:7784   */\n      swap2\n      swap1\n      pop\n      jump\t// out\n        /* \"#utility.yul\":7790:8036   */\n    tag_58:\n        /* \"#utility.yul\":7871:7872   */\n      0x00\n        /* \"#utility.yul\":7881:7994   */\n    tag_153:\n        /* \"#utility.yul\":7895:7901   */\n      dup4\n        /* \"#utility.yul\":7892:7893   */\n      dup2\n        /* \"#utility.yul\":7889:7902   */\n      lt\n        /* \"#utility.yul\":7881:7994   */\n      iszero\n      tag_155\n      jumpi\n        /* \"#utility.yul\":7980:7981   */\n      dup1\n        /* \"#utility.yul\":7975:7978   */\n      dup3\n        /* \"#utility.yul\":7971:7982   */\n      add\n        /* \"#utility.yul\":7965:7983   */\n      mload\n        /* \"#utility.yul\":7961:7962   */\n      dup2\n        /* \"#utility.yul\":7956:7959   */\n      dup5\n        /* \"#utility.yul\":7952:7963   */\n      add\n        /* \"#utility.yul\":7945:7984   */\n      mstore\n        /* \"#utility.yul\":7917:7919   */\n      0x20\n        /* \"#utility.yul\":7914:7915   */\n      dup2\n        /* \"#utility.yul\":7910:7920   */\n      add\n        /* \"#utility.yul\":7905:7920   */\n      swap1\n      pop\n        /* \"#utility.yul\":7881:7994   */\n      jump(tag_153)\n    tag_155:\n        /* \"#utility.yul\":8028:8029   */\n      0x00\n        /* \"#utility.yul\":8019:8025   */\n      dup5\n        /* \"#utility.yul\":8014:8017   */\n      dup5\n        /* \"#utility.yul\":8010:8026   */\n      add\n        /* \"#utility.yul\":8003:8030   */\n      mstore\n        /* \"#utility.yul\":7852:8036   */\n      pop\n        /* \"#utility.yul\":7790:8036   */\n      pop\n      pop\n      pop\n      jump\t// out\n        /* \"#utility.yul\":8042:8432   */\n    tag_59:\n        /* \"#utility.yul\":8148:8151   */\n      0x00\n        /* \"#utility.yul\":8176:8215   */\n      tag_157\n        /* \"#utility.yul\":8209:8214   */\n      dup3\n        /* \"#utility.yul\":8176:8215   */\n      tag_57\n      jump\t// in\n    tag_157:\n        /* \"#utility.yul\":8231:8320   */\n      tag_158\n        /* \"#utility.yul\":8313:8319   */\n      dup2\n        /* \"#utility.yul\":8308:8311   */\n      dup6\n        /* \"#utility.yul\":8231:8320   */\n      tag_46\n      jump\t// in\n    tag_158:\n        /* \"#utility.yul\":8224:8320   */\n      swap4\n      pop\n        /* \"#utility.yul\":8329:8394   */\n      tag_159\n        /* \"#utility.yul\":8387:8393   */\n      dup2\n        /* \"#utility.yul\":8382:8385   */\n      dup6\n        /* \"#utility.yul\":8375:8379   */\n      0x20\n        /* \"#utility.yul\":8368:8373   */\n      dup7\n        /* \"#utility.yul\":8364:8380   */\n      add\n        /* \"#utility.yul\":8329:8394   */\n      tag_58\n      jump\t// in\n    tag_159:\n        /* \"#utility.yul\":8419:8425   */\n      dup1\n        /* \"#utility.yul\":8414:8417   */\n      dup5\n        /* \"#utility.yul\":8410:8426   */\n      add\n        /* \"#utility.yul\":8403:8426   */\n      swap2\n      pop\n        /* \"#utility.yul\":8152:8432   */\n      pop\n        /* \"#utility.yul\":8042:8432   */\n      swap3\n      swap2\n      pop\n      pop\n      jump\t// out\n        /* \"#utility.yul\":8438:9136   */\n    tag_21:\n        /* \"#utility.yul\":8654:8657   */\n      0x00\n        /* \"#utility.yul\":8669:8744   */\n      tag_161\n        /* \"#utility.yul\":8740:8743   */\n      dup3\n        /* \"#utility.yul\":8731:8737   */\n      dup8\n        /* \"#utility.yul\":8669:8744   */\n      tag_54\n      jump\t// in\n    tag_161:\n        /* \"#utility.yul\":8769:8771   */\n      0x14\n        /* \"#utility.yul\":8764:8767   */\n      dup3\n        /* \"#utility.yul\":8760:8772   */\n      add\n        /* \"#utility.yul\":8753:8772   */\n      swap2\n      pop\n        /* \"#utility.yul\":8782:8857   */\n      tag_162\n        /* \"#utility.yul\":8853:8856   */\n      dup3\n        /* \"#utility.yul\":8844:8850   */\n      dup7\n        /* \"#utility.yul\":8782:8857   */\n      tag_56\n      jump\t// in\n    tag_162:\n        /* \"#utility.yul\":8882:8884   */\n      0x20\n        /* \"#utility.yul\":8877:8880   */\n      dup3\n        /* \"#utility.yul\":8873:8885   */\n      add\n        /* \"#utility.yul\":8866:8885   */\n      swap2\n      pop\n        /* \"#utility.yul\":8902:8997   */\n      tag_163\n        /* \"#utility.yul\":8993:8996   */\n      dup3\n        /* \"#utility.yul\":8984:8990   */\n      dup6\n        /* \"#utility.yul\":8902:8997   */\n      tag_59\n      jump\t// in\n    tag_163:\n        /* \"#utility.yul\":8895:8997   */\n      swap2\n      pop\n        /* \"#utility.yul\":9007:9082   */\n      tag_164\n        /* \"#utility.yul\":9078:9081   */\n      dup3\n        /* \"#utility.yul\":9069:9075   */\n      dup5\n        /* \"#utility.yul\":9007:9082   */\n      tag_56\n      jump\t// in\n    tag_164:\n        /* \"#utility.yul\":9107:9109   */\n      0x20\n        /* \"#utility.yul\":9102:9105   */\n      dup3\n        /* \"#utility.yul\":9098:9110   */\n      add\n        /* \"#utility.yul\":9091:9110   */\n      swap2\n      pop\n        /* \"#utility.yul\":9127:9130   */\n      dup2\n        /* \"#utility.yul\":9120:9130   */\n      swap1\n      pop\n        /* \"#utility.yul\":8438:9136   */\n      swap6\n      swap5\n      pop\n      pop\n      pop\n      pop\n      pop\n      jump\t// out\n\n    auxdata: 0xa26469706673582212202bb4d623639edb54094c036d96c33ca179919b200949c634f8aac835b8837e7764736f6c63430008180033\n}\n",
				"bytecode": {
					"linkReferences": {},
					"object": "608060405234801561000f575f80fd5b506105be8061001d5f395ff3fe608060405234801561000f575f80fd5b5060043610610034575f3560e01c80630fa56d5f1461003857806370e61ffb14610068575b5f80fd5b610052600480360381019061004d9190610143565b610098565b60405161005f919061017d565b60405180910390f35b610082600480360381019061007d919061035f565b6100c7565b60405161008f919061017d565b60405180910390f35b5f816040516020016100aa9190610453565b604051602081830303815290604052805190602001209050919050565b5f848484846040516020016100df949392919061053f565b604051602081830303815290604052805190602001209050949350505050565b5f604051905090565b5f80fd5b5f80fd5b5f819050919050565b61012281610110565b811461012c575f80fd5b50565b5f8135905061013d81610119565b92915050565b5f6020828403121561015857610157610108565b5b5f6101658482850161012f565b91505092915050565b61017781610110565b82525050565b5f6020820190506101905f83018461016e565b92915050565b5f73ffffffffffffffffffffffffffffffffffffffff82169050919050565b5f6101bf82610196565b9050919050565b6101cf816101b5565b81146101d9575f80fd5b50565b5f813590506101ea816101c6565b92915050565b5f819050919050565b610202816101f0565b811461020c575f80fd5b50565b5f8135905061021d816101f9565b92915050565b5f80fd5b5f80fd5b5f601f19601f8301169050919050565b7f4e487b71000000000000000000000000000000000000000000000000000000005f52604160045260245ffd5b6102718261022b565b810181811067ffffffffffffffff821117156102905761028f61023b565b5b80604052505050565b5f6102a26100ff565b90506102ae8282610268565b919050565b5f67ffffffffffffffff8211156102cd576102cc61023b565b5b6102d68261022b565b9050602081019050919050565b828183375f83830152505050565b5f6103036102fe846102b3565b610299565b90508281526020810184848401111561031f5761031e610227565b5b61032a8482856102e3565b509392505050565b5f82601f83011261034657610345610223565b5b81356103568482602086016102f1565b91505092915050565b5f805f806080858703121561037757610376610108565b5b5f610384878288016101dc565b94505060206103958782880161020f565b935050604085013567ffffffffffffffff8111156103b6576103b561010c565b5b6103c287828801610332565b92505060606103d38782880161020f565b91505092959194509250565b5f81905092915050565b7f19457468657265756d205369676e6564204d6573736167650a333200000000005f82015250565b5f61041d601b836103df565b9150610428826103e9565b601b82019050919050565b5f819050919050565b61044d61044882610110565b610433565b82525050565b5f61045d82610411565b9150610469828461043c565b60208201915081905092915050565b5f8160601b9050919050565b5f61048e82610478565b9050919050565b5f61049f82610484565b9050919050565b6104b76104b2826101b5565b610495565b82525050565b5f819050919050565b6104d76104d2826101f0565b6104bd565b82525050565b5f81519050919050565b5f5b838110156105045780820151818401526020810190506104e9565b5f8484015250505050565b5f610519826104dd565b61052381856103df565b93506105338185602086016104e7565b80840191505092915050565b5f61054a82876104a6565b60148201915061055a82866104c6565b60208201915061056a828561050f565b915061057682846104c6565b6020820191508190509594505050505056fea26469706673582212202bb4d623639edb54094c036d96c33ca179919b200949c634f8aac835b8837e7764736f6c63430008180033",
					"opcodes": "PUSH1 0x80 PUSH1 0x40 MSTORE CALLVALUE DUP1 ISZERO PUSH2 0xF JUMPI PUSH0 DUP1 REVERT JUMPDEST POP PUSH2 0x5BE DUP1 PUSH2 0x1D PUSH0 CODECOPY PUSH0 RETURN INVALID PUSH1 0x80 PUSH1 0x40 MSTORE CALLVALUE DUP1 ISZERO PUSH2 0xF JUMPI PUSH0 DUP1 REVERT JUMPDEST POP PUSH1 0x4 CALLDATASIZE LT PUSH2 0x34 JUMPI PUSH0 CALLDATALOAD PUSH1 0xE0 SHR DUP1 PUSH4 0xFA56D5F EQ PUSH2 0x38 JUMPI DUP1 PUSH4 0x70E61FFB EQ PUSH2 0x68 JUMPI JUMPDEST PUSH0 DUP1 REVERT JUMPDEST PUSH2 0x52 PUSH1 0x4 DUP1 CALLDATASIZE SUB DUP2 ADD SWAP1 PUSH2 0x4D SWAP2 SWAP1 PUSH2 0x143 JUMP JUMPDEST PUSH2 0x98 JUMP JUMPDEST PUSH1 0x40 MLOAD PUSH2 0x5F SWAP2 SWAP1 PUSH2 0x17D JUMP JUMPDEST PUSH1 0x40 MLOAD DUP1 SWAP2 SUB SWAP1 RETURN JUMPDEST PUSH2 0x82 PUSH1 0x4 DUP1 CALLDATASIZE SUB DUP2 ADD SWAP1 PUSH2 0x7D SWAP2 SWAP1 PUSH2 0x35F JUMP JUMPDEST PUSH2 0xC7 JUMP JUMPDEST PUSH1 0x40 MLOAD PUSH2 0x8F SWAP2 SWAP1 PUSH2 0x17D JUMP JUMPDEST PUSH1 0x40 MLOAD DUP1 SWAP2 SUB SWAP1 RETURN JUMPDEST PUSH0 DUP2 PUSH1 0x40 MLOAD PUSH1 0x20 ADD PUSH2 0xAA SWAP2 SWAP1 PUSH2 0x453 JUMP JUMPDEST PUSH1 0x40 MLOAD PUSH1 0x20 DUP2 DUP4 SUB SUB DUP2 MSTORE SWAP1 PUSH1 0x40 MSTORE DUP1 MLOAD SWAP1 PUSH1 0x20 ADD KECCAK256 SWAP1 POP SWAP2 SWAP1 POP JUMP JUMPDEST PUSH0 DUP5 DUP5 DUP5 DUP5 PUSH1 0x40 MLOAD PUSH1 0x20 ADD PUSH2 0xDF SWAP5 SWAP4 SWAP3 SWAP2 SWAP1 PUSH2 0x53F JUMP JUMPDEST PUSH1 0x40 MLOAD PUSH1 0x20 DUP2 DUP4 SUB SUB DUP2 MSTORE SWAP1 PUSH1 0x40 MSTORE DUP1 MLOAD SWAP1 PUSH1 0x20 ADD KECCAK256 SWAP1 POP SWAP5 SWAP4 POP POP POP POP JUMP JUMPDEST PUSH0 PUSH1 0x40 MLOAD SWAP1 POP SWAP1 JUMP JUMPDEST PUSH0 DUP1 REVERT JUMPDEST PUSH0 DUP1 REVERT JUMPDEST PUSH0 DUP2 SWAP1 POP SWAP2 SWAP1 POP JUMP JUMPDEST PUSH2 0x122 DUP2 PUSH2 0x110 JUMP JUMPDEST DUP2 EQ PUSH2 0x12C JUMPI PUSH0 DUP1 REVERT JUMPDEST POP JUMP JUMPDEST PUSH0 DUP2 CALLDATALOAD SWAP1 POP PUSH2 0x13D DUP2 PUSH2 0x119 JUMP JUMPDEST SWAP3 SWAP2 POP POP JUMP JUMPDEST PUSH0 PUSH1 0x20 DUP3 DUP5 SUB SLT ISZERO PUSH2 0x158 JUMPI PUSH2 0x157 PUSH2 0x108 JUMP JUMPDEST JUMPDEST PUSH0 PUSH2 0x165 DUP5 DUP3 DUP6 ADD PUSH2 0x12F JUMP JUMPDEST SWAP2 POP POP SWAP3 SWAP2 POP POP JUMP JUMPDEST PUSH2 0x177 DUP2 PUSH2 0x110 JUMP JUMPDEST DUP3 MSTORE POP POP JUMP JUMPDEST PUSH0 PUSH1 0x20 DUP3 ADD SWAP1 POP PUSH2 0x190 PUSH0 DUP4 ADD DUP5 PUSH2 0x16E JUMP JUMPDEST SWAP3 SWAP2 POP POP JUMP JUMPDEST PUSH0 PUSH20 0xFFFFFFFFFFFFFFFFFFFFFFFFFFFFFFFFFFFFFFFF DUP3 AND SWAP1 POP SWAP2 SWAP1 POP JUMP JUMPDEST PUSH0 PUSH2 0x1BF DUP3 PUSH2 0x196 JUMP JUMPDEST SWAP1 POP SWAP2 SWAP1 POP JUMP JUMPDEST PUSH2 0x1CF DUP2 PUSH2 0x1B5 JUMP JUMPDEST DUP2 EQ PUSH2 0x1D9 JUMPI PUSH0 DUP1 REVERT JUMPDEST POP JUMP JUMPDEST PUSH0 DUP2 CALLDATALOAD SWAP1 POP PUSH2 0x1EA DUP2 PUSH2 0x1C6 JUMP JUMPDEST SWAP3 SWAP2 POP POP JUMP JUMPDEST PUSH0 DUP2 SWAP1 POP SWAP2 SWAP1 POP JUMP JUMPDEST PUSH2 0x202 DUP2 PUSH2 0x1F0 JUMP JUMPDEST DUP2 EQ PUSH2 0x20C JUMPI PUSH0 DUP1 REVERT JUMPDEST POP JUMP JUMPDEST PUSH0 DUP2 CALLDATALOAD SWAP1 POP PUSH2 0x21D DUP2 PUSH2 0x1F9 JUMP JUMPDEST SWAP3 SWAP2 POP POP JUMP JUMPDEST PUSH0 DUP1 REVERT JUMPDEST PUSH0 DUP1 REVERT JUMPDEST PUSH0 PUSH1 0x1F NOT PUSH1 0x1F DUP4 ADD AND SWAP1 POP SWAP2 SWAP1 POP JUMP JUMPDEST PUSH32 0x4E487B7100000000000000000000000000000000000000000000000000000000 PUSH0 MSTORE PUSH1 0x41 PUSH1 0x4 MSTORE PUSH1 0x24 PUSH0 REVERT JUMPDEST PUSH2 0x271 DUP3 PUSH2 0x22B JUMP JUMPDEST DUP2 ADD DUP2 DUP2 LT PUSH8 0xFFFFFFFFFFFFFFFF DUP3 GT OR ISZERO PUSH2 0x290 JUMPI PUSH2 0x28F PUSH2 0x23B JUMP JUMPDEST JUMPDEST DUP1 PUSH1 0x40 MSTORE POP POP POP JUMP JUMPDEST PUSH0 PUSH2 0x2A2 PUSH2 0xFF JUMP JUMPDEST SWAP1 POP PUSH2 0x2AE DUP3 DUP3 PUSH2 0x268 JUMP JUMPDEST SWAP2 SWAP1 POP JUMP JUMPDEST PUSH0 PUSH8 0xFFFFFFFFFFFFFFFF DUP3 GT ISZERO PUSH2 0x2CD JUMPI PUSH2 0x2CC PUSH2 0x23B JUMP JUMPDEST JUMPDEST PUSH2 0x2D6 DUP3 PUSH2 0x22B JUMP JUMPDEST SWAP1 POP PUSH1 0x20 DUP2 ADD SWAP1 POP SWAP2 SWAP1 POP JUMP JUMPDEST DUP3 DUP2 DUP4 CALLDATACOPY PUSH0 DUP4 DUP4 ADD MSTORE POP POP POP JUMP JUMPDEST PUSH0 PUSH2 0x303 PUSH2 0x2FE DUP5 PUSH2 0x2B3 JUMP JUMPDEST PUSH2 0x299 JUMP JUMPDEST SWAP1 POP DUP3 DUP2 MSTORE PUSH1 0x20 DUP2 ADD DUP5 DUP5 DUP5 ADD GT ISZERO PUSH2 0x31F JUMPI PUSH2 0x31E PUSH2 0x227 JUMP JUMPDEST JUMPDEST PUSH2 0x32A DUP5 DUP3 DUP6 PUSH2 0x2E3 JUMP JUMPDEST POP SWAP4 SWAP3 POP POP POP JUMP JUMPDEST PUSH0 DUP3 PUSH1 0x1F DUP4 ADD SLT PUSH2 0x346 JUMPI PUSH2 0x345 PUSH2 0x223 JUMP JUMPDEST JUMPDEST DUP2 CALLDATALOAD PUSH2 0x356 DUP5 DUP3 PUSH1 0x20 DUP7 ADD PUSH2 0x2F1 JUMP JUMPDEST SWAP2 POP POP SWAP3 SWAP2 POP POP JUMP JUMPDEST PUSH0 DUP1 PUSH0 DUP1 PUSH1 0x80 DUP6 DUP8 SUB SLT ISZERO PUSH2 0x377 JUMPI PUSH2 0x376 PUSH2 0x108 JUMP JUMPDEST JUMPDEST PUSH0 PUSH2 0x384 DUP8 DUP3 DUP9 ADD PUSH2 0x1DC JUMP JUMPDEST SWAP5 POP POP PUSH1 0x20 PUSH2 0x395 DUP8 DUP3 DUP9 ADD PUSH2 0x20F JUMP JUMPDEST SWAP4 POP POP PUSH1 0x40 DUP6 ADD CALLDATALOAD PUSH8 0xFFFFFFFFFFFFFFFF DUP2 GT ISZERO PUSH2 0x3B6 JUMPI PUSH2 0x3B5 PUSH2 0x10C JUMP JUMPDEST JUMPDEST PUSH2 0x3C2 DUP8 DUP3 DUP9 ADD PUSH2 0x332 JUMP JUMPDEST SWAP3 POP POP PUSH1 0x60 PUSH2 0x3D3 DUP8 DUP3 DUP9 ADD PUSH2 0x20F JUMP JUMPDEST SWAP2 POP POP SWAP3 SWAP6 SWAP2 SWAP5 POP SWAP3 POP JUMP JUMPDEST PUSH0 DUP2 SWAP1 POP SWAP3 SWAP2 POP POP JUMP JUMPDEST PUSH32 0x19457468657265756D205369676E6564204D6573736167650A33320000000000 PUSH0 DUP3 ADD MSTORE POP JUMP JUMPDEST PUSH0 PUSH2 0x41D PUSH1 0x1B DUP4 PUSH2 0x3DF JUMP JUMPDEST SWAP2 POP PUSH2 0x428 DUP3 PUSH2 0x3E9 JUMP JUMPDEST PUSH1 0x1B DUP3 ADD SWAP1 POP SWAP2 SWAP1 POP JUMP JUMPDEST PUSH0 DUP2 SWAP1 POP SWAP2 SWAP1 POP JUMP JUMPDEST PUSH2 0x44D PUSH2 0x448 DUP3 PUSH2 0x110 JUMP JUMPDEST PUSH2 0x433 JUMP JUMPDEST DUP3 MSTORE POP POP JUMP JUMPDEST PUSH0 PUSH2 0x45D DUP3 PUSH2 0x411 JUMP JUMPDEST SWAP2 POP PUSH2 0x469 DUP3 DUP5 PUSH2 0x43C JUMP JUMPDEST PUSH1 0x20 DUP3 ADD SWAP2 POP DUP2 SWAP1 POP SWAP3 SWAP2 POP POP JUMP JUMPDEST PUSH0 DUP2 PUSH1 0x60 SHL SWAP1 POP SWAP2 SWAP1 POP JUMP JUMPDEST PUSH0 PUSH2 0x48E DUP3 PUSH2 0x478 JUMP JUMPDEST SWAP1 POP SWAP2 SWAP1 POP JUMP JUMPDEST PUSH0 PUSH2 0x49F DUP3 PUSH2 0x484 JUMP JUMPDEST SWAP1 POP SWAP2 SWAP1 POP JUMP JUMPDEST PUSH2 0x4B7 PUSH2 0x4B2 DUP3 PUSH2 0x1B5 JUMP JUMPDEST PUSH2 0x495 JUMP JUMPDEST DUP3 MSTORE POP POP JUMP JUMPDEST PUSH0 DUP2 SWAP1 POP SWAP2 SWAP1 POP JUMP JUMPDEST PUSH2 0x4D7 PUSH2 0x4D2 DUP3 PUSH2 0x1F0 JUMP JUMPDEST PUSH2 0x4BD JUMP JUMPDEST DUP3 MSTORE POP POP JUMP JUMPDEST PUSH0 DUP2 MLOAD SWAP1 POP SWAP2 SWAP1 POP JUMP JUMPDEST PUSH0 JUMPDEST DUP4 DUP2 LT ISZERO PUSH2 0x504 JUMPI DUP1 DUP3 ADD MLOAD DUP2 DUP5 ADD MSTORE PUSH1 0x20 DUP2 ADD SWAP1 POP PUSH2 0x4E9 JUMP JUMPDEST PUSH0 DUP5 DUP5 ADD MSTORE POP POP POP POP JUMP JUMPDEST PUSH0 PUSH2 0x519 DUP3 PUSH2 0x4DD JUMP JUMPDEST PUSH2 0x523 DUP2 DUP6 PUSH2 0x3DF JUMP JUMPDEST SWAP4 POP PUSH2 0x533 DUP2 DUP6 PUSH1 0x20 DUP7 ADD PUSH2 0x4E7 JUMP JUMPDEST DUP1 DUP5 ADD SWAP2 POP POP SWAP3 SWAP2 POP POP JUMP JUMPDEST PUSH0 PUSH2 0x54A DUP3 DUP8 PUSH2 0x4A6 JUMP JUMPDEST PUSH1 0x14 DUP3 ADD SWAP2 POP PUSH2 0x55A DUP3 DUP7 PUSH2 0x4C6 JUMP JUMPDEST PUSH1 0x20 DUP3 ADD SWAP2 POP PUSH2 0x56A DUP3 DUP6 PUSH2 0x50F JUMP JUMPDEST SWAP2 POP PUSH2 0x576 DUP3 DUP5 PUSH2 0x4C6 JUMP JUMPDEST PUSH1 0x20 DUP3 ADD SWAP2 POP DUP2 SWAP1 POP SWAP6 SWAP5 POP POP POP POP POP JUMP INVALID LOG2 PUSH5 0x6970667358 0x22 SLT KECCAK256 0x2B 0xB4 0xD6 0x23 PUSH4 0x9EDB5409 0x4C SUB PUSH14 0x96C33CA179919B200949C634F8AA 0xC8 CALLDATALOAD 0xB8 DUP4 PUSH31 0x7764736F6C6343000818003300000000000000000000000000000000000000 "
				},
				"gasEstimates": {
					"creation": {
						"codeDepositCost": "294000",
						"executionCost": "329",
						"totalCost": "294329"
					},
					"external": {
						"hashgenerate(address,uint256,string,uint256)": "infinite",
						"sign_hash(bytes32)": "infinite"
					}
				},
				"methodIdentifiers": {
					"hashgenerate(address,uint256,string,uint256)": "70e61ffb",
					"sign_hash(bytes32)": "0fa56d5f"
				}
			},
			"storageLayout": {
				"storage": [],
				"types": null
			},
			"userdoc": {
				"kind": "user",
				"methods": {},
				"version": 1
			}
		}
	}
}