{
	"tests/30_day project/day8/01.sol": {
		"test3": {
			"abi": [
				{
					"inputs": [],
					"name": "presentHash",
					"outputs": [
						{
							"internalType": "bytes32",
							"name": "",
							"type": "bytes32"
						}
					],
					"stateMutability": "nonpayable",
					"type": "function"
				},
				{
					"inputs": [],
					"name": "previousHash",
					"outputs": [
						{
							"internalType": "bytes32",
							"name": "",
							"type": "bytes32"
						}
					],
					"stateMutability": "nonpayable",
					"type": "function"
				}
			],
			"devdoc": {
				"kind": "dev",
				"methods": {},
				"version": 1
			},
			"evm": {
				"assembly": "    /* \"tests/30_day project/day8/01.sol\":579:1008  contract test3{... */\n  mstore(0x40, 0x80)\n  callvalue\n  dup1\n  iszero\n  tag_1\n  jumpi\n  0x00\n  dup1\n  revert\ntag_1:\n  pop\n  dataSize(sub_0)\n  dup1\n  dataOffset(sub_0)\n  0x00\n  codecopy\n  0x00\n  return\nstop\n\nsub_0: assembly {\n        /* \"tests/30_day project/day8/01.sol\":579:1008  contract test3{... */\n      mstore(0x40, 0x80)\n      callvalue\n      dup1\n      iszero\n      tag_1\n      jumpi\n      0x00\n      dup1\n      revert\n    tag_1:\n      pop\n      jumpi(tag_2, lt(calldatasize, 0x04))\n      shr(0xe0, calldataload(0x00))\n      dup1\n      0x9e8c50a2\n      eq\n      tag_3\n      jumpi\n      dup1\n      0xd4d52df4\n      eq\n      tag_4\n      jumpi\n    tag_2:\n      0x00\n      dup1\n      revert\n        /* \"tests/30_day project/day8/01.sol\":674:834  function presentHash()public returns(bytes32){... */\n    tag_3:\n      tag_5\n      tag_6\n      jump\t// in\n    tag_5:\n      mload(0x40)\n      tag_7\n      swap2\n      swap1\n      tag_8\n      jump\t// in\n    tag_7:\n      mload(0x40)\n      dup1\n      swap2\n      sub\n      swap1\n      return\n        /* \"tests/30_day project/day8/01.sol\":840:1005  function previousHash()public returns(bytes32){... */\n    tag_4:\n      tag_9\n      tag_10\n      jump\t// in\n    tag_9:\n      mload(0x40)\n      tag_11\n      swap2\n      swap1\n      tag_8\n      jump\t// in\n    tag_11:\n      mload(0x40)\n      dup1\n      swap2\n      sub\n      swap1\n      return\n        /* \"tests/30_day project/day8/01.sol\":674:834  function presentHash()public returns(bytes32){... */\n    tag_6:\n        /* \"tests/30_day project/day8/01.sol\":711:718  bytes32 */\n      0x00\n        /* \"tests/30_day project/day8/01.sol\":740:752  block.number */\n      number\n        /* \"tests/30_day project/day8/01.sol\":730:737  BNumber */\n      0x00\n        /* \"tests/30_day project/day8/01.sol\":730:752  BNumber = block.number */\n      dup2\n      swap1\n      sstore\n      pop\n        /* \"tests/30_day project/day8/01.sol\":788:795  BNumber */\n      sload(0x00)\n        /* \"tests/30_day project/day8/01.sol\":778:796  blockhash(BNumber) */\n      blockhash\n        /* \"tests/30_day project/day8/01.sol\":763:775  BHashPresent */\n      0x01\n        /* \"tests/30_day project/day8/01.sol\":763:796  BHashPresent = blockhash(BNumber) */\n      dup2\n      swap1\n      sstore\n      pop\n        /* \"tests/30_day project/day8/01.sol\":814:826  BHashPresent */\n      sload(0x01)\n        /* \"tests/30_day project/day8/01.sol\":807:826  return BHashPresent */\n      swap1\n      pop\n        /* \"tests/30_day project/day8/01.sol\":674:834  function presentHash()public returns(bytes32){... */\n      swap1\n      jump\t// out\n        /* \"tests/30_day project/day8/01.sol\":840:1005  function previousHash()public returns(bytes32){... */\n    tag_10:\n        /* \"tests/30_day project/day8/01.sol\":878:885  bytes32 */\n      0x00\n        /* \"tests/30_day project/day8/01.sol\":907:919  block.number */\n      number\n        /* \"tests/30_day project/day8/01.sol\":897:904  BNumber */\n      0x00\n        /* \"tests/30_day project/day8/01.sol\":897:919  BNumber = block.number */\n      dup2\n      swap1\n      sstore\n      pop\n        /* \"tests/30_day project/day8/01.sol\":964:965  1 */\n      0x01\n        /* \"tests/30_day project/day8/01.sol\":956:963  BNumber */\n      sload(0x00)\n        /* \"tests/30_day project/day8/01.sol\":956:965  BNumber-1 */\n      tag_14\n      swap2\n      swap1\n      tag_15\n      jump\t// in\n    tag_14:\n        /* \"tests/30_day project/day8/01.sol\":946:966  blockhash(BNumber-1) */\n      blockhash\n        /* \"tests/30_day project/day8/01.sol\":930:943  BHashPrevious */\n      0x02\n        /* \"tests/30_day project/day8/01.sol\":930:966  BHashPrevious = blockhash(BNumber-1) */\n      dup2\n      swap1\n      sstore\n      pop\n        /* \"tests/30_day project/day8/01.sol\":984:997  BHashPrevious */\n      sload(0x02)\n        /* \"tests/30_day project/day8/01.sol\":977:997  return BHashPrevious */\n      swap1\n      pop\n        /* \"tests/30_day project/day8/01.sol\":840:1005  function previousHash()public returns(bytes32){... */\n      swap1\n      jump\t// out\n        /* \"#utility.yul\":7:84   */\n    tag_16:\n        /* \"#utility.yul\":44:51   */\n      0x00\n        /* \"#utility.yul\":73:78   */\n      dup2\n        /* \"#utility.yul\":62:78   */\n      swap1\n      pop\n        /* \"#utility.yul\":7:84   */\n      swap2\n      swap1\n      pop\n      jump\t// out\n        /* \"#utility.yul\":90:208   */\n    tag_17:\n        /* \"#utility.yul\":177:201   */\n      tag_23\n        /* \"#utility.yul\":195:200   */\n      dup2\n        /* \"#utility.yul\":177:201   */\n      tag_16\n      jump\t// in\n    tag_23:\n        /* \"#utility.yul\":172:175   */\n      dup3\n        /* \"#utility.yul\":165:202   */\n      mstore\n        /* \"#utility.yul\":90:208   */\n      pop\n      pop\n      jump\t// out\n        /* \"#utility.yul\":214:436   */\n    tag_8:\n        /* \"#utility.yul\":307:311   */\n      0x00\n        /* \"#utility.yul\":345:347   */\n      0x20\n        /* \"#utility.yul\":334:343   */\n      dup3\n        /* \"#utility.yul\":330:348   */\n      add\n        /* \"#utility.yul\":322:348   */\n      swap1\n      pop\n        /* \"#utility.yul\":358:429   */\n      tag_25\n        /* \"#utility.yul\":426:427   */\n      0x00\n        /* \"#utility.yul\":415:424   */\n      dup4\n        /* \"#utility.yul\":411:428   */\n      add\n        /* \"#utility.yul\":402:408   */\n      dup5\n        /* \"#utility.yul\":358:429   */\n      tag_17\n      jump\t// in\n    tag_25:\n        /* \"#utility.yul\":214:436   */\n      swap3\n      swap2\n      pop\n      pop\n      jump\t// out\n        /* \"#utility.yul\":442:519   */\n    tag_18:\n        /* \"#utility.yul\":479:486   */\n      0x00\n        /* \"#utility.yul\":508:513   */\n      dup2\n        /* \"#utility.yul\":497:513   */\n      swap1\n      pop\n        /* \"#utility.yul\":442:519   */\n      swap2\n      swap1\n      pop\n      jump\t// out\n        /* \"#utility.yul\":525:705   */\n    tag_19:\n        /* \"#utility.yul\":573:650   */\n      0x4e487b7100000000000000000000000000000000000000000000000000000000\n        /* \"#utility.yul\":570:571   */\n      0x00\n        /* \"#utility.yul\":563:651   */\n      mstore\n        /* \"#utility.yul\":670:674   */\n      0x11\n        /* \"#utility.yul\":667:668   */\n      0x04\n        /* \"#utility.yul\":660:675   */\n      mstore\n        /* \"#utility.yul\":694:698   */\n      0x24\n        /* \"#utility.yul\":691:692   */\n      0x00\n        /* \"#utility.yul\":684:699   */\n      revert\n        /* \"#utility.yul\":711:905   */\n    tag_15:\n        /* \"#utility.yul\":751:755   */\n      0x00\n        /* \"#utility.yul\":771:791   */\n      tag_29\n        /* \"#utility.yul\":789:790   */\n      dup3\n        /* \"#utility.yul\":771:791   */\n      tag_18\n      jump\t// in\n    tag_29:\n        /* \"#utility.yul\":766:791   */\n      swap2\n      pop\n        /* \"#utility.yul\":805:825   */\n      tag_30\n        /* \"#utility.yul\":823:824   */\n      dup4\n        /* \"#utility.yul\":805:825   */\n      tag_18\n      jump\t// in\n    tag_30:\n        /* \"#utility.yul\":800:825   */\n      swap3\n      pop\n        /* \"#utility.yul\":849:850   */\n      dup3\n        /* \"#utility.yul\":846:847   */\n      dup3\n        /* \"#utility.yul\":842:851   */\n      sub\n        /* \"#utility.yul\":834:851   */\n      swap1\n      pop\n        /* \"#utility.yul\":873:874   */\n      dup2\n        /* \"#utility.yul\":867:871   */\n      dup2\n        /* \"#utility.yul\":864:875   */\n      gt\n        /* \"#utility.yul\":861:898   */\n      iszero\n      tag_31\n      jumpi\n        /* \"#utility.yul\":878:896   */\n      tag_32\n      tag_19\n      jump\t// in\n    tag_32:\n        /* \"#utility.yul\":861:898   */\n    tag_31:\n        /* \"#utility.yul\":711:905   */\n      swap3\n      swap2\n      pop\n      pop\n      jump\t// out\n\n    auxdata: 0xa2646970667358221220c3112a94587b65e56888408a9a917dac9e2c9b8542ef3edcac66415da090cf8864736f6c63430008180033\n}\n",
				"bytecode": {
					"linkReferences": {},
					"object": "608060405234801561000f575f80fd5b506101808061001d5f395ff3fe608060405234801561000f575f80fd5b5060043610610034575f3560e01c80639e8c50a214610038578063d4d52df414610056575b5f80fd5b610040610074565b60405161004d91906100c8565b60405180910390f35b61005e61008c565b60405161006b91906100c8565b60405180910390f35b5f435f819055505f5440600181905550600154905090565b5f435f8190555060015f546100a19190610117565b40600281905550600254905090565b5f819050919050565b6100c2816100b0565b82525050565b5f6020820190506100db5f8301846100b9565b92915050565b5f819050919050565b7f4e487b71000000000000000000000000000000000000000000000000000000005f52601160045260245ffd5b5f610121826100e1565b915061012c836100e1565b9250828203905081811115610144576101436100ea565b5b9291505056fea2646970667358221220c3112a94587b65e56888408a9a917dac9e2c9b8542ef3edcac66415da090cf8864736f6c63430008180033",
					"opcodes": "PUSH1 0x80 PUSH1 0x40 MSTORE CALLVALUE DUP1 ISZERO PUSH2 0xF JUMPI PUSH0 DUP1 REVERT JUMPDEST POP PUSH2 0x180 DUP1 PUSH2 0x1D PUSH0 CODECOPY PUSH0 RETURN INVALID PUSH1 0x80 PUSH1 0x40 MSTORE CALLVALUE DUP1 ISZERO PUSH2 0xF JUMPI PUSH0 DUP1 REVERT JUMPDEST POP PUSH1 0x4 CALLDATASIZE LT PUSH2 0x34 JUMPI PUSH0 CALLDATALOAD PUSH1 0xE0 SHR DUP1 PUSH4 0x9E8C50A2 EQ PUSH2 0x38 JUMPI DUP1 PUSH4 0xD4D52DF4 EQ PUSH2 0x56 JUMPI JUMPDEST PUSH0 DUP1 REVERT JUMPDEST PUSH2 0x40 PUSH2 0x74 JUMP JUMPDEST PUSH1 0x40 MLOAD PUSH2 0x4D SWAP2 SWAP1 PUSH2 0xC8 JUMP JUMPDEST PUSH1 0x40 MLOAD DUP1 SWAP2 SUB SWAP1 RETURN JUMPDEST PUSH2 0x5E PUSH2 0x8C JUMP JUMPDEST PUSH1 0x40 MLOAD PUSH2 0x6B SWAP2 SWAP1 PUSH2 0xC8 JUMP JUMPDEST PUSH1 0x40 MLOAD DUP1 SWAP2 SUB SWAP1 RETURN JUMPDEST PUSH0 NUMBER PUSH0 DUP2 SWAP1 SSTORE POP PUSH0 SLOAD BLOCKHASH PUSH1 0x1 DUP2 SWAP1 SSTORE POP PUSH1 0x1 SLOAD SWAP1 POP SWAP1 JUMP JUMPDEST PUSH0 NUMBER PUSH0 DUP2 SWAP1 SSTORE POP PUSH1 0x1 PUSH0 SLOAD PUSH2 0xA1 SWAP2 SWAP1 PUSH2 0x117 JUMP JUMPDEST BLOCKHASH PUSH1 0x2 DUP2 SWAP1 SSTORE POP PUSH1 0x2 SLOAD SWAP1 POP SWAP1 JUMP JUMPDEST PUSH0 DUP2 SWAP1 POP SWAP2 SWAP1 POP JUMP JUMPDEST PUSH2 0xC2 DUP2 PUSH2 0xB0 JUMP JUMPDEST DUP3 MSTORE POP POP JUMP JUMPDEST PUSH0 PUSH1 0x20 DUP3 ADD SWAP1 POP PUSH2 0xDB PUSH0 DUP4 ADD DUP5 PUSH2 0xB9 JUMP JUMPDEST SWAP3 SWAP2 POP POP JUMP JUMPDEST PUSH0 DUP2 SWAP1 POP SWAP2 SWAP1 POP JUMP JUMPDEST PUSH32 0x4E487B7100000000000000000000000000000000000000000000000000000000 PUSH0 MSTORE PUSH1 0x11 PUSH1 0x4 MSTORE PUSH1 0x24 PUSH0 REVERT JUMPDEST PUSH0 PUSH2 0x121 DUP3 PUSH2 0xE1 JUMP JUMPDEST SWAP2 POP PUSH2 0x12C DUP4 PUSH2 0xE1 JUMP JUMPDEST SWAP3 POP DUP3 DUP3 SUB SWAP1 POP DUP2 DUP2 GT ISZERO PUSH2 0x144 JUMPI PUSH2 0x143 PUSH2 0xEA JUMP JUMPDEST JUMPDEST SWAP3 SWAP2 POP POP JUMP INVALID LOG2 PUSH5 0x6970667358 0x22 SLT KECCAK256 0xC3 GT 0x2A SWAP5 PC PUSH28 0x65E56888408A9A917DAC9E2C9B8542EF3EDCAC66415DA090CF886473 PUSH16 0x6C634300081800330000000000000000 "
				},
				"gasEstimates": {
					"creation": {
						"codeDepositCost": "76800",
						"executionCost": "121",
						"totalCost": "76921"
					},
					"external": {
						"presentHash()": "48755",
						"previousHash()": "infinite"
					}
				},
				"methodIdentifiers": {
					"presentHash()": "9e8c50a2",
					"previousHash()": "d4d52df4"
				}
			},
			"storageLayout": {
				"storage": [
					{
						"astId": 59,
						"contract": "tests/30_day project/day8/01.sol:test3",
						"label": "BNumber",
						"offset": 0,
						"slot": "0",
						"type": "t_uint256"
					},
					{
						"astId": 61,
						"contract": "tests/30_day project/day8/01.sol:test3",
						"label": "BHashPresent",
						"offset": 0,
						"slot": "1",
						"type": "t_bytes32"
					},
					{
						"astId": 63,
						"contract": "tests/30_day project/day8/01.sol:test3",
						"label": "BHashPrevious",
						"offset": 0,
						"slot": "2",
						"type": "t_bytes32"
					}
				],
				"types": {
					"t_bytes32": {
						"encoding": "inplace",
						"label": "bytes32",
						"numberOfBytes": "32"
					},
					"t_uint256": {
						"encoding": "inplace",
						"label": "uint256",
						"numberOfBytes": "32"
					}
				}
			},
			"userdoc": {
				"kind": "user",
				"methods": {},
				"version": 1
			}
		}
	}
}