{
	"data": {
		"bytecode": {
			"linkReferences": {},
			"object": "608060405234801562000010575f80fd5b505f60405180608001604052806040518060400160405280600c81526020017f616c696365202d3e20626f62000000000000000000000000000000000000000081525081526020016040518060400160405280600b81526020017f626f62202d3e206461766500000000000000000000000000000000000000000081525081526020016040518060400160405280600e81526020017f4361726f6c202d3e20616c69636500000000000000000000000000000000000081525081526020016040518060400160405280600b81526020017f64617665202d3e20626f6200000000000000000000000000000000000000000081525081525090505f5b600481101562000193575f8282600481106200012c576200012b620002b8565b5b602002015160405160200162000143919062000359565b60405160208183030381529060405280519060200120908060018154018082558091505060019003905f5260205f20015f90919091909150556001816200018b9190620003a7565b90506200010b565b505f600490505f5b5f821115620002af575f5b600183620001b59190620003e1565b81101562000287575f808284620001cd9190620003a7565b81548110620001e157620001e0620002b8565b5b905f5260205f2001545f60018486620001fb9190620003a7565b620002079190620003a7565b815481106200021b576200021a620002b8565b5b905f5260205f2001546040516020016200023792919062000448565b60405160208183030381529060405280519060200120908060018154018082558091505060019003905f5260205f20015f90919091909150556002816200027f9190620003a7565b9050620001a6565b508181620002969190620003a7565b9050600282620002a79190620004a4565b91506200019b565b505050620004db565b7f4e487b71000000000000000000000000000000000000000000000000000000005f52603260045260245ffd5b5f81519050919050565b5f81905092915050565b5f5b8381101562000318578082015181840152602081019050620002fb565b5f8484015250505050565b5f6200032f82620002e5565b6200033b8185620002ef565b93506200034d818560208601620002f9565b80840191505092915050565b5f62000366828462000323565b915081905092915050565b5f819050919050565b7f4e487b71000000000000000000000000000000000000000000000000000000005f52601160045260245ffd5b5f620003b38262000371565b9150620003c08362000371565b9250828201905080821115620003db57620003da6200037a565b5b92915050565b5f620003ed8262000371565b9150620003fa8362000371565b92508282039050818111156200041557620004146200037a565b5b92915050565b5f819050919050565b5f819050919050565b620004426200043c826200041b565b62000424565b82525050565b5f6200045582856200042d565b6020820191506200046782846200042d565b6020820191508190509392505050565b7f4e487b71000000000000000000000000000000000000000000000000000000005f52601260045260245ffd5b5f620004b08262000371565b9150620004bd8362000371565b925082620004d057620004cf62000477565b5b828204905092915050565b61064380620004e95f395ff3fe608060405234801561000f575f80fd5b506004361061003f575f3560e01c8063501895ae146100435780635ca1e16514610073578063c9c6767214610091575b5f80fd5b61005d6004803603810190610058919061021f565b6100c1565b60405161006a9190610262565b60405180910390f35b61007b6100e0565b6040516100889190610262565b60405180910390f35b6100ab60048036038101906100a691906103f5565b610112565b6040516100b8919061048f565b60405180910390f35b5f81815481106100cf575f80fd5b905f5260205f20015f915090505481565b5f8060015f805490506100f391906104d5565b8154811061010457610103610508565b5b905f5260205f200154905090565b5f808390505f5b86518110156101cc575f87828151811061013657610135610508565b5b602002602001015190505f60028661014e9190610562565b036101835782816040516020016101669291906105b2565b6040516020818303038152906040528051906020012092506101af565b80836040516020016101969291906105b2565b6040516020818303038152906040528051906020012092505b6002856101bc91906105dd565b9450508080600101915050610119565b50848114915050949350505050565b5f604051905090565b5f80fd5b5f80fd5b5f819050919050565b6101fe816101ec565b8114610208575f80fd5b50565b5f81359050610219816101f5565b92915050565b5f60208284031215610234576102336101e4565b5b5f6102418482850161020b565b91505092915050565b5f819050919050565b61025c8161024a565b82525050565b5f6020820190506102755f830184610253565b92915050565b5f80fd5b5f601f19601f8301169050919050565b7f4e487b71000000000000000000000000000000000000000000000000000000005f52604160045260245ffd5b6102c58261027f565b810181811067ffffffffffffffff821117156102e4576102e361028f565b5b80604052505050565b5f6102f66101db565b905061030282826102bc565b919050565b5f67ffffffffffffffff8211156103215761032061028f565b5b602082029050602081019050919050565b5f80fd5b61033f8161024a565b8114610349575f80fd5b50565b5f8135905061035a81610336565b92915050565b5f61037261036d84610307565b6102ed565b9050808382526020820190506020840283018581111561039557610394610332565b5b835b818110156103be57806103aa888261034c565b845260208401935050602081019050610397565b5050509392505050565b5f82601f8301126103dc576103db61027b565b5b81356103ec848260208601610360565b91505092915050565b5f805f806080858703121561040d5761040c6101e4565b5b5f85013567ffffffffffffffff81111561042a576104296101e8565b5b610436878288016103c8565b94505060206104478782880161034c565b93505060406104588782880161034c565b92505060606104698782880161020b565b91505092959194509250565b5f8115159050919050565b61048981610475565b82525050565b5f6020820190506104a25f830184610480565b92915050565b7f4e487b71000000000000000000000000000000000000000000000000000000005f52601160045260245ffd5b5f6104df826101ec565b91506104ea836101ec565b9250828203905081811115610502576105016104a8565b5b92915050565b7f4e487b71000000000000000000000000000000000000000000000000000000005f52603260045260245ffd5b7f4e487b71000000000000000000000000000000000000000000000000000000005f52601260045260245ffd5b5f61056c826101ec565b9150610577836101ec565b92508261058757610586610535565b5b828206905092915050565b5f819050919050565b6105ac6105a78261024a565b610592565b82525050565b5f6105bd828561059b565b6020820191506105cd828461059b565b6020820191508190509392505050565b5f6105e7826101ec565b91506105f2836101ec565b92508261060257610601610535565b5b82820490509291505056fea2646970667358221220b6d90eb03598692ecc6502c3404009850fe0e0081f24fb7ce5e92d50d8302f4964736f6c63430008180033",
			"opcodes": "PUSH1 0x80 PUSH1 0x40 MSTORE CALLVALUE DUP1 ISZERO PUSH3 0x10 JUMPI PUSH0 DUP1 REVERT JUMPDEST POP PUSH0 PUSH1 0x40 MLOAD DUP1 PUSH1 0x80 ADD PUSH1 0x40 MSTORE DUP1 PUSH1 0x40 MLOAD DUP1 PUSH1 0x40 ADD PUSH1 0x40 MSTORE DUP1 PUSH1 0xC DUP2 MSTORE PUSH1 0x20 ADD PUSH32 0x616C696365202D3E20626F620000000000000000000000000000000000000000 DUP2 MSTORE POP DUP2 MSTORE PUSH1 0x20 ADD PUSH1 0x40 MLOAD DUP1 PUSH1 0x40 ADD PUSH1 0x40 MSTORE DUP1 PUSH1 0xB DUP2 MSTORE PUSH1 0x20 ADD PUSH32 0x626F62202D3E2064617665000000000000000000000000000000000000000000 DUP2 MSTORE POP DUP2 MSTORE PUSH1 0x20 ADD PUSH1 0x40 MLOAD DUP1 PUSH1 0x40 ADD PUSH1 0x40 MSTORE DUP1 PUSH1 0xE DUP2 MSTORE PUSH1 0x20 ADD PUSH32 0x4361726F6C202D3E20616C696365000000000000000000000000000000000000 DUP2 MSTORE POP DUP2 MSTORE PUSH1 0x20 ADD PUSH1 0x40 MLOAD DUP1 PUSH1 0x40 ADD PUSH1 0x40 MSTORE DUP1 PUSH1 0xB DUP2 MSTORE PUSH1 0x20 ADD PUSH32 0x64617665202D3E20626F62000000000000000000000000000000000000000000 DUP2 MSTORE POP DUP2 MSTORE POP SWAP1 POP PUSH0 JUMPDEST PUSH1 0x4 DUP2 LT ISZERO PUSH3 0x193 JUMPI PUSH0 DUP3 DUP3 PUSH1 0x4 DUP2 LT PUSH3 0x12C JUMPI PUSH3 0x12B PUSH3 0x2B8 JUMP JUMPDEST JUMPDEST PUSH1 0x20 MUL ADD MLOAD PUSH1 0x40 MLOAD PUSH1 0x20 ADD PUSH3 0x143 SWAP2 SWAP1 PUSH3 0x359 JUMP JUMPDEST PUSH1 0x40 MLOAD PUSH1 0x20 DUP2 DUP4 SUB SUB DUP2 MSTORE SWAP1 PUSH1 0x40 MSTORE DUP1 MLOAD SWAP1 PUSH1 0x20 ADD KECCAK256 SWAP1 DUP1 PUSH1 0x1 DUP2 SLOAD ADD DUP1 DUP3 SSTORE DUP1 SWAP2 POP POP PUSH1 0x1 SWAP1 SUB SWAP1 PUSH0 MSTORE PUSH1 0x20 PUSH0 KECCAK256 ADD PUSH0 SWAP1 SWAP2 SWAP1 SWAP2 SWAP1 SWAP2 POP SSTORE PUSH1 0x1 DUP2 PUSH3 0x18B SWAP2 SWAP1 PUSH3 0x3A7 JUMP JUMPDEST SWAP1 POP PUSH3 0x10B JUMP JUMPDEST POP PUSH0 PUSH1 0x4 SWAP1 POP PUSH0 JUMPDEST PUSH0 DUP3 GT ISZERO PUSH3 0x2AF JUMPI PUSH0 JUMPDEST PUSH1 0x1 DUP4 PUSH3 0x1B5 SWAP2 SWAP1 PUSH3 0x3E1 JUMP JUMPDEST DUP2 LT ISZERO PUSH3 0x287 JUMPI PUSH0 DUP1 DUP3 DUP5 PUSH3 0x1CD SWAP2 SWAP1 PUSH3 0x3A7 JUMP JUMPDEST DUP2 SLOAD DUP2 LT PUSH3 0x1E1 JUMPI PUSH3 0x1E0 PUSH3 0x2B8 JUMP JUMPDEST JUMPDEST SWAP1 PUSH0 MSTORE PUSH1 0x20 PUSH0 KECCAK256 ADD SLOAD PUSH0 PUSH1 0x1 DUP5 DUP7 PUSH3 0x1FB SWAP2 SWAP1 PUSH3 0x3A7 JUMP JUMPDEST PUSH3 0x207 SWAP2 SWAP1 PUSH3 0x3A7 JUMP JUMPDEST DUP2 SLOAD DUP2 LT PUSH3 0x21B JUMPI PUSH3 0x21A PUSH3 0x2B8 JUMP JUMPDEST JUMPDEST SWAP1 PUSH0 MSTORE PUSH1 0x20 PUSH0 KECCAK256 ADD SLOAD PUSH1 0x40 MLOAD PUSH1 0x20 ADD PUSH3 0x237 SWAP3 SWAP2 SWAP1 PUSH3 0x448 JUMP JUMPDEST PUSH1 0x40 MLOAD PUSH1 0x20 DUP2 DUP4 SUB SUB DUP2 MSTORE SWAP1 PUSH1 0x40 MSTORE DUP1 MLOAD SWAP1 PUSH1 0x20 ADD KECCAK256 SWAP1 DUP1 PUSH1 0x1 DUP2 SLOAD ADD DUP1 DUP3 SSTORE DUP1 SWAP2 POP POP PUSH1 0x1 SWAP1 SUB SWAP1 PUSH0 MSTORE PUSH1 0x20 PUSH0 KECCAK256 ADD PUSH0 SWAP1 SWAP2 SWAP1 SWAP2 SWAP1 SWAP2 POP SSTORE PUSH1 0x2 DUP2 PUSH3 0x27F SWAP2 SWAP1 PUSH3 0x3A7 JUMP JUMPDEST SWAP1 POP PUSH3 0x1A6 JUMP JUMPDEST POP DUP2 DUP2 PUSH3 0x296 SWAP2 SWAP1 PUSH3 0x3A7 JUMP JUMPDEST SWAP1 POP PUSH1 0x2 DUP3 PUSH3 0x2A7 SWAP2 SWAP1 PUSH3 0x4A4 JUMP JUMPDEST SWAP2 POP PUSH3 0x19B JUMP JUMPDEST POP POP POP PUSH3 0x4DB JUMP JUMPDEST PUSH32 0x4E487B7100000000000000000000000000000000000000000000000000000000 PUSH0 MSTORE PUSH1 0x32 PUSH1 0x4 MSTORE PUSH1 0x24 PUSH0 REVERT JUMPDEST PUSH0 DUP2 MLOAD SWAP1 POP SWAP2 SWAP1 POP JUMP JUMPDEST PUSH0 DUP2 SWAP1 POP SWAP3 SWAP2 POP POP JUMP JUMPDEST PUSH0 JUMPDEST DUP4 DUP2 LT ISZERO PUSH3 0x318 JUMPI DUP1 DUP3 ADD MLOAD DUP2 DUP5 ADD MSTORE PUSH1 0x20 DUP2 ADD SWAP1 POP PUSH3 0x2FB JUMP JUMPDEST PUSH0 DUP5 DUP5 ADD MSTORE POP POP POP POP JUMP JUMPDEST PUSH0 PUSH3 0x32F DUP3 PUSH3 0x2E5 JUMP JUMPDEST PUSH3 0x33B DUP2 DUP6 PUSH3 0x2EF JUMP JUMPDEST SWAP4 POP PUSH3 0x34D DUP2 DUP6 PUSH1 0x20 DUP7 ADD PUSH3 0x2F9 JUMP JUMPDEST DUP1 DUP5 ADD SWAP2 POP POP SWAP3 SWAP2 POP POP JUMP JUMPDEST PUSH0 PUSH3 0x366 DUP3 DUP5 PUSH3 0x323 JUMP JUMPDEST SWAP2 POP DUP2 SWAP1 POP SWAP3 SWAP2 POP POP JUMP JUMPDEST PUSH0 DUP2 SWAP1 POP SWAP2 SWAP1 POP JUMP JUMPDEST PUSH32 0x4E487B7100000000000000000000000000000000000000000000000000000000 PUSH0 MSTORE PUSH1 0x11 PUSH1 0x4 MSTORE PUSH1 0x24 PUSH0 REVERT JUMPDEST PUSH0 PUSH3 0x3B3 DUP3 PUSH3 0x371 JUMP JUMPDEST SWAP2 POP PUSH3 0x3C0 DUP4 PUSH3 0x371 JUMP JUMPDEST SWAP3 POP DUP3 DUP3 ADD SWAP1 POP DUP1 DUP3 GT ISZERO PUSH3 0x3DB JUMPI PUSH3 0x3DA PUSH3 0x37A JUMP JUMPDEST JUMPDEST SWAP3 SWAP2 POP POP JUMP JUMPDEST PUSH0 PUSH3 0x3ED DUP3 PUSH3 0x371 JUMP JUMPDEST SWAP2 POP PUSH3 0x3FA DUP4 PUSH3 0x371 JUMP JUMPDEST SWAP3 POP DUP3 DUP3 SUB SWAP1 POP DUP2 DUP2 GT ISZERO PUSH3 0x415 JUMPI PUSH3 0x414 PUSH3 0x37A JUMP JUMPDEST JUMPDEST SWAP3 SWAP2 POP POP JUMP JUMPDEST PUSH0 DUP2 SWAP1 POP SWAP2 SWAP1 POP JUMP JUMPDEST PUSH0 DUP2 SWAP1 POP SWAP2 SWAP1 POP JUMP JUMPDEST PUSH3 0x442 PUSH3 0x43C DUP3 PUSH3 0x41B JUMP JUMPDEST PUSH3 0x424 JUMP JUMPDEST DUP3 MSTORE POP POP JUMP JUMPDEST PUSH0 PUSH3 0x455 DUP3 DUP6 PUSH3 0x42D JUMP JUMPDEST PUSH1 0x20 DUP3 ADD SWAP2 POP PUSH3 0x467 DUP3 DUP5 PUSH3 0x42D JUMP JUMPDEST PUSH1 0x20 DUP3 ADD SWAP2 POP DUP2 SWAP1 POP SWAP4 SWAP3 POP POP POP JUMP JUMPDEST PUSH32 0x4E487B7100000000000000000000000000000000000000000000000000000000 PUSH0 MSTORE PUSH1 0x12 PUSH1 0x4 MSTORE PUSH1 0x24 PUSH0 REVERT JUMPDEST PUSH0 PUSH3 0x4B0 DUP3 PUSH3 0x371 JUMP JUMPDEST SWAP2 POP PUSH3 0x4BD DUP4 PUSH3 0x371 JUMP JUMPDEST SWAP3 POP DUP3 PUSH3 0x4D0 JUMPI PUSH3 0x4CF PUSH3 0x477 JUMP JUMPDEST JUMPDEST DUP3 DUP3 DIV SWAP1 POP SWAP3 SWAP2 POP POP JUMP JUMPDEST PUSH2 0x643 DUP1 PUSH3 0x4E9 PUSH0 CODECOPY PUSH0 RETURN INVALID PUSH1 0x80 PUSH1 0x40 MSTORE CALLVALUE DUP1 ISZERO PUSH2 0xF JUMPI PUSH0 DUP1 REVERT JUMPDEST POP PUSH1 0x4 CALLDATASIZE LT PUSH2 0x3F JUMPI PUSH0 CALLDATALOAD PUSH1 0xE0 SHR DUP1 PUSH4 0x501895AE EQ PUSH2 0x43 JUMPI DUP1 PUSH4 0x5CA1E165 EQ PUSH2 0x73 JUMPI DUP1 PUSH4 0xC9C67672 EQ PUSH2 0x91 JUMPI JUMPDEST PUSH0 DUP1 REVERT JUMPDEST PUSH2 0x5D PUSH1 0x4 DUP1 CALLDATASIZE SUB DUP2 ADD SWAP1 PUSH2 0x58 SWAP2 SWAP1 PUSH2 0x21F JUMP JUMPDEST PUSH2 0xC1 JUMP JUMPDEST PUSH1 0x40 MLOAD PUSH2 0x6A SWAP2 SWAP1 PUSH2 0x262 JUMP JUMPDEST PUSH1 0x40 MLOAD DUP1 SWAP2 SUB SWAP1 RETURN JUMPDEST PUSH2 0x7B PUSH2 0xE0 JUMP JUMPDEST PUSH1 0x40 MLOAD PUSH2 0x88 SWAP2 SWAP1 PUSH2 0x262 JUMP JUMPDEST PUSH1 0x40 MLOAD DUP1 SWAP2 SUB SWAP1 RETURN JUMPDEST PUSH2 0xAB PUSH1 0x4 DUP1 CALLDATASIZE SUB DUP2 ADD SWAP1 PUSH2 0xA6 SWAP2 SWAP1 PUSH2 0x3F5 JUMP JUMPDEST PUSH2 0x112 JUMP JUMPDEST PUSH1 0x40 MLOAD PUSH2 0xB8 SWAP2 SWAP1 PUSH2 0x48F JUMP JUMPDEST PUSH1 0x40 MLOAD DUP1 SWAP2 SUB SWAP1 RETURN JUMPDEST PUSH0 DUP2 DUP2 SLOAD DUP2 LT PUSH2 0xCF JUMPI PUSH0 DUP1 REVERT JUMPDEST SWAP1 PUSH0 MSTORE PUSH1 0x20 PUSH0 KECCAK256 ADD PUSH0 SWAP2 POP SWAP1 POP SLOAD DUP2 JUMP JUMPDEST PUSH0 DUP1 PUSH1 0x1 PUSH0 DUP1 SLOAD SWAP1 POP PUSH2 0xF3 SWAP2 SWAP1 PUSH2 0x4D5 JUMP JUMPDEST DUP2 SLOAD DUP2 LT PUSH2 0x104 JUMPI PUSH2 0x103 PUSH2 0x508 JUMP JUMPDEST JUMPDEST SWAP1 PUSH0 MSTORE PUSH1 0x20 PUSH0 KECCAK256 ADD SLOAD SWAP1 POP SWAP1 JUMP JUMPDEST PUSH0 DUP1 DUP4 SWAP1 POP PUSH0 JUMPDEST DUP7 MLOAD DUP2 LT ISZERO PUSH2 0x1CC JUMPI PUSH0 DUP8 DUP3 DUP2 MLOAD DUP2 LT PUSH2 0x136 JUMPI PUSH2 0x135 PUSH2 0x508 JUMP JUMPDEST JUMPDEST PUSH1 0x20 MUL PUSH1 0x20 ADD ADD MLOAD SWAP1 POP PUSH0 PUSH1 0x2 DUP7 PUSH2 0x14E SWAP2 SWAP1 PUSH2 0x562 JUMP JUMPDEST SUB PUSH2 0x183 JUMPI DUP3 DUP2 PUSH1 0x40 MLOAD PUSH1 0x20 ADD PUSH2 0x166 SWAP3 SWAP2 SWAP1 PUSH2 0x5B2 JUMP JUMPDEST PUSH1 0x40 MLOAD PUSH1 0x20 DUP2 DUP4 SUB SUB DUP2 MSTORE SWAP1 PUSH1 0x40 MSTORE DUP1 MLOAD SWAP1 PUSH1 0x20 ADD KECCAK256 SWAP3 POP PUSH2 0x1AF JUMP JUMPDEST DUP1 DUP4 PUSH1 0x40 MLOAD PUSH1 0x20 ADD PUSH2 0x196 SWAP3 SWAP2 SWAP1 PUSH2 0x5B2 JUMP JUMPDEST PUSH1 0x40 MLOAD PUSH1 0x20 DUP2 DUP4 SUB SUB DUP2 MSTORE SWAP1 PUSH1 0x40 MSTORE DUP1 MLOAD SWAP1 PUSH1 0x20 ADD KECCAK256 SWAP3 POP JUMPDEST PUSH1 0x2 DUP6 PUSH2 0x1BC SWAP2 SWAP1 PUSH2 0x5DD JUMP JUMPDEST SWAP5 POP POP DUP1 DUP1 PUSH1 0x1 ADD SWAP2 POP POP PUSH2 0x119 JUMP JUMPDEST POP DUP5 DUP2 EQ SWAP2 POP POP SWAP5 SWAP4 POP POP POP POP JUMP JUMPDEST PUSH0 PUSH1 0x40 MLOAD SWAP1 POP SWAP1 JUMP JUMPDEST PUSH0 DUP1 REVERT JUMPDEST PUSH0 DUP1 REVERT JUMPDEST PUSH0 DUP2 SWAP1 POP SWAP2 SWAP1 POP JUMP JUMPDEST PUSH2 0x1FE DUP2 PUSH2 0x1EC JUMP JUMPDEST DUP2 EQ PUSH2 0x208 JUMPI PUSH0 DUP1 REVERT JUMPDEST POP JUMP JUMPDEST PUSH0 DUP2 CALLDATALOAD SWAP1 POP PUSH2 0x219 DUP2 PUSH2 0x1F5 JUMP JUMPDEST SWAP3 SWAP2 POP POP JUMP JUMPDEST PUSH0 PUSH1 0x20 DUP3 DUP5 SUB SLT ISZERO PUSH2 0x234 JUMPI PUSH2 0x233 PUSH2 0x1E4 JUMP JUMPDEST JUMPDEST PUSH0 PUSH2 0x241 DUP5 DUP3 DUP6 ADD PUSH2 0x20B JUMP JUMPDEST SWAP2 POP POP SWAP3 SWAP2 POP POP JUMP JUMPDEST PUSH0 DUP2 SWAP1 POP SWAP2 SWAP1 POP JUMP JUMPDEST PUSH2 0x25C DUP2 PUSH2 0x24A JUMP JUMPDEST DUP3 MSTORE POP POP JUMP JUMPDEST PUSH0 PUSH1 0x20 DUP3 ADD SWAP1 POP PUSH2 0x275 PUSH0 DUP4 ADD DUP5 PUSH2 0x253 JUMP JUMPDEST SWAP3 SWAP2 POP POP JUMP JUMPDEST PUSH0 DUP1 REVERT JUMPDEST PUSH0 PUSH1 0x1F NOT PUSH1 0x1F DUP4 ADD AND SWAP1 POP SWAP2 SWAP1 POP JUMP JUMPDEST PUSH32 0x4E487B7100000000000000000000000000000000000000000000000000000000 PUSH0 MSTORE PUSH1 0x41 PUSH1 0x4 MSTORE PUSH1 0x24 PUSH0 REVERT JUMPDEST PUSH2 0x2C5 DUP3 PUSH2 0x27F JUMP JUMPDEST DUP2 ADD DUP2 DUP2 LT PUSH8 0xFFFFFFFFFFFFFFFF DUP3 GT OR ISZERO PUSH2 0x2E4 JUMPI PUSH2 0x2E3 PUSH2 0x28F JUMP JUMPDEST JUMPDEST DUP1 PUSH1 0x40 MSTORE POP POP POP JUMP JUMPDEST PUSH0 PUSH2 0x2F6 PUSH2 0x1DB JUMP JUMPDEST SWAP1 POP PUSH2 0x302 DUP3 DUP3 PUSH2 0x2BC JUMP JUMPDEST SWAP2 SWAP1 POP JUMP JUMPDEST PUSH0 PUSH8 0xFFFFFFFFFFFFFFFF DUP3 GT ISZERO PUSH2 0x321 JUMPI PUSH2 0x320 PUSH2 0x28F JUMP JUMPDEST JUMPDEST PUSH1 0x20 DUP3 MUL SWAP1 POP PUSH1 0x20 DUP2 ADD SWAP1 POP SWAP2 SWAP1 POP JUMP JUMPDEST PUSH0 DUP1 REVERT JUMPDEST PUSH2 0x33F DUP2 PUSH2 0x24A JUMP JUMPDEST DUP2 EQ PUSH2 0x349 JUMPI PUSH0 DUP1 REVERT JUMPDEST POP JUMP JUMPDEST PUSH0 DUP2 CALLDATALOAD SWAP1 POP PUSH2 0x35A DUP2 PUSH2 0x336 JUMP JUMPDEST SWAP3 SWAP2 POP POP JUMP JUMPDEST PUSH0 PUSH2 0x372 PUSH2 0x36D DUP5 PUSH2 0x307 JUMP JUMPDEST PUSH2 0x2ED JUMP JUMPDEST SWAP1 POP DUP1 DUP4 DUP3 MSTORE PUSH1 0x20 DUP3 ADD SWAP1 POP PUSH1 0x20 DUP5 MUL DUP4 ADD DUP6 DUP2 GT ISZERO PUSH2 0x395 JUMPI PUSH2 0x394 PUSH2 0x332 JUMP JUMPDEST JUMPDEST DUP4 JUMPDEST DUP2 DUP2 LT ISZERO PUSH2 0x3BE JUMPI DUP1 PUSH2 0x3AA DUP9 DUP3 PUSH2 0x34C JUMP JUMPDEST DUP5 MSTORE PUSH1 0x20 DUP5 ADD SWAP4 POP POP PUSH1 0x20 DUP2 ADD SWAP1 POP PUSH2 0x397 JUMP JUMPDEST POP POP POP SWAP4 SWAP3 POP POP POP JUMP JUMPDEST PUSH0 DUP3 PUSH1 0x1F DUP4 ADD SLT PUSH2 0x3DC JUMPI PUSH2 0x3DB PUSH2 0x27B JUMP JUMPDEST JUMPDEST DUP2 CALLDATALOAD PUSH2 0x3EC DUP5 DUP3 PUSH1 0x20 DUP7 ADD PUSH2 0x360 JUMP JUMPDEST SWAP2 POP POP SWAP3 SWAP2 POP POP JUMP JUMPDEST PUSH0 DUP1 PUSH0 DUP1 PUSH1 0x80 DUP6 DUP8 SUB SLT ISZERO PUSH2 0x40D JUMPI PUSH2 0x40C PUSH2 0x1E4 JUMP JUMPDEST JUMPDEST PUSH0 DUP6 ADD CALLDATALOAD PUSH8 0xFFFFFFFFFFFFFFFF DUP2 GT ISZERO PUSH2 0x42A JUMPI PUSH2 0x429 PUSH2 0x1E8 JUMP JUMPDEST JUMPDEST PUSH2 0x436 DUP8 DUP3 DUP9 ADD PUSH2 0x3C8 JUMP JUMPDEST SWAP5 POP POP PUSH1 0x20 PUSH2 0x447 DUP8 DUP3 DUP9 ADD PUSH2 0x34C JUMP JUMPDEST SWAP4 POP POP PUSH1 0x40 PUSH2 0x458 DUP8 DUP3 DUP9 ADD PUSH2 0x34C JUMP JUMPDEST SWAP3 POP POP PUSH1 0x60 PUSH2 0x469 DUP8 DUP3 DUP9 ADD PUSH2 0x20B JUMP JUMPDEST SWAP2 POP POP SWAP3 SWAP6 SWAP2 SWAP5 POP SWAP3 POP JUMP JUMPDEST PUSH0 DUP2 ISZERO ISZERO SWAP1 POP SWAP2 SWAP1 POP JUMP JUMPDEST PUSH2 0x489 DUP2 PUSH2 0x475 JUMP JUMPDEST DUP3 MSTORE POP POP JUMP JUMPDEST PUSH0 PUSH1 0x20 DUP3 ADD SWAP1 POP PUSH2 0x4A2 PUSH0 DUP4 ADD DUP5 PUSH2 0x480 JUMP JUMPDEST SWAP3 SWAP2 POP POP JUMP JUMPDEST PUSH32 0x4E487B7100000000000000000000000000000000000000000000000000000000 PUSH0 MSTORE PUSH1 0x11 PUSH1 0x4 MSTORE PUSH1 0x24 PUSH0 REVERT JUMPDEST PUSH0 PUSH2 0x4DF DUP3 PUSH2 0x1EC JUMP JUMPDEST SWAP2 POP PUSH2 0x4EA DUP4 PUSH2 0x1EC JUMP JUMPDEST SWAP3 POP DUP3 DUP3 SUB SWAP1 POP DUP2 DUP2 GT ISZERO PUSH2 0x502 JUMPI PUSH2 0x501 PUSH2 0x4A8 JUMP JUMPDEST JUMPDEST SWAP3 SWAP2 POP POP JUMP JUMPDEST PUSH32 0x4E487B7100000000000000000000000000000000000000000000000000000000 PUSH0 MSTORE PUSH1 0x32 PUSH1 0x4 MSTORE PUSH1 0x24 PUSH0 REVERT JUMPDEST PUSH32 0x4E487B7100000000000000000000000000000000000000000000000000000000 PUSH0 MSTORE PUSH1 0x12 PUSH1 0x4 MSTORE PUSH1 0x24 PUSH0 REVERT JUMPDEST PUSH0 PUSH2 0x56C DUP3 PUSH2 0x1EC JUMP JUMPDEST SWAP2 POP PUSH2 0x577 DUP4 PUSH2 0x1EC JUMP JUMPDEST SWAP3 POP DUP3 PUSH2 0x587 JUMPI PUSH2 0x586 PUSH2 0x535 JUMP JUMPDEST JUMPDEST DUP3 DUP3 MOD SWAP1 POP SWAP3 SWAP2 POP POP JUMP JUMPDEST PUSH0 DUP2 SWAP1 POP SWAP2 SWAP1 POP JUMP JUMPDEST PUSH2 0x5AC PUSH2 0x5A7 DUP3 PUSH2 0x24A JUMP JUMPDEST PUSH2 0x592 JUMP JUMPDEST DUP3 MSTORE POP POP JUMP JUMPDEST PUSH0 PUSH2 0x5BD DUP3 DUP6 PUSH2 0x59B JUMP JUMPDEST PUSH1 0x20 DUP3 ADD SWAP2 POP PUSH2 0x5CD DUP3 DUP5 PUSH2 0x59B JUMP JUMPDEST PUSH1 0x20 DUP3 ADD SWAP2 POP DUP2 SWAP1 POP SWAP4 SWAP3 POP POP POP JUMP JUMPDEST PUSH0 PUSH2 0x5E7 DUP3 PUSH2 0x1EC JUMP JUMPDEST SWAP2 POP PUSH2 0x5F2 DUP4 PUSH2 0x1EC JUMP JUMPDEST SWAP3 POP DUP3 PUSH2 0x602 JUMPI PUSH2 0x601 PUSH2 0x535 JUMP JUMPDEST JUMPDEST DUP3 DUP3 DIV SWAP1 POP SWAP3 SWAP2 POP POP JUMP INVALID LOG2 PUSH5 0x6970667358 0x22 SLT KECCAK256 0xB6 0xD9 0xE 0xB0 CALLDATALOAD SWAP9 PUSH10 0x2ECC6502C3404009850F 0xE0 0xE0 ADDMOD 0x1F 0x24 0xFB PUSH29 0xE5E92D50D8302F4964736F6C6343000818003300000000000000000000 "
		},
		"gasEstimates": {
			"creation": {
				"codeDepositCost": "320600",
				"executionCost": "infinite",
				"totalCost": "infinite"
			},
			"external": {
				"Verify(bytes32[],bytes32,bytes32,uint256)": "infinite",
				"getRoot()": "infinite",
				"hashes(uint256)": "4848"
			}
		},
		"methodIdentifiers": {
			"Verify(bytes32[],bytes32,bytes32,uint256)": "c9c67672",
			"getRoot()": "5ca1e165",
			"hashes(uint256)": "501895ae"
		}
	},
	"abi": [
		{
			"inputs": [],
			"stateMutability": "nonpayable",
			"type": "constructor"
		},
		{
			"inputs": [
				{
					"internalType": "bytes32[]",
					"name": "proof",
					"type": "bytes32[]"
				},
				{
					"internalType": "bytes32",
					"name": "root",
					"type": "bytes32"
				},
				{
					"internalType": "bytes32",
					"name": "leaf",
					"type": "bytes32"
				},
				{
					"internalType": "uint256",
					"name": "index",
					"type": "uint256"
				}
			],
			"name": "Verify",
			"outputs": [
				{
					"internalType": "bool",
					"name": "",
					"type": "bool"
				}
			],
			"stateMutability": "pure",
			"type": "function"
		},
		{
			"inputs": [],
			"name": "getRoot",
			"outputs": [
				{
					"internalType": "bytes32",
					"name": "",
					"type": "bytes32"
				}
			],
			"stateMutability": "view",
			"type": "function"
		},
		{
			"inputs": [
				{
					"internalType": "uint256",
					"name": "",
					"type": "uint256"
				}
			],
			"name": "hashes",
			"outputs": [
				{
					"internalType": "bytes32",
					"name": "",
					"type": "bytes32"
				}
			],
			"stateMutability": "view",
			"type": "function"
		}
	]
}